{
	"function.sol": {
		"MyFavoriteNumber": {
			"abi": [
				{
					"inputs": [],
					"name": "myNumber",
					"outputs": [
						{
							"internalType": "uint256",
							"name": "",
							"type": "uint256"
						}
					],
					"stateMutability": "view",
					"type": "function"
				},
				{
					"inputs": [],
					"name": "myStatus",
					"outputs": [
						{
							"internalType": "string",
							"name": "",
							"type": "string"
						}
					],
					"stateMutability": "view",
					"type": "function"
				},
				{
					"inputs": [
						{
							"internalType": "uint256",
							"name": "_newNumber",
							"type": "uint256"
						}
					],
					"name": "setMyNumber",
					"outputs": [],
					"stateMutability": "nonpayable",
					"type": "function"
				},
				{
					"inputs": [
						{
							"internalType": "string",
							"name": "_newStatus",
							"type": "string"
						}
					],
					"name": "setMyStatus",
					"outputs": [],
					"stateMutability": "nonpayable",
					"type": "function"
				}
			],
			"devdoc": {
				"kind": "dev",
				"methods": {},
				"version": 1
			},
			"evm": {
				"assembly": "    /* \"function.sol\":61:396  contract MyFavoriteNumber {... */\n  mstore(0x40, 0x80)\n    /* \"function.sol\":117:119  10 */\n  0x0a\n    /* \"function.sol\":94:119  uint public myNumber = 10 */\n  0x00\n  sstore\n    /* \"function.sol\":126:168  string public myStatus=\"Learning Solidity\" */\n  mload(0x40)\n  dup1\n  0x40\n  add\n  0x40\n  mstore\n  dup1\n  0x11\n  dup2\n  mstore\n  0x20\n  add\n  0x4c6561726e696e6720536f6c6964697479000000000000000000000000000000\n  dup2\n  mstore\n  pop\n  0x01\n  swap1\n  dup2\n  tag_1\n  swap2\n  swap1\n  tag_2\n  jump\t// in\ntag_1:\n  pop\n    /* \"function.sol\":61:396  contract MyFavoriteNumber {... */\n  callvalue\n  dup1\n  iszero\n  tag_3\n  jumpi\n  revert(0x00, 0x00)\ntag_3:\n  pop\n  jump(tag_4)\n    /* \"#utility.yul\":7:106   */\ntag_5:\n    /* \"#utility.yul\":59:65   */\n  0x00\n    /* \"#utility.yul\":93:98   */\n  dup2\n    /* \"#utility.yul\":87:99   */\n  mload\n    /* \"#utility.yul\":77:99   */\n  swap1\n  pop\n    /* \"#utility.yul\":7:106   */\n  swap2\n  swap1\n  pop\n  jump\t// out\n    /* \"#utility.yul\":112:292   */\ntag_6:\n    /* \"#utility.yul\":160:237   */\n  0x4e487b7100000000000000000000000000000000000000000000000000000000\n    /* \"#utility.yul\":157:158   */\n  0x00\n    /* \"#utility.yul\":150:238   */\n  mstore\n    /* \"#utility.yul\":257:261   */\n  0x41\n    /* \"#utility.yul\":254:255   */\n  0x04\n    /* \"#utility.yul\":247:262   */\n  mstore\n    /* \"#utility.yul\":281:285   */\n  0x24\n    /* \"#utility.yul\":278:279   */\n  0x00\n    /* \"#utility.yul\":271:286   */\n  revert\n    /* \"#utility.yul\":298:478   */\ntag_7:\n    /* \"#utility.yul\":346:423   */\n  0x4e487b7100000000000000000000000000000000000000000000000000000000\n    /* \"#utility.yul\":343:344   */\n  0x00\n    /* \"#utility.yul\":336:424   */\n  mstore\n    /* \"#utility.yul\":443:447   */\n  0x22\n    /* \"#utility.yul\":440:441   */\n  0x04\n    /* \"#utility.yul\":433:448   */\n  mstore\n    /* \"#utility.yul\":467:471   */\n  0x24\n    /* \"#utility.yul\":464:465   */\n  0x00\n    /* \"#utility.yul\":457:472   */\n  revert\n    /* \"#utility.yul\":484:804   */\ntag_8:\n    /* \"#utility.yul\":528:534   */\n  0x00\n    /* \"#utility.yul\":565:566   */\n  0x02\n    /* \"#utility.yul\":559:563   */\n  dup3\n    /* \"#utility.yul\":555:567   */\n  div\n    /* \"#utility.yul\":545:567   */\n  swap1\n  pop\n    /* \"#utility.yul\":612:613   */\n  0x01\n    /* \"#utility.yul\":606:610   */\n  dup3\n    /* \"#utility.yul\":602:614   */\n  and\n    /* \"#utility.yul\":633:651   */\n  dup1\n    /* \"#utility.yul\":623:704   */\n  tag_30\n  jumpi\n    /* \"#utility.yul\":689:693   */\n  0x7f\n    /* \"#utility.yul\":681:687   */\n  dup3\n    /* \"#utility.yul\":677:694   */\n  and\n    /* \"#utility.yul\":667:694   */\n  swap2\n  pop\n    /* \"#utility.yul\":623:704   */\ntag_30:\n    /* \"#utility.yul\":751:753   */\n  0x20\n    /* \"#utility.yul\":743:749   */\n  dup3\n    /* \"#utility.yul\":740:754   */\n  lt\n    /* \"#utility.yul\":720:738   */\n  dup2\n    /* \"#utility.yul\":717:755   */\n  sub\n    /* \"#utility.yul\":714:798   */\n  tag_31\n  jumpi\n    /* \"#utility.yul\":770:788   */\n  tag_32\n  tag_7\n  jump\t// in\ntag_32:\n    /* \"#utility.yul\":714:798   */\ntag_31:\n    /* \"#utility.yul\":535:804   */\n  pop\n    /* \"#utility.yul\":484:804   */\n  swap2\n  swap1\n  pop\n  jump\t// out\n    /* \"#utility.yul\":810:951   */\ntag_9:\n    /* \"#utility.yul\":859:863   */\n  0x00\n    /* \"#utility.yul\":882:885   */\n  dup2\n    /* \"#utility.yul\":874:885   */\n  swap1\n  pop\n    /* \"#utility.yul\":905:908   */\n  dup2\n    /* \"#utility.yul\":902:903   */\n  0x00\n    /* \"#utility.yul\":895:909   */\n  mstore\n    /* \"#utility.yul\":939:943   */\n  0x20\n    /* \"#utility.yul\":936:937   */\n  0x00\n    /* \"#utility.yul\":926:944   */\n  keccak256\n    /* \"#utility.yul\":918:944   */\n  swap1\n  pop\n    /* \"#utility.yul\":810:951   */\n  swap2\n  swap1\n  pop\n  jump\t// out\n    /* \"#utility.yul\":957:1050   */\ntag_10:\n    /* \"#utility.yul\":994:1000   */\n  0x00\n    /* \"#utility.yul\":1041:1043   */\n  0x20\n    /* \"#utility.yul\":1036:1038   */\n  0x1f\n    /* \"#utility.yul\":1029:1034   */\n  dup4\n    /* \"#utility.yul\":1025:1039   */\n  add\n    /* \"#utility.yul\":1021:1044   */\n  div\n    /* \"#utility.yul\":1011:1044   */\n  swap1\n  pop\n    /* \"#utility.yul\":957:1050   */\n  swap2\n  swap1\n  pop\n  jump\t// out\n    /* \"#utility.yul\":1056:1163   */\ntag_11:\n    /* \"#utility.yul\":1100:1108   */\n  0x00\n    /* \"#utility.yul\":1150:1155   */\n  dup3\n    /* \"#utility.yul\":1144:1148   */\n  dup3\n    /* \"#utility.yul\":1140:1156   */\n  shl\n    /* \"#utility.yul\":1119:1156   */\n  swap1\n  pop\n    /* \"#utility.yul\":1056:1163   */\n  swap3\n  swap2\n  pop\n  pop\n  jump\t// out\n    /* \"#utility.yul\":1169:1562   */\ntag_12:\n    /* \"#utility.yul\":1238:1244   */\n  0x00\n    /* \"#utility.yul\":1288:1289   */\n  0x08\n    /* \"#utility.yul\":1276:1286   */\n  dup4\n    /* \"#utility.yul\":1272:1290   */\n  mul\n    /* \"#utility.yul\":1311:1408   */\n  tag_37\n    /* \"#utility.yul\":1341:1407   */\n  0xffffffffffffffffffffffffffffffffffffffffffffffffffffffffffffffff\n    /* \"#utility.yul\":1330:1339   */\n  dup3\n    /* \"#utility.yul\":1311:1408   */\n  tag_11\n  jump\t// in\ntag_37:\n    /* \"#utility.yul\":1429:1468   */\n  tag_38\n    /* \"#utility.yul\":1459:1467   */\n  dup7\n    /* \"#utility.yul\":1448:1457   */\n  dup4\n    /* \"#utility.yul\":1429:1468   */\n  tag_11\n  jump\t// in\ntag_38:\n    /* \"#utility.yul\":1417:1468   */\n  swap6\n  pop\n    /* \"#utility.yul\":1501:1505   */\n  dup1\n    /* \"#utility.yul\":1497:1506   */\n  not\n    /* \"#utility.yul\":1490:1495   */\n  dup5\n    /* \"#utility.yul\":1486:1507   */\n  and\n    /* \"#utility.yul\":1477:1507   */\n  swap4\n  pop\n    /* \"#utility.yul\":1550:1554   */\n  dup1\n    /* \"#utility.yul\":1540:1548   */\n  dup7\n    /* \"#utility.yul\":1536:1555   */\n  and\n    /* \"#utility.yul\":1529:1534   */\n  dup5\n    /* \"#utility.yul\":1526:1556   */\n  or\n    /* \"#utility.yul\":1516:1556   */\n  swap3\n  pop\n    /* \"#utility.yul\":1245:1562   */\n  pop\n  pop\n    /* \"#utility.yul\":1169:1562   */\n  swap4\n  swap3\n  pop\n  pop\n  pop\n  jump\t// out\n    /* \"#utility.yul\":1568:1645   */\ntag_13:\n    /* \"#utility.yul\":1605:1612   */\n  0x00\n    /* \"#utility.yul\":1634:1639   */\n  dup2\n    /* \"#utility.yul\":1623:1639   */\n  swap1\n  pop\n    /* \"#utility.yul\":1568:1645   */\n  swap2\n  swap1\n  pop\n  jump\t// out\n    /* \"#utility.yul\":1651:1711   */\ntag_14:\n    /* \"#utility.yul\":1679:1682   */\n  0x00\n    /* \"#utility.yul\":1700:1705   */\n  dup2\n    /* \"#utility.yul\":1693:1705   */\n  swap1\n  pop\n    /* \"#utility.yul\":1651:1711   */\n  swap2\n  swap1\n  pop\n  jump\t// out\n    /* \"#utility.yul\":1717:1859   */\ntag_15:\n    /* \"#utility.yul\":1767:1776   */\n  0x00\n    /* \"#utility.yul\":1800:1853   */\n  tag_42\n    /* \"#utility.yul\":1818:1852   */\n  tag_43\n    /* \"#utility.yul\":1827:1851   */\n  tag_44\n    /* \"#utility.yul\":1845:1850   */\n  dup5\n    /* \"#utility.yul\":1827:1851   */\n  tag_13\n  jump\t// in\ntag_44:\n    /* \"#utility.yul\":1818:1852   */\n  tag_14\n  jump\t// in\ntag_43:\n    /* \"#utility.yul\":1800:1853   */\n  tag_13\n  jump\t// in\ntag_42:\n    /* \"#utility.yul\":1787:1853   */\n  swap1\n  pop\n    /* \"#utility.yul\":1717:1859   */\n  swap2\n  swap1\n  pop\n  jump\t// out\n    /* \"#utility.yul\":1865:1940   */\ntag_16:\n    /* \"#utility.yul\":1908:1911   */\n  0x00\n    /* \"#utility.yul\":1929:1934   */\n  dup2\n    /* \"#utility.yul\":1922:1934   */\n  swap1\n  pop\n    /* \"#utility.yul\":1865:1940   */\n  swap2\n  swap1\n  pop\n  jump\t// out\n    /* \"#utility.yul\":1946:2215   */\ntag_17:\n    /* \"#utility.yul\":2056:2095   */\n  tag_47\n    /* \"#utility.yul\":2087:2094   */\n  dup4\n    /* \"#utility.yul\":2056:2095   */\n  tag_15\n  jump\t// in\ntag_47:\n    /* \"#utility.yul\":2117:2208   */\n  tag_48\n    /* \"#utility.yul\":2166:2207   */\n  tag_49\n    /* \"#utility.yul\":2190:2206   */\n  dup3\n    /* \"#utility.yul\":2166:2207   */\n  tag_16\n  jump\t// in\ntag_49:\n    /* \"#utility.yul\":2158:2164   */\n  dup5\n    /* \"#utility.yul\":2151:2155   */\n  dup5\n    /* \"#utility.yul\":2145:2156   */\n  sload\n    /* \"#utility.yul\":2117:2208   */\n  tag_12\n  jump\t// in\ntag_48:\n    /* \"#utility.yul\":2111:2115   */\n  dup3\n    /* \"#utility.yul\":2104:2209   */\n  sstore\n    /* \"#utility.yul\":2022:2215   */\n  pop\n    /* \"#utility.yul\":1946:2215   */\n  pop\n  pop\n  pop\n  jump\t// out\n    /* \"#utility.yul\":2221:2294   */\ntag_18:\n    /* \"#utility.yul\":2266:2269   */\n  0x00\n    /* \"#utility.yul\":2287:2288   */\n  0x00\n    /* \"#utility.yul\":2280:2288   */\n  swap1\n  pop\n    /* \"#utility.yul\":2221:2294   */\n  swap1\n  jump\t// out\n    /* \"#utility.yul\":2300:2489   */\ntag_19:\n    /* \"#utility.yul\":2377:2409   */\n  tag_52\n  tag_18\n  jump\t// in\ntag_52:\n    /* \"#utility.yul\":2418:2483   */\n  tag_53\n    /* \"#utility.yul\":2476:2482   */\n  dup2\n    /* \"#utility.yul\":2468:2474   */\n  dup5\n    /* \"#utility.yul\":2462:2466   */\n  dup5\n    /* \"#utility.yul\":2418:2483   */\n  tag_17\n  jump\t// in\ntag_53:\n    /* \"#utility.yul\":2353:2489   */\n  pop\n    /* \"#utility.yul\":2300:2489   */\n  pop\n  pop\n  jump\t// out\n    /* \"#utility.yul\":2495:2681   */\ntag_20:\n    /* \"#utility.yul\":2555:2675   */\ntag_55:\n    /* \"#utility.yul\":2572:2575   */\n  dup2\n    /* \"#utility.yul\":2565:2570   */\n  dup2\n    /* \"#utility.yul\":2562:2576   */\n  lt\n    /* \"#utility.yul\":2555:2675   */\n  iszero\n  tag_57\n  jumpi\n    /* \"#utility.yul\":2626:2665   */\n  tag_58\n    /* \"#utility.yul\":2663:2664   */\n  0x00\n    /* \"#utility.yul\":2656:2661   */\n  dup3\n    /* \"#utility.yul\":2626:2665   */\n  tag_19\n  jump\t// in\ntag_58:\n    /* \"#utility.yul\":2599:2600   */\n  0x01\n    /* \"#utility.yul\":2592:2597   */\n  dup2\n    /* \"#utility.yul\":2588:2601   */\n  add\n    /* \"#utility.yul\":2579:2601   */\n  swap1\n  pop\n    /* \"#utility.yul\":2555:2675   */\n  jump(tag_55)\ntag_57:\n    /* \"#utility.yul\":2495:2681   */\n  pop\n  pop\n  jump\t// out\n    /* \"#utility.yul\":2687:3230   */\ntag_21:\n    /* \"#utility.yul\":2788:2790   */\n  0x1f\n    /* \"#utility.yul\":2783:2786   */\n  dup3\n    /* \"#utility.yul\":2780:2791   */\n  gt\n    /* \"#utility.yul\":2777:3223   */\n  iszero\n  tag_60\n  jumpi\n    /* \"#utility.yul\":2822:2860   */\n  tag_61\n    /* \"#utility.yul\":2854:2859   */\n  dup2\n    /* \"#utility.yul\":2822:2860   */\n  tag_9\n  jump\t// in\ntag_61:\n    /* \"#utility.yul\":2906:2935   */\n  tag_62\n    /* \"#utility.yul\":2924:2934   */\n  dup5\n    /* \"#utility.yul\":2906:2935   */\n  tag_10\n  jump\t// in\ntag_62:\n    /* \"#utility.yul\":2896:2904   */\n  dup2\n    /* \"#utility.yul\":2892:2936   */\n  add\n    /* \"#utility.yul\":3089:3091   */\n  0x20\n    /* \"#utility.yul\":3077:3087   */\n  dup6\n    /* \"#utility.yul\":3074:3092   */\n  lt\n    /* \"#utility.yul\":3071:3120   */\n  iszero\n  tag_63\n  jumpi\n    /* \"#utility.yul\":3110:3118   */\n  dup2\n    /* \"#utility.yul\":3095:3118   */\n  swap1\n  pop\n    /* \"#utility.yul\":3071:3120   */\ntag_63:\n    /* \"#utility.yul\":3133:3213   */\n  tag_64\n    /* \"#utility.yul\":3189:3211   */\n  tag_65\n    /* \"#utility.yul\":3207:3210   */\n  dup6\n    /* \"#utility.yul\":3189:3211   */\n  tag_10\n  jump\t// in\ntag_65:\n    /* \"#utility.yul\":3179:3187   */\n  dup4\n    /* \"#utility.yul\":3175:3212   */\n  add\n    /* \"#utility.yul\":3162:3173   */\n  dup3\n    /* \"#utility.yul\":3133:3213   */\n  tag_20\n  jump\t// in\ntag_64:\n    /* \"#utility.yul\":2792:3223   */\n  pop\n  pop\n    /* \"#utility.yul\":2777:3223   */\ntag_60:\n    /* \"#utility.yul\":2687:3230   */\n  pop\n  pop\n  pop\n  jump\t// out\n    /* \"#utility.yul\":3236:3353   */\ntag_22:\n    /* \"#utility.yul\":3290:3298   */\n  0x00\n    /* \"#utility.yul\":3340:3345   */\n  dup3\n    /* \"#utility.yul\":3334:3338   */\n  dup3\n    /* \"#utility.yul\":3330:3346   */\n  shr\n    /* \"#utility.yul\":3309:3346   */\n  swap1\n  pop\n    /* \"#utility.yul\":3236:3353   */\n  swap3\n  swap2\n  pop\n  pop\n  jump\t// out\n    /* \"#utility.yul\":3359:3528   */\ntag_23:\n    /* \"#utility.yul\":3403:3409   */\n  0x00\n    /* \"#utility.yul\":3436:3487   */\n  tag_68\n    /* \"#utility.yul\":3484:3485   */\n  0x00\n    /* \"#utility.yul\":3480:3486   */\n  not\n    /* \"#utility.yul\":3472:3477   */\n  dup5\n    /* \"#utility.yul\":3469:3470   */\n  0x08\n    /* \"#utility.yul\":3465:3478   */\n  mul\n    /* \"#utility.yul\":3436:3487   */\n  tag_22\n  jump\t// in\ntag_68:\n    /* \"#utility.yul\":3432:3488   */\n  not\n    /* \"#utility.yul\":3517:3521   */\n  dup1\n    /* \"#utility.yul\":3511:3515   */\n  dup4\n    /* \"#utility.yul\":3507:3522   */\n  and\n    /* \"#utility.yul\":3497:3522   */\n  swap2\n  pop\n    /* \"#utility.yul\":3410:3528   */\n  pop\n    /* \"#utility.yul\":3359:3528   */\n  swap3\n  swap2\n  pop\n  pop\n  jump\t// out\n    /* \"#utility.yul\":3533:3828   */\ntag_24:\n    /* \"#utility.yul\":3609:3613   */\n  0x00\n    /* \"#utility.yul\":3755:3784   */\n  tag_70\n    /* \"#utility.yul\":3780:3783   */\n  dup4\n    /* \"#utility.yul\":3774:3778   */\n  dup4\n    /* \"#utility.yul\":3755:3784   */\n  tag_23\n  jump\t// in\ntag_70:\n    /* \"#utility.yul\":3747:3784   */\n  swap2\n  pop\n    /* \"#utility.yul\":3817:3820   */\n  dup3\n    /* \"#utility.yul\":3814:3815   */\n  0x02\n    /* \"#utility.yul\":3810:3821   */\n  mul\n    /* \"#utility.yul\":3804:3808   */\n  dup3\n    /* \"#utility.yul\":3801:3822   */\n  or\n    /* \"#utility.yul\":3793:3822   */\n  swap1\n  pop\n    /* \"#utility.yul\":3533:3828   */\n  swap3\n  swap2\n  pop\n  pop\n  jump\t// out\n    /* \"#utility.yul\":3833:5228   */\ntag_2:\n    /* \"#utility.yul\":3950:3987   */\n  tag_72\n    /* \"#utility.yul\":3983:3986   */\n  dup3\n    /* \"#utility.yul\":3950:3987   */\n  tag_5\n  jump\t// in\ntag_72:\n    /* \"#utility.yul\":4052:4070   */\n  0xffffffffffffffff\n    /* \"#utility.yul\":4044:4050   */\n  dup2\n    /* \"#utility.yul\":4041:4071   */\n  gt\n    /* \"#utility.yul\":4038:4094   */\n  iszero\n  tag_73\n  jumpi\n    /* \"#utility.yul\":4074:4092   */\n  tag_74\n  tag_6\n  jump\t// in\ntag_74:\n    /* \"#utility.yul\":4038:4094   */\ntag_73:\n    /* \"#utility.yul\":4118:4156   */\n  tag_75\n    /* \"#utility.yul\":4150:4154   */\n  dup3\n    /* \"#utility.yul\":4144:4155   */\n  sload\n    /* \"#utility.yul\":4118:4156   */\n  tag_8\n  jump\t// in\ntag_75:\n    /* \"#utility.yul\":4203:4270   */\n  tag_76\n    /* \"#utility.yul\":4263:4269   */\n  dup3\n    /* \"#utility.yul\":4255:4261   */\n  dup3\n    /* \"#utility.yul\":4249:4253   */\n  dup6\n    /* \"#utility.yul\":4203:4270   */\n  tag_21\n  jump\t// in\ntag_76:\n    /* \"#utility.yul\":4297:4298   */\n  0x00\n    /* \"#utility.yul\":4321:4325   */\n  0x20\n    /* \"#utility.yul\":4308:4325   */\n  swap1\n  pop\n    /* \"#utility.yul\":4353:4355   */\n  0x1f\n    /* \"#utility.yul\":4345:4351   */\n  dup4\n    /* \"#utility.yul\":4342:4356   */\n  gt\n    /* \"#utility.yul\":4370:4371   */\n  0x01\n    /* \"#utility.yul\":4365:4983   */\n  dup2\n  eq\n  tag_78\n  jumpi\n    /* \"#utility.yul\":5027:5028   */\n  0x00\n    /* \"#utility.yul\":5044:5050   */\n  dup5\n    /* \"#utility.yul\":5041:5118   */\n  iszero\n  tag_79\n  jumpi\n    /* \"#utility.yul\":5093:5102   */\n  dup3\n    /* \"#utility.yul\":5088:5091   */\n  dup8\n    /* \"#utility.yul\":5084:5103   */\n  add\n    /* \"#utility.yul\":5078:5104   */\n  mload\n    /* \"#utility.yul\":5069:5104   */\n  swap1\n  pop\n    /* \"#utility.yul\":5041:5118   */\ntag_79:\n    /* \"#utility.yul\":5144:5211   */\n  tag_80\n    /* \"#utility.yul\":5204:5210   */\n  dup6\n    /* \"#utility.yul\":5197:5202   */\n  dup3\n    /* \"#utility.yul\":5144:5211   */\n  tag_24\n  jump\t// in\ntag_80:\n    /* \"#utility.yul\":5138:5142   */\n  dup7\n    /* \"#utility.yul\":5131:5212   */\n  sstore\n    /* \"#utility.yul\":5000:5222   */\n  pop\n    /* \"#utility.yul\":4335:5222   */\n  jump(tag_77)\n    /* \"#utility.yul\":4365:4983   */\ntag_78:\n    /* \"#utility.yul\":4417:4421   */\n  0x1f\n    /* \"#utility.yul\":4413:4422   */\n  not\n    /* \"#utility.yul\":4405:4411   */\n  dup5\n    /* \"#utility.yul\":4401:4423   */\n  and\n    /* \"#utility.yul\":4451:4488   */\n  tag_81\n    /* \"#utility.yul\":4483:4487   */\n  dup7\n    /* \"#utility.yul\":4451:4488   */\n  tag_9\n  jump\t// in\ntag_81:\n    /* \"#utility.yul\":4510:4511   */\n  0x00\n    /* \"#utility.yul\":4524:4732   */\ntag_82:\n    /* \"#utility.yul\":4538:4545   */\n  dup3\n    /* \"#utility.yul\":4535:4536   */\n  dup2\n    /* \"#utility.yul\":4532:4546   */\n  lt\n    /* \"#utility.yul\":4524:4732   */\n  iszero\n  tag_84\n  jumpi\n    /* \"#utility.yul\":4617:4626   */\n  dup5\n    /* \"#utility.yul\":4612:4615   */\n  dup10\n    /* \"#utility.yul\":4608:4627   */\n  add\n    /* \"#utility.yul\":4602:4628   */\n  mload\n    /* \"#utility.yul\":4594:4600   */\n  dup3\n    /* \"#utility.yul\":4587:4629   */\n  sstore\n    /* \"#utility.yul\":4668:4669   */\n  0x01\n    /* \"#utility.yul\":4660:4666   */\n  dup3\n    /* \"#utility.yul\":4656:4670   */\n  add\n    /* \"#utility.yul\":4646:4670   */\n  swap2\n  pop\n    /* \"#utility.yul\":4715:4717   */\n  0x20\n    /* \"#utility.yul\":4704:4713   */\n  dup6\n    /* \"#utility.yul\":4700:4718   */\n  add\n    /* \"#utility.yul\":4687:4718   */\n  swap5\n  pop\n    /* \"#utility.yul\":4561:4565   */\n  0x20\n    /* \"#utility.yul\":4558:4559   */\n  dup2\n    /* \"#utility.yul\":4554:4566   */\n  add\n    /* \"#utility.yul\":4549:4566   */\n  swap1\n  pop\n    /* \"#utility.yul\":4524:4732   */\n  jump(tag_82)\ntag_84:\n    /* \"#utility.yul\":4760:4766   */\n  dup7\n    /* \"#utility.yul\":4751:4758   */\n  dup4\n    /* \"#utility.yul\":4748:4767   */\n  lt\n    /* \"#utility.yul\":4745:4924   */\n  iszero\n  tag_85\n  jumpi\n    /* \"#utility.yul\":4818:4827   */\n  dup5\n    /* \"#utility.yul\":4813:4816   */\n  dup10\n    /* \"#utility.yul\":4809:4828   */\n  add\n    /* \"#utility.yul\":4803:4829   */\n  mload\n    /* \"#utility.yul\":4861:4909   */\n  tag_86\n    /* \"#utility.yul\":4903:4907   */\n  0x1f\n    /* \"#utility.yul\":4895:4901   */\n  dup10\n    /* \"#utility.yul\":4891:4908   */\n  and\n    /* \"#utility.yul\":4880:4889   */\n  dup3\n    /* \"#utility.yul\":4861:4909   */\n  tag_23\n  jump\t// in\ntag_86:\n    /* \"#utility.yul\":4853:4859   */\n  dup4\n    /* \"#utility.yul\":4846:4910   */\n  sstore\n    /* \"#utility.yul\":4768:4924   */\n  pop\n    /* \"#utility.yul\":4745:4924   */\ntag_85:\n    /* \"#utility.yul\":4970:4971   */\n  0x01\n    /* \"#utility.yul\":4966:4967   */\n  0x02\n    /* \"#utility.yul\":4958:4964   */\n  dup9\n    /* \"#utility.yul\":4954:4968   */\n  mul\n    /* \"#utility.yul\":4950:4972   */\n  add\n    /* \"#utility.yul\":4944:4948   */\n  dup9\n    /* \"#utility.yul\":4937:4973   */\n  sstore\n    /* \"#utility.yul\":4372:4983   */\n  pop\n  pop\n  pop\n    /* \"#utility.yul\":4335:5222   */\ntag_77:\n  pop\n    /* \"#utility.yul\":3925:5228   */\n  pop\n  pop\n  pop\n    /* \"#utility.yul\":3833:5228   */\n  pop\n  pop\n  jump\t// out\n    /* \"function.sol\":61:396  contract MyFavoriteNumber {... */\ntag_4:\n  dataSize(sub_0)\n  dup1\n  dataOffset(sub_0)\n  0x00\n  codecopy\n  0x00\n  return\nstop\n\nsub_0: assembly {\n        /* \"function.sol\":61:396  contract MyFavoriteNumber {... */\n      mstore(0x40, 0x80)\n      callvalue\n      dup1\n      iszero\n      tag_1\n      jumpi\n      revert(0x00, 0x00)\n    tag_1:\n      pop\n      jumpi(tag_2, lt(calldatasize, 0x04))\n      shr(0xe0, calldataload(0x00))\n      dup1\n      0x23fd0e40\n      eq\n      tag_3\n      jumpi\n      dup1\n      0x6ffd773c\n      eq\n      tag_4\n      jumpi\n      dup1\n      0x9ce85dff\n      eq\n      tag_5\n      jumpi\n      dup1\n      0xc176873d\n      eq\n      tag_6\n      jumpi\n    tag_2:\n      revert(0x00, 0x00)\n        /* \"function.sol\":94:119  uint public myNumber = 10 */\n    tag_3:\n      tag_7\n      tag_8\n      jump\t// in\n    tag_7:\n      mload(0x40)\n      tag_9\n      swap2\n      swap1\n      tag_10\n      jump\t// in\n    tag_9:\n      mload(0x40)\n      dup1\n      swap2\n      sub\n      swap1\n      return\n        /* \"function.sol\":209:294  function setMyNumber(uint _newNumber) public {... */\n    tag_4:\n      tag_11\n      0x04\n      dup1\n      calldatasize\n      sub\n      dup2\n      add\n      swap1\n      tag_12\n      swap2\n      swap1\n      tag_13\n      jump\t// in\n    tag_12:\n      tag_14\n      jump\t// in\n    tag_11:\n      stop\n        /* \"function.sol\":126:168  string public myStatus=\"Learning Solidity\" */\n    tag_5:\n      tag_15\n      tag_16\n      jump\t// in\n    tag_15:\n      mload(0x40)\n      tag_17\n      swap2\n      swap1\n      tag_18\n      jump\t// in\n    tag_17:\n      mload(0x40)\n      dup1\n      swap2\n      sub\n      swap1\n      return\n        /* \"function.sol\":300:393  function setMyStatus(string calldata _newStatus)public {... */\n    tag_6:\n      tag_19\n      0x04\n      dup1\n      calldatasize\n      sub\n      dup2\n      add\n      swap1\n      tag_20\n      swap2\n      swap1\n      tag_21\n      jump\t// in\n    tag_20:\n      tag_22\n      jump\t// in\n    tag_19:\n      stop\n        /* \"function.sol\":94:119  uint public myNumber = 10 */\n    tag_8:\n      sload(0x00)\n      dup2\n      jump\t// out\n        /* \"function.sol\":209:294  function setMyNumber(uint _newNumber) public {... */\n    tag_14:\n        /* \"function.sol\":276:286  _newNumber */\n      dup1\n        /* \"function.sol\":265:273  myNumber */\n      0x00\n        /* \"function.sol\":265:286  myNumber = _newNumber */\n      dup2\n      swap1\n      sstore\n      pop\n        /* \"function.sol\":209:294  function setMyNumber(uint _newNumber) public {... */\n      pop\n      jump\t// out\n        /* \"function.sol\":126:168  string public myStatus=\"Learning Solidity\" */\n    tag_16:\n      0x01\n      dup1\n      sload\n      tag_24\n      swap1\n      tag_25\n      jump\t// in\n    tag_24:\n      dup1\n      0x1f\n      add\n      0x20\n      dup1\n      swap2\n      div\n      mul\n      0x20\n      add\n      mload(0x40)\n      swap1\n      dup2\n      add\n      0x40\n      mstore\n      dup1\n      swap3\n      swap2\n      swap1\n      dup2\n      dup2\n      mstore\n      0x20\n      add\n      dup3\n      dup1\n      sload\n      tag_26\n      swap1\n      tag_25\n      jump\t// in\n    tag_26:\n      dup1\n      iszero\n      tag_27\n      jumpi\n      dup1\n      0x1f\n      lt\n      tag_28\n      jumpi\n      0x0100\n      dup1\n      dup4\n      sload\n      div\n      mul\n      dup4\n      mstore\n      swap2\n      0x20\n      add\n      swap2\n      jump(tag_27)\n    tag_28:\n      dup3\n      add\n      swap2\n      swap1\n      0x00\n      mstore\n      keccak256(0x00, 0x20)\n      swap1\n    tag_29:\n      dup2\n      sload\n      dup2\n      mstore\n      swap1\n      0x01\n      add\n      swap1\n      0x20\n      add\n      dup1\n      dup4\n      gt\n      tag_29\n      jumpi\n      dup3\n      swap1\n      sub\n      0x1f\n      and\n      dup3\n      add\n      swap2\n    tag_27:\n      pop\n      pop\n      pop\n      pop\n      pop\n      dup2\n      jump\t// out\n        /* \"function.sol\":300:393  function setMyStatus(string calldata _newStatus)public {... */\n    tag_22:\n        /* \"function.sol\":375:385  _newStatus */\n      dup2\n      dup2\n        /* \"function.sol\":366:374  myStatus */\n      0x01\n        /* \"function.sol\":366:385  myStatus=_newStatus */\n      swap2\n      dup3\n      tag_31\n      swap3\n      swap2\n      swap1\n      tag_32\n      jump\t// in\n    tag_31:\n      pop\n        /* \"function.sol\":300:393  function setMyStatus(string calldata _newStatus)public {... */\n      pop\n      pop\n      jump\t// out\n        /* \"#utility.yul\":7:84   */\n    tag_33:\n        /* \"#utility.yul\":44:51   */\n      0x00\n        /* \"#utility.yul\":73:78   */\n      dup2\n        /* \"#utility.yul\":62:78   */\n      swap1\n      pop\n        /* \"#utility.yul\":7:84   */\n      swap2\n      swap1\n      pop\n      jump\t// out\n        /* \"#utility.yul\":90:208   */\n    tag_34:\n        /* \"#utility.yul\":177:201   */\n      tag_70\n        /* \"#utility.yul\":195:200   */\n      dup2\n        /* \"#utility.yul\":177:201   */\n      tag_33\n      jump\t// in\n    tag_70:\n        /* \"#utility.yul\":172:175   */\n      dup3\n        /* \"#utility.yul\":165:202   */\n      mstore\n        /* \"#utility.yul\":90:208   */\n      pop\n      pop\n      jump\t// out\n        /* \"#utility.yul\":214:436   */\n    tag_10:\n        /* \"#utility.yul\":307:311   */\n      0x00\n        /* \"#utility.yul\":345:347   */\n      0x20\n        /* \"#utility.yul\":334:343   */\n      dup3\n        /* \"#utility.yul\":330:348   */\n      add\n        /* \"#utility.yul\":322:348   */\n      swap1\n      pop\n        /* \"#utility.yul\":358:429   */\n      tag_72\n        /* \"#utility.yul\":426:427   */\n      0x00\n        /* \"#utility.yul\":415:424   */\n      dup4\n        /* \"#utility.yul\":411:428   */\n      add\n        /* \"#utility.yul\":402:408   */\n      dup5\n        /* \"#utility.yul\":358:429   */\n      tag_34\n      jump\t// in\n    tag_72:\n        /* \"#utility.yul\":214:436   */\n      swap3\n      swap2\n      pop\n      pop\n      jump\t// out\n        /* \"#utility.yul\":523:640   */\n    tag_36:\n        /* \"#utility.yul\":632:633   */\n      0x00\n        /* \"#utility.yul\":629:630   */\n      0x00\n        /* \"#utility.yul\":622:634   */\n      revert\n        /* \"#utility.yul\":646:763   */\n    tag_37:\n        /* \"#utility.yul\":755:756   */\n      0x00\n        /* \"#utility.yul\":752:753   */\n      0x00\n        /* \"#utility.yul\":745:757   */\n      revert\n        /* \"#utility.yul\":769:891   */\n    tag_38:\n        /* \"#utility.yul\":842:866   */\n      tag_77\n        /* \"#utility.yul\":860:865   */\n      dup2\n        /* \"#utility.yul\":842:866   */\n      tag_33\n      jump\t// in\n    tag_77:\n        /* \"#utility.yul\":835:840   */\n      dup2\n        /* \"#utility.yul\":832:867   */\n      eq\n        /* \"#utility.yul\":822:885   */\n      tag_78\n      jumpi\n        /* \"#utility.yul\":881:882   */\n      0x00\n        /* \"#utility.yul\":878:879   */\n      0x00\n        /* \"#utility.yul\":871:883   */\n      revert\n        /* \"#utility.yul\":822:885   */\n    tag_78:\n        /* \"#utility.yul\":769:891   */\n      pop\n      jump\t// out\n        /* \"#utility.yul\":897:1036   */\n    tag_39:\n        /* \"#utility.yul\":943:948   */\n      0x00\n        /* \"#utility.yul\":981:987   */\n      dup2\n        /* \"#utility.yul\":968:988   */\n      calldataload\n        /* \"#utility.yul\":959:988   */\n      swap1\n      pop\n        /* \"#utility.yul\":997:1030   */\n      tag_80\n        /* \"#utility.yul\":1024:1029   */\n      dup2\n        /* \"#utility.yul\":997:1030   */\n      tag_38\n      jump\t// in\n    tag_80:\n        /* \"#utility.yul\":897:1036   */\n      swap3\n      swap2\n      pop\n      pop\n      jump\t// out\n        /* \"#utility.yul\":1042:1371   */\n    tag_13:\n        /* \"#utility.yul\":1101:1107   */\n      0x00\n        /* \"#utility.yul\":1150:1152   */\n      0x20\n        /* \"#utility.yul\":1138:1147   */\n      dup3\n        /* \"#utility.yul\":1129:1136   */\n      dup5\n        /* \"#utility.yul\":1125:1148   */\n      sub\n        /* \"#utility.yul\":1121:1153   */\n      slt\n        /* \"#utility.yul\":1118:1237   */\n      iszero\n      tag_82\n      jumpi\n        /* \"#utility.yul\":1156:1235   */\n      tag_83\n      tag_36\n      jump\t// in\n    tag_83:\n        /* \"#utility.yul\":1118:1237   */\n    tag_82:\n        /* \"#utility.yul\":1276:1277   */\n      0x00\n        /* \"#utility.yul\":1301:1354   */\n      tag_84\n        /* \"#utility.yul\":1346:1353   */\n      dup5\n        /* \"#utility.yul\":1337:1343   */\n      dup3\n        /* \"#utility.yul\":1326:1335   */\n      dup6\n        /* \"#utility.yul\":1322:1344   */\n      add\n        /* \"#utility.yul\":1301:1354   */\n      tag_39\n      jump\t// in\n    tag_84:\n        /* \"#utility.yul\":1291:1354   */\n      swap2\n      pop\n        /* \"#utility.yul\":1247:1364   */\n      pop\n        /* \"#utility.yul\":1042:1371   */\n      swap3\n      swap2\n      pop\n      pop\n      jump\t// out\n        /* \"#utility.yul\":1377:1476   */\n    tag_40:\n        /* \"#utility.yul\":1429:1435   */\n      0x00\n        /* \"#utility.yul\":1463:1468   */\n      dup2\n        /* \"#utility.yul\":1457:1469   */\n      mload\n        /* \"#utility.yul\":1447:1469   */\n      swap1\n      pop\n        /* \"#utility.yul\":1377:1476   */\n      swap2\n      swap1\n      pop\n      jump\t// out\n        /* \"#utility.yul\":1482:1651   */\n    tag_41:\n        /* \"#utility.yul\":1566:1577   */\n      0x00\n        /* \"#utility.yul\":1600:1606   */\n      dup3\n        /* \"#utility.yul\":1595:1598   */\n      dup3\n        /* \"#utility.yul\":1588:1607   */\n      mstore\n        /* \"#utility.yul\":1640:1644   */\n      0x20\n        /* \"#utility.yul\":1635:1638   */\n      dup3\n        /* \"#utility.yul\":1631:1645   */\n      add\n        /* \"#utility.yul\":1616:1645   */\n      swap1\n      pop\n        /* \"#utility.yul\":1482:1651   */\n      swap3\n      swap2\n      pop\n      pop\n      jump\t// out\n        /* \"#utility.yul\":1657:1796   */\n    tag_42:\n        /* \"#utility.yul\":1746:1752   */\n      dup3\n        /* \"#utility.yul\":1741:1744   */\n      dup2\n        /* \"#utility.yul\":1736:1739   */\n      dup4\n        /* \"#utility.yul\":1730:1753   */\n      mcopy\n        /* \"#utility.yul\":1787:1788   */\n      0x00\n        /* \"#utility.yul\":1778:1784   */\n      dup4\n        /* \"#utility.yul\":1773:1776   */\n      dup4\n        /* \"#utility.yul\":1769:1785   */\n      add\n        /* \"#utility.yul\":1762:1789   */\n      mstore\n        /* \"#utility.yul\":1657:1796   */\n      pop\n      pop\n      pop\n      jump\t// out\n        /* \"#utility.yul\":1802:1904   */\n    tag_43:\n        /* \"#utility.yul\":1843:1849   */\n      0x00\n        /* \"#utility.yul\":1894:1896   */\n      0x1f\n        /* \"#utility.yul\":1890:1897   */\n      not\n        /* \"#utility.yul\":1885:1887   */\n      0x1f\n        /* \"#utility.yul\":1878:1883   */\n      dup4\n        /* \"#utility.yul\":1874:1888   */\n      add\n        /* \"#utility.yul\":1870:1898   */\n      and\n        /* \"#utility.yul\":1860:1898   */\n      swap1\n      pop\n        /* \"#utility.yul\":1802:1904   */\n      swap2\n      swap1\n      pop\n      jump\t// out\n        /* \"#utility.yul\":1910:2287   */\n    tag_44:\n        /* \"#utility.yul\":1998:2001   */\n      0x00\n        /* \"#utility.yul\":2026:2065   */\n      tag_90\n        /* \"#utility.yul\":2059:2064   */\n      dup3\n        /* \"#utility.yul\":2026:2065   */\n      tag_40\n      jump\t// in\n    tag_90:\n        /* \"#utility.yul\":2081:2152   */\n      tag_91\n        /* \"#utility.yul\":2145:2151   */\n      dup2\n        /* \"#utility.yul\":2140:2143   */\n      dup6\n        /* \"#utility.yul\":2081:2152   */\n      tag_41\n      jump\t// in\n    tag_91:\n        /* \"#utility.yul\":2074:2152   */\n      swap4\n      pop\n        /* \"#utility.yul\":2161:2226   */\n      tag_92\n        /* \"#utility.yul\":2219:2225   */\n      dup2\n        /* \"#utility.yul\":2214:2217   */\n      dup6\n        /* \"#utility.yul\":2207:2211   */\n      0x20\n        /* \"#utility.yul\":2200:2205   */\n      dup7\n        /* \"#utility.yul\":2196:2212   */\n      add\n        /* \"#utility.yul\":2161:2226   */\n      tag_42\n      jump\t// in\n    tag_92:\n        /* \"#utility.yul\":2251:2280   */\n      tag_93\n        /* \"#utility.yul\":2273:2279   */\n      dup2\n        /* \"#utility.yul\":2251:2280   */\n      tag_43\n      jump\t// in\n    tag_93:\n        /* \"#utility.yul\":2246:2249   */\n      dup5\n        /* \"#utility.yul\":2242:2281   */\n      add\n        /* \"#utility.yul\":2235:2281   */\n      swap2\n      pop\n        /* \"#utility.yul\":2002:2287   */\n      pop\n        /* \"#utility.yul\":1910:2287   */\n      swap3\n      swap2\n      pop\n      pop\n      jump\t// out\n        /* \"#utility.yul\":2293:2606   */\n    tag_18:\n        /* \"#utility.yul\":2406:2410   */\n      0x00\n        /* \"#utility.yul\":2444:2446   */\n      0x20\n        /* \"#utility.yul\":2433:2442   */\n      dup3\n        /* \"#utility.yul\":2429:2447   */\n      add\n        /* \"#utility.yul\":2421:2447   */\n      swap1\n      pop\n        /* \"#utility.yul\":2493:2502   */\n      dup2\n        /* \"#utility.yul\":2487:2491   */\n      dup2\n        /* \"#utility.yul\":2483:2503   */\n      sub\n        /* \"#utility.yul\":2479:2480   */\n      0x00\n        /* \"#utility.yul\":2468:2477   */\n      dup4\n        /* \"#utility.yul\":2464:2481   */\n      add\n        /* \"#utility.yul\":2457:2504   */\n      mstore\n        /* \"#utility.yul\":2521:2599   */\n      tag_95\n        /* \"#utility.yul\":2594:2598   */\n      dup2\n        /* \"#utility.yul\":2585:2591   */\n      dup5\n        /* \"#utility.yul\":2521:2599   */\n      tag_44\n      jump\t// in\n    tag_95:\n        /* \"#utility.yul\":2513:2599   */\n      swap1\n      pop\n        /* \"#utility.yul\":2293:2606   */\n      swap3\n      swap2\n      pop\n      pop\n      jump\t// out\n        /* \"#utility.yul\":2612:2729   */\n    tag_45:\n        /* \"#utility.yul\":2721:2722   */\n      0x00\n        /* \"#utility.yul\":2718:2719   */\n      0x00\n        /* \"#utility.yul\":2711:2723   */\n      revert\n        /* \"#utility.yul\":2735:2852   */\n    tag_46:\n        /* \"#utility.yul\":2844:2845   */\n      0x00\n        /* \"#utility.yul\":2841:2842   */\n      0x00\n        /* \"#utility.yul\":2834:2846   */\n      revert\n        /* \"#utility.yul\":2858:2975   */\n    tag_47:\n        /* \"#utility.yul\":2967:2968   */\n      0x00\n        /* \"#utility.yul\":2964:2965   */\n      0x00\n        /* \"#utility.yul\":2957:2969   */\n      revert\n        /* \"#utility.yul\":2995:3548   */\n    tag_48:\n        /* \"#utility.yul\":3053:3061   */\n      0x00\n        /* \"#utility.yul\":3063:3069   */\n      0x00\n        /* \"#utility.yul\":3113:3116   */\n      dup4\n        /* \"#utility.yul\":3106:3110   */\n      0x1f\n        /* \"#utility.yul\":3098:3104   */\n      dup5\n        /* \"#utility.yul\":3094:3111   */\n      add\n        /* \"#utility.yul\":3090:3117   */\n      slt\n        /* \"#utility.yul\":3080:3202   */\n      tag_100\n      jumpi\n        /* \"#utility.yul\":3121:3200   */\n      tag_101\n      tag_45\n      jump\t// in\n    tag_101:\n        /* \"#utility.yul\":3080:3202   */\n    tag_100:\n        /* \"#utility.yul\":3234:3240   */\n      dup3\n        /* \"#utility.yul\":3221:3241   */\n      calldataload\n        /* \"#utility.yul\":3211:3241   */\n      swap1\n      pop\n        /* \"#utility.yul\":3264:3282   */\n      0xffffffffffffffff\n        /* \"#utility.yul\":3256:3262   */\n      dup2\n        /* \"#utility.yul\":3253:3283   */\n      gt\n        /* \"#utility.yul\":3250:3367   */\n      iszero\n      tag_102\n      jumpi\n        /* \"#utility.yul\":3286:3365   */\n      tag_103\n      tag_46\n      jump\t// in\n    tag_103:\n        /* \"#utility.yul\":3250:3367   */\n    tag_102:\n        /* \"#utility.yul\":3400:3404   */\n      0x20\n        /* \"#utility.yul\":3392:3398   */\n      dup4\n        /* \"#utility.yul\":3388:3405   */\n      add\n        /* \"#utility.yul\":3376:3405   */\n      swap2\n      pop\n        /* \"#utility.yul\":3454:3457   */\n      dup4\n        /* \"#utility.yul\":3446:3450   */\n      0x01\n        /* \"#utility.yul\":3438:3444   */\n      dup3\n        /* \"#utility.yul\":3434:3451   */\n      mul\n        /* \"#utility.yul\":3424:3432   */\n      dup4\n        /* \"#utility.yul\":3420:3452   */\n      add\n        /* \"#utility.yul\":3417:3458   */\n      gt\n        /* \"#utility.yul\":3414:3542   */\n      iszero\n      tag_104\n      jumpi\n        /* \"#utility.yul\":3461:3540   */\n      tag_105\n      tag_47\n      jump\t// in\n    tag_105:\n        /* \"#utility.yul\":3414:3542   */\n    tag_104:\n        /* \"#utility.yul\":2995:3548   */\n      swap3\n      pop\n      swap3\n      swap1\n      pop\n      jump\t// out\n        /* \"#utility.yul\":3554:4083   */\n    tag_21:\n        /* \"#utility.yul\":3625:3631   */\n      0x00\n        /* \"#utility.yul\":3633:3639   */\n      0x00\n        /* \"#utility.yul\":3682:3684   */\n      0x20\n        /* \"#utility.yul\":3670:3679   */\n      dup4\n        /* \"#utility.yul\":3661:3668   */\n      dup6\n        /* \"#utility.yul\":3657:3680   */\n      sub\n        /* \"#utility.yul\":3653:3685   */\n      slt\n        /* \"#utility.yul\":3650:3769   */\n      iszero\n      tag_107\n      jumpi\n        /* \"#utility.yul\":3688:3767   */\n      tag_108\n      tag_36\n      jump\t// in\n    tag_108:\n        /* \"#utility.yul\":3650:3769   */\n    tag_107:\n        /* \"#utility.yul\":3836:3837   */\n      0x00\n        /* \"#utility.yul\":3825:3834   */\n      dup4\n        /* \"#utility.yul\":3821:3838   */\n      add\n        /* \"#utility.yul\":3808:3839   */\n      calldataload\n        /* \"#utility.yul\":3866:3884   */\n      0xffffffffffffffff\n        /* \"#utility.yul\":3858:3864   */\n      dup2\n        /* \"#utility.yul\":3855:3885   */\n      gt\n        /* \"#utility.yul\":3852:3969   */\n      iszero\n      tag_109\n      jumpi\n        /* \"#utility.yul\":3888:3967   */\n      tag_110\n      tag_37\n      jump\t// in\n    tag_110:\n        /* \"#utility.yul\":3852:3969   */\n    tag_109:\n        /* \"#utility.yul\":4001:4066   */\n      tag_111\n        /* \"#utility.yul\":4058:4065   */\n      dup6\n        /* \"#utility.yul\":4049:4055   */\n      dup3\n        /* \"#utility.yul\":4038:4047   */\n      dup7\n        /* \"#utility.yul\":4034:4056   */\n      add\n        /* \"#utility.yul\":4001:4066   */\n      tag_48\n      jump\t// in\n    tag_111:\n        /* \"#utility.yul\":3983:4066   */\n      swap3\n      pop\n      swap3\n      pop\n        /* \"#utility.yul\":3779:4076   */\n      pop\n        /* \"#utility.yul\":3554:4083   */\n      swap3\n      pop\n      swap3\n      swap1\n      pop\n      jump\t// out\n        /* \"#utility.yul\":4089:4269   */\n    tag_49:\n        /* \"#utility.yul\":4137:4214   */\n      0x4e487b7100000000000000000000000000000000000000000000000000000000\n        /* \"#utility.yul\":4134:4135   */\n      0x00\n        /* \"#utility.yul\":4127:4215   */\n      mstore\n        /* \"#utility.yul\":4234:4238   */\n      0x22\n        /* \"#utility.yul\":4231:4232   */\n      0x04\n        /* \"#utility.yul\":4224:4239   */\n      mstore\n        /* \"#utility.yul\":4258:4262   */\n      0x24\n        /* \"#utility.yul\":4255:4256   */\n      0x00\n        /* \"#utility.yul\":4248:4263   */\n      revert\n        /* \"#utility.yul\":4275:4595   */\n    tag_25:\n        /* \"#utility.yul\":4319:4325   */\n      0x00\n        /* \"#utility.yul\":4356:4357   */\n      0x02\n        /* \"#utility.yul\":4350:4354   */\n      dup3\n        /* \"#utility.yul\":4346:4358   */\n      div\n        /* \"#utility.yul\":4336:4358   */\n      swap1\n      pop\n        /* \"#utility.yul\":4403:4404   */\n      0x01\n        /* \"#utility.yul\":4397:4401   */\n      dup3\n        /* \"#utility.yul\":4393:4405   */\n      and\n        /* \"#utility.yul\":4424:4442   */\n      dup1\n        /* \"#utility.yul\":4414:4495   */\n      tag_114\n      jumpi\n        /* \"#utility.yul\":4480:4484   */\n      0x7f\n        /* \"#utility.yul\":4472:4478   */\n      dup3\n        /* \"#utility.yul\":4468:4485   */\n      and\n        /* \"#utility.yul\":4458:4485   */\n      swap2\n      pop\n        /* \"#utility.yul\":4414:4495   */\n    tag_114:\n        /* \"#utility.yul\":4542:4544   */\n      0x20\n        /* \"#utility.yul\":4534:4540   */\n      dup3\n        /* \"#utility.yul\":4531:4545   */\n      lt\n        /* \"#utility.yul\":4511:4529   */\n      dup2\n        /* \"#utility.yul\":4508:4546   */\n      sub\n        /* \"#utility.yul\":4505:4589   */\n      tag_115\n      jumpi\n        /* \"#utility.yul\":4561:4579   */\n      tag_116\n      tag_49\n      jump\t// in\n    tag_116:\n        /* \"#utility.yul\":4505:4589   */\n    tag_115:\n        /* \"#utility.yul\":4326:4595   */\n      pop\n        /* \"#utility.yul\":4275:4595   */\n      swap2\n      swap1\n      pop\n      jump\t// out\n        /* \"#utility.yul\":4601:4698   */\n    tag_50:\n        /* \"#utility.yul\":4660:4666   */\n      0x00\n        /* \"#utility.yul\":4688:4691   */\n      dup3\n        /* \"#utility.yul\":4678:4691   */\n      swap1\n      pop\n        /* \"#utility.yul\":4601:4698   */\n      swap3\n      swap2\n      pop\n      pop\n      jump\t// out\n        /* \"#utility.yul\":4704:4884   */\n    tag_51:\n        /* \"#utility.yul\":4752:4829   */\n      0x4e487b7100000000000000000000000000000000000000000000000000000000\n        /* \"#utility.yul\":4749:4750   */\n      0x00\n        /* \"#utility.yul\":4742:4830   */\n      mstore\n        /* \"#utility.yul\":4849:4853   */\n      0x41\n        /* \"#utility.yul\":4846:4847   */\n      0x04\n        /* \"#utility.yul\":4839:4854   */\n      mstore\n        /* \"#utility.yul\":4873:4877   */\n      0x24\n        /* \"#utility.yul\":4870:4871   */\n      0x00\n        /* \"#utility.yul\":4863:4878   */\n      revert\n        /* \"#utility.yul\":4890:5031   */\n    tag_52:\n        /* \"#utility.yul\":4939:4943   */\n      0x00\n        /* \"#utility.yul\":4962:4965   */\n      dup2\n        /* \"#utility.yul\":4954:4965   */\n      swap1\n      pop\n        /* \"#utility.yul\":4985:4988   */\n      dup2\n        /* \"#utility.yul\":4982:4983   */\n      0x00\n        /* \"#utility.yul\":4975:4989   */\n      mstore\n        /* \"#utility.yul\":5019:5023   */\n      0x20\n        /* \"#utility.yul\":5016:5017   */\n      0x00\n        /* \"#utility.yul\":5006:5024   */\n      keccak256\n        /* \"#utility.yul\":4998:5024   */\n      swap1\n      pop\n        /* \"#utility.yul\":4890:5031   */\n      swap2\n      swap1\n      pop\n      jump\t// out\n        /* \"#utility.yul\":5037:5130   */\n    tag_53:\n        /* \"#utility.yul\":5074:5080   */\n      0x00\n        /* \"#utility.yul\":5121:5123   */\n      0x20\n        /* \"#utility.yul\":5116:5118   */\n      0x1f\n        /* \"#utility.yul\":5109:5114   */\n      dup4\n        /* \"#utility.yul\":5105:5119   */\n      add\n        /* \"#utility.yul\":5101:5124   */\n      div\n        /* \"#utility.yul\":5091:5124   */\n      swap1\n      pop\n        /* \"#utility.yul\":5037:5130   */\n      swap2\n      swap1\n      pop\n      jump\t// out\n        /* \"#utility.yul\":5136:5243   */\n    tag_54:\n        /* \"#utility.yul\":5180:5188   */\n      0x00\n        /* \"#utility.yul\":5230:5235   */\n      dup3\n        /* \"#utility.yul\":5224:5228   */\n      dup3\n        /* \"#utility.yul\":5220:5236   */\n      shl\n        /* \"#utility.yul\":5199:5236   */\n      swap1\n      pop\n        /* \"#utility.yul\":5136:5243   */\n      swap3\n      swap2\n      pop\n      pop\n      jump\t// out\n        /* \"#utility.yul\":5249:5642   */\n    tag_55:\n        /* \"#utility.yul\":5318:5324   */\n      0x00\n        /* \"#utility.yul\":5368:5369   */\n      0x08\n        /* \"#utility.yul\":5356:5366   */\n      dup4\n        /* \"#utility.yul\":5352:5370   */\n      mul\n        /* \"#utility.yul\":5391:5488   */\n      tag_123\n        /* \"#utility.yul\":5421:5487   */\n      0xffffffffffffffffffffffffffffffffffffffffffffffffffffffffffffffff\n        /* \"#utility.yul\":5410:5419   */\n      dup3\n        /* \"#utility.yul\":5391:5488   */\n      tag_54\n      jump\t// in\n    tag_123:\n        /* \"#utility.yul\":5509:5548   */\n      tag_124\n        /* \"#utility.yul\":5539:5547   */\n      dup7\n        /* \"#utility.yul\":5528:5537   */\n      dup4\n        /* \"#utility.yul\":5509:5548   */\n      tag_54\n      jump\t// in\n    tag_124:\n        /* \"#utility.yul\":5497:5548   */\n      swap6\n      pop\n        /* \"#utility.yul\":5581:5585   */\n      dup1\n        /* \"#utility.yul\":5577:5586   */\n      not\n        /* \"#utility.yul\":5570:5575   */\n      dup5\n        /* \"#utility.yul\":5566:5587   */\n      and\n        /* \"#utility.yul\":5557:5587   */\n      swap4\n      pop\n        /* \"#utility.yul\":5630:5634   */\n      dup1\n        /* \"#utility.yul\":5620:5628   */\n      dup7\n        /* \"#utility.yul\":5616:5635   */\n      and\n        /* \"#utility.yul\":5609:5614   */\n      dup5\n        /* \"#utility.yul\":5606:5636   */\n      or\n        /* \"#utility.yul\":5596:5636   */\n      swap3\n      pop\n        /* \"#utility.yul\":5325:5642   */\n      pop\n      pop\n        /* \"#utility.yul\":5249:5642   */\n      swap4\n      swap3\n      pop\n      pop\n      pop\n      jump\t// out\n        /* \"#utility.yul\":5648:5708   */\n    tag_56:\n        /* \"#utility.yul\":5676:5679   */\n      0x00\n        /* \"#utility.yul\":5697:5702   */\n      dup2\n        /* \"#utility.yul\":5690:5702   */\n      swap1\n      pop\n        /* \"#utility.yul\":5648:5708   */\n      swap2\n      swap1\n      pop\n      jump\t// out\n        /* \"#utility.yul\":5714:5856   */\n    tag_57:\n        /* \"#utility.yul\":5764:5773   */\n      0x00\n        /* \"#utility.yul\":5797:5850   */\n      tag_127\n        /* \"#utility.yul\":5815:5849   */\n      tag_128\n        /* \"#utility.yul\":5824:5848   */\n      tag_129\n        /* \"#utility.yul\":5842:5847   */\n      dup5\n        /* \"#utility.yul\":5824:5848   */\n      tag_33\n      jump\t// in\n    tag_129:\n        /* \"#utility.yul\":5815:5849   */\n      tag_56\n      jump\t// in\n    tag_128:\n        /* \"#utility.yul\":5797:5850   */\n      tag_33\n      jump\t// in\n    tag_127:\n        /* \"#utility.yul\":5784:5850   */\n      swap1\n      pop\n        /* \"#utility.yul\":5714:5856   */\n      swap2\n      swap1\n      pop\n      jump\t// out\n        /* \"#utility.yul\":5862:5937   */\n    tag_58:\n        /* \"#utility.yul\":5905:5908   */\n      0x00\n        /* \"#utility.yul\":5926:5931   */\n      dup2\n        /* \"#utility.yul\":5919:5931   */\n      swap1\n      pop\n        /* \"#utility.yul\":5862:5937   */\n      swap2\n      swap1\n      pop\n      jump\t// out\n        /* \"#utility.yul\":5943:6212   */\n    tag_59:\n        /* \"#utility.yul\":6053:6092   */\n      tag_132\n        /* \"#utility.yul\":6084:6091   */\n      dup4\n        /* \"#utility.yul\":6053:6092   */\n      tag_57\n      jump\t// in\n    tag_132:\n        /* \"#utility.yul\":6114:6205   */\n      tag_133\n        /* \"#utility.yul\":6163:6204   */\n      tag_134\n        /* \"#utility.yul\":6187:6203   */\n      dup3\n        /* \"#utility.yul\":6163:6204   */\n      tag_58\n      jump\t// in\n    tag_134:\n        /* \"#utility.yul\":6155:6161   */\n      dup5\n        /* \"#utility.yul\":6148:6152   */\n      dup5\n        /* \"#utility.yul\":6142:6153   */\n      sload\n        /* \"#utility.yul\":6114:6205   */\n      tag_55\n      jump\t// in\n    tag_133:\n        /* \"#utility.yul\":6108:6112   */\n      dup3\n        /* \"#utility.yul\":6101:6206   */\n      sstore\n        /* \"#utility.yul\":6019:6212   */\n      pop\n        /* \"#utility.yul\":5943:6212   */\n      pop\n      pop\n      pop\n      jump\t// out\n        /* \"#utility.yul\":6218:6291   */\n    tag_60:\n        /* \"#utility.yul\":6263:6266   */\n      0x00\n        /* \"#utility.yul\":6284:6285   */\n      0x00\n        /* \"#utility.yul\":6277:6285   */\n      swap1\n      pop\n        /* \"#utility.yul\":6218:6291   */\n      swap1\n      jump\t// out\n        /* \"#utility.yul\":6297:6486   */\n    tag_61:\n        /* \"#utility.yul\":6374:6406   */\n      tag_137\n      tag_60\n      jump\t// in\n    tag_137:\n        /* \"#utility.yul\":6415:6480   */\n      tag_138\n        /* \"#utility.yul\":6473:6479   */\n      dup2\n        /* \"#utility.yul\":6465:6471   */\n      dup5\n        /* \"#utility.yul\":6459:6463   */\n      dup5\n        /* \"#utility.yul\":6415:6480   */\n      tag_59\n      jump\t// in\n    tag_138:\n        /* \"#utility.yul\":6350:6486   */\n      pop\n        /* \"#utility.yul\":6297:6486   */\n      pop\n      pop\n      jump\t// out\n        /* \"#utility.yul\":6492:6678   */\n    tag_62:\n        /* \"#utility.yul\":6552:6672   */\n    tag_140:\n        /* \"#utility.yul\":6569:6572   */\n      dup2\n        /* \"#utility.yul\":6562:6567   */\n      dup2\n        /* \"#utility.yul\":6559:6573   */\n      lt\n        /* \"#utility.yul\":6552:6672   */\n      iszero\n      tag_142\n      jumpi\n        /* \"#utility.yul\":6623:6662   */\n      tag_143\n        /* \"#utility.yul\":6660:6661   */\n      0x00\n        /* \"#utility.yul\":6653:6658   */\n      dup3\n        /* \"#utility.yul\":6623:6662   */\n      tag_61\n      jump\t// in\n    tag_143:\n        /* \"#utility.yul\":6596:6597   */\n      0x01\n        /* \"#utility.yul\":6589:6594   */\n      dup2\n        /* \"#utility.yul\":6585:6598   */\n      add\n        /* \"#utility.yul\":6576:6598   */\n      swap1\n      pop\n        /* \"#utility.yul\":6552:6672   */\n      jump(tag_140)\n    tag_142:\n        /* \"#utility.yul\":6492:6678   */\n      pop\n      pop\n      jump\t// out\n        /* \"#utility.yul\":6684:7227   */\n    tag_63:\n        /* \"#utility.yul\":6785:6787   */\n      0x1f\n        /* \"#utility.yul\":6780:6783   */\n      dup3\n        /* \"#utility.yul\":6777:6788   */\n      gt\n        /* \"#utility.yul\":6774:7220   */\n      iszero\n      tag_145\n      jumpi\n        /* \"#utility.yul\":6819:6857   */\n      tag_146\n        /* \"#utility.yul\":6851:6856   */\n      dup2\n        /* \"#utility.yul\":6819:6857   */\n      tag_52\n      jump\t// in\n    tag_146:\n        /* \"#utility.yul\":6903:6932   */\n      tag_147\n        /* \"#utility.yul\":6921:6931   */\n      dup5\n        /* \"#utility.yul\":6903:6932   */\n      tag_53\n      jump\t// in\n    tag_147:\n        /* \"#utility.yul\":6893:6901   */\n      dup2\n        /* \"#utility.yul\":6889:6933   */\n      add\n        /* \"#utility.yul\":7086:7088   */\n      0x20\n        /* \"#utility.yul\":7074:7084   */\n      dup6\n        /* \"#utility.yul\":7071:7089   */\n      lt\n        /* \"#utility.yul\":7068:7117   */\n      iszero\n      tag_148\n      jumpi\n        /* \"#utility.yul\":7107:7115   */\n      dup2\n        /* \"#utility.yul\":7092:7115   */\n      swap1\n      pop\n        /* \"#utility.yul\":7068:7117   */\n    tag_148:\n        /* \"#utility.yul\":7130:7210   */\n      tag_149\n        /* \"#utility.yul\":7186:7208   */\n      tag_150\n        /* \"#utility.yul\":7204:7207   */\n      dup6\n        /* \"#utility.yul\":7186:7208   */\n      tag_53\n      jump\t// in\n    tag_150:\n        /* \"#utility.yul\":7176:7184   */\n      dup4\n        /* \"#utility.yul\":7172:7209   */\n      add\n        /* \"#utility.yul\":7159:7170   */\n      dup3\n        /* \"#utility.yul\":7130:7210   */\n      tag_62\n      jump\t// in\n    tag_149:\n        /* \"#utility.yul\":6789:7220   */\n      pop\n      pop\n        /* \"#utility.yul\":6774:7220   */\n    tag_145:\n        /* \"#utility.yul\":6684:7227   */\n      pop\n      pop\n      pop\n      jump\t// out\n        /* \"#utility.yul\":7233:7350   */\n    tag_64:\n        /* \"#utility.yul\":7287:7295   */\n      0x00\n        /* \"#utility.yul\":7337:7342   */\n      dup3\n        /* \"#utility.yul\":7331:7335   */\n      dup3\n        /* \"#utility.yul\":7327:7343   */\n      shr\n        /* \"#utility.yul\":7306:7343   */\n      swap1\n      pop\n        /* \"#utility.yul\":7233:7350   */\n      swap3\n      swap2\n      pop\n      pop\n      jump\t// out\n        /* \"#utility.yul\":7356:7525   */\n    tag_65:\n        /* \"#utility.yul\":7400:7406   */\n      0x00\n        /* \"#utility.yul\":7433:7484   */\n      tag_153\n        /* \"#utility.yul\":7481:7482   */\n      0x00\n        /* \"#utility.yul\":7477:7483   */\n      not\n        /* \"#utility.yul\":7469:7474   */\n      dup5\n        /* \"#utility.yul\":7466:7467   */\n      0x08\n        /* \"#utility.yul\":7462:7475   */\n      mul\n        /* \"#utility.yul\":7433:7484   */\n      tag_64\n      jump\t// in\n    tag_153:\n        /* \"#utility.yul\":7429:7485   */\n      not\n        /* \"#utility.yul\":7514:7518   */\n      dup1\n        /* \"#utility.yul\":7508:7512   */\n      dup4\n        /* \"#utility.yul\":7504:7519   */\n      and\n        /* \"#utility.yul\":7494:7519   */\n      swap2\n      pop\n        /* \"#utility.yul\":7407:7525   */\n      pop\n        /* \"#utility.yul\":7356:7525   */\n      swap3\n      swap2\n      pop\n      pop\n      jump\t// out\n        /* \"#utility.yul\":7530:7825   */\n    tag_66:\n        /* \"#utility.yul\":7606:7610   */\n      0x00\n        /* \"#utility.yul\":7752:7781   */\n      tag_155\n        /* \"#utility.yul\":7777:7780   */\n      dup4\n        /* \"#utility.yul\":7771:7775   */\n      dup4\n        /* \"#utility.yul\":7752:7781   */\n      tag_65\n      jump\t// in\n    tag_155:\n        /* \"#utility.yul\":7744:7781   */\n      swap2\n      pop\n        /* \"#utility.yul\":7814:7817   */\n      dup3\n        /* \"#utility.yul\":7811:7812   */\n      0x02\n        /* \"#utility.yul\":7807:7818   */\n      mul\n        /* \"#utility.yul\":7801:7805   */\n      dup3\n        /* \"#utility.yul\":7798:7819   */\n      or\n        /* \"#utility.yul\":7790:7819   */\n      swap1\n      pop\n        /* \"#utility.yul\":7530:7825   */\n      swap3\n      swap2\n      pop\n      pop\n      jump\t// out\n        /* \"#utility.yul\":7830:9233   */\n    tag_32:\n        /* \"#utility.yul\":7954:7998   */\n      tag_157\n        /* \"#utility.yul\":7994:7997   */\n      dup4\n        /* \"#utility.yul\":7989:7992   */\n      dup4\n        /* \"#utility.yul\":7954:7998   */\n      tag_50\n      jump\t// in\n    tag_157:\n        /* \"#utility.yul\":8063:8081   */\n      0xffffffffffffffff\n        /* \"#utility.yul\":8055:8061   */\n      dup2\n        /* \"#utility.yul\":8052:8082   */\n      gt\n        /* \"#utility.yul\":8049:8105   */\n      iszero\n      tag_158\n      jumpi\n        /* \"#utility.yul\":8085:8103   */\n      tag_159\n      tag_51\n      jump\t// in\n    tag_159:\n        /* \"#utility.yul\":8049:8105   */\n    tag_158:\n        /* \"#utility.yul\":8129:8167   */\n      tag_160\n        /* \"#utility.yul\":8161:8165   */\n      dup3\n        /* \"#utility.yul\":8155:8166   */\n      sload\n        /* \"#utility.yul\":8129:8167   */\n      tag_25\n      jump\t// in\n    tag_160:\n        /* \"#utility.yul\":8214:8281   */\n      tag_161\n        /* \"#utility.yul\":8274:8280   */\n      dup3\n        /* \"#utility.yul\":8266:8272   */\n      dup3\n        /* \"#utility.yul\":8260:8264   */\n      dup6\n        /* \"#utility.yul\":8214:8281   */\n      tag_63\n      jump\t// in\n    tag_161:\n        /* \"#utility.yul\":8308:8309   */\n      0x00\n        /* \"#utility.yul\":8337:8339   */\n      0x1f\n        /* \"#utility.yul\":8329:8335   */\n      dup4\n        /* \"#utility.yul\":8326:8340   */\n      gt\n        /* \"#utility.yul\":8354:8355   */\n      0x01\n        /* \"#utility.yul\":8349:8981   */\n      dup2\n      eq\n      tag_163\n      jumpi\n        /* \"#utility.yul\":9025:9026   */\n      0x00\n        /* \"#utility.yul\":9042:9048   */\n      dup5\n        /* \"#utility.yul\":9039:9123   */\n      iszero\n      tag_164\n      jumpi\n        /* \"#utility.yul\":9098:9107   */\n      dup3\n        /* \"#utility.yul\":9093:9096   */\n      dup8\n        /* \"#utility.yul\":9089:9108   */\n      add\n        /* \"#utility.yul\":9076:9109   */\n      calldataload\n        /* \"#utility.yul\":9067:9109   */\n      swap1\n      pop\n        /* \"#utility.yul\":9039:9123   */\n    tag_164:\n        /* \"#utility.yul\":9149:9216   */\n      tag_165\n        /* \"#utility.yul\":9209:9215   */\n      dup6\n        /* \"#utility.yul\":9202:9207   */\n      dup3\n        /* \"#utility.yul\":9149:9216   */\n      tag_66\n      jump\t// in\n    tag_165:\n        /* \"#utility.yul\":9143:9147   */\n      dup7\n        /* \"#utility.yul\":9136:9217   */\n      sstore\n        /* \"#utility.yul\":8998:9227   */\n      pop\n        /* \"#utility.yul\":8319:9227   */\n      jump(tag_162)\n        /* \"#utility.yul\":8349:8981   */\n    tag_163:\n        /* \"#utility.yul\":8401:8405   */\n      0x1f\n        /* \"#utility.yul\":8397:8406   */\n      not\n        /* \"#utility.yul\":8389:8395   */\n      dup5\n        /* \"#utility.yul\":8385:8407   */\n      and\n        /* \"#utility.yul\":8435:8472   */\n      tag_166\n        /* \"#utility.yul\":8467:8471   */\n      dup7\n        /* \"#utility.yul\":8435:8472   */\n      tag_52\n      jump\t// in\n    tag_166:\n        /* \"#utility.yul\":8494:8495   */\n      0x00\n        /* \"#utility.yul\":8508:8723   */\n    tag_167:\n        /* \"#utility.yul\":8522:8529   */\n      dup3\n        /* \"#utility.yul\":8519:8520   */\n      dup2\n        /* \"#utility.yul\":8516:8530   */\n      lt\n        /* \"#utility.yul\":8508:8723   */\n      iszero\n      tag_169\n      jumpi\n        /* \"#utility.yul\":8608:8617   */\n      dup5\n        /* \"#utility.yul\":8603:8606   */\n      dup10\n        /* \"#utility.yul\":8599:8618   */\n      add\n        /* \"#utility.yul\":8586:8619   */\n      calldataload\n        /* \"#utility.yul\":8578:8584   */\n      dup3\n        /* \"#utility.yul\":8571:8620   */\n      sstore\n        /* \"#utility.yul\":8659:8660   */\n      0x01\n        /* \"#utility.yul\":8651:8657   */\n      dup3\n        /* \"#utility.yul\":8647:8661   */\n      add\n        /* \"#utility.yul\":8637:8661   */\n      swap2\n      pop\n        /* \"#utility.yul\":8706:8708   */\n      0x20\n        /* \"#utility.yul\":8695:8704   */\n      dup6\n        /* \"#utility.yul\":8691:8709   */\n      add\n        /* \"#utility.yul\":8678:8709   */\n      swap5\n      pop\n        /* \"#utility.yul\":8545:8549   */\n      0x20\n        /* \"#utility.yul\":8542:8543   */\n      dup2\n        /* \"#utility.yul\":8538:8550   */\n      add\n        /* \"#utility.yul\":8533:8550   */\n      swap1\n      pop\n        /* \"#utility.yul\":8508:8723   */\n      jump(tag_167)\n    tag_169:\n        /* \"#utility.yul\":8751:8757   */\n      dup7\n        /* \"#utility.yul\":8742:8749   */\n      dup4\n        /* \"#utility.yul\":8739:8758   */\n      lt\n        /* \"#utility.yul\":8736:8922   */\n      iszero\n      tag_170\n      jumpi\n        /* \"#utility.yul\":8816:8825   */\n      dup5\n        /* \"#utility.yul\":8811:8814   */\n      dup10\n        /* \"#utility.yul\":8807:8826   */\n      add\n        /* \"#utility.yul\":8794:8827   */\n      calldataload\n        /* \"#utility.yul\":8859:8907   */\n      tag_171\n        /* \"#utility.yul\":8901:8905   */\n      0x1f\n        /* \"#utility.yul\":8893:8899   */\n      dup10\n        /* \"#utility.yul\":8889:8906   */\n      and\n        /* \"#utility.yul\":8878:8887   */\n      dup3\n        /* \"#utility.yul\":8859:8907   */\n      tag_65\n      jump\t// in\n    tag_171:\n        /* \"#utility.yul\":8851:8857   */\n      dup4\n        /* \"#utility.yul\":8844:8908   */\n      sstore\n        /* \"#utility.yul\":8759:8922   */\n      pop\n        /* \"#utility.yul\":8736:8922   */\n    tag_170:\n        /* \"#utility.yul\":8968:8969   */\n      0x01\n        /* \"#utility.yul\":8964:8965   */\n      0x02\n        /* \"#utility.yul\":8956:8962   */\n      dup9\n        /* \"#utility.yul\":8952:8966   */\n      mul\n        /* \"#utility.yul\":8948:8970   */\n      add\n        /* \"#utility.yul\":8942:8946   */\n      dup9\n        /* \"#utility.yul\":8935:8971   */\n      sstore\n        /* \"#utility.yul\":8356:8981   */\n      pop\n      pop\n      pop\n        /* \"#utility.yul\":8319:9227   */\n    tag_162:\n      pop\n        /* \"#utility.yul\":7929:9233   */\n      pop\n      pop\n      pop\n        /* \"#utility.yul\":7830:9233   */\n      pop\n      pop\n      pop\n      jump\t// out\n\n    auxdata: 0xa2646970667358221220239f1b1ea4df36db543b75d6f8500851677ab517019af753a28ddfb33f3b4e2c64736f6c634300081e0033\n}\n",
				"bytecode": {
					"linkReferences": {},
					"object": "6080604052600a5f556040518060400160405280601181526020017f4c6561726e696e6720536f6c69646974790000000000000000000000000000008152506001908161004c919061029b565b50348015610058575f5ffd5b5061036a565b5f81519050919050565b7f4e487b71000000000000000000000000000000000000000000000000000000005f52604160045260245ffd5b7f4e487b71000000000000000000000000000000000000000000000000000000005f52602260045260245ffd5b5f60028204905060018216806100d957607f821691505b6020821081036100ec576100eb610095565b5b50919050565b5f819050815f5260205f209050919050565b5f6020601f8301049050919050565b5f82821b905092915050565b5f6008830261014e7fffffffffffffffffffffffffffffffffffffffffffffffffffffffffffffffff82610113565b6101588683610113565b95508019841693508086168417925050509392505050565b5f819050919050565b5f819050919050565b5f61019c61019761019284610170565b610179565b610170565b9050919050565b5f819050919050565b6101b583610182565b6101c96101c1826101a3565b84845461011f565b825550505050565b5f5f905090565b6101e06101d1565b6101eb8184846101ac565b505050565b5b8181101561020e576102035f826101d8565b6001810190506101f1565b5050565b601f82111561025357610224816100f2565b61022d84610104565b8101602085101561023c578190505b61025061024885610104565b8301826101f0565b50505b505050565b5f82821c905092915050565b5f6102735f1984600802610258565b1980831691505092915050565b5f61028b8383610264565b9150826002028217905092915050565b6102a48261005e565b67ffffffffffffffff8111156102bd576102bc610068565b5b6102c782546100c2565b6102d2828285610212565b5f60209050601f831160018114610303575f84156102f1578287015190505b6102fb8582610280565b865550610362565b601f198416610311866100f2565b5f5b8281101561033857848901518255600182019150602085019450602081019050610313565b868310156103555784890151610351601f891682610264565b8355505b6001600288020188555050505b505050505050565b610673806103775f395ff3fe608060405234801561000f575f5ffd5b506004361061004a575f3560e01c806323fd0e401461004e5780636ffd773c1461006c5780639ce85dff14610088578063c176873d146100a6575b5f5ffd5b6100566100c2565b604051610063919061018a565b60405180910390f35b610086600480360381019061008191906101d5565b6100c7565b005b6100906100d0565b60405161009d9190610270565b60405180910390f35b6100c060048036038101906100bb91906102f1565b61015c565b005b5f5481565b805f8190555050565b600180546100dd90610369565b80601f016020809104026020016040519081016040528092919081815260200182805461010990610369565b80156101545780601f1061012b57610100808354040283529160200191610154565b820191905f5260205f20905b81548152906001019060200180831161013757829003601f168201915b505050505081565b81816001918261016d929190610570565b505050565b5f819050919050565b61018481610172565b82525050565b5f60208201905061019d5f83018461017b565b92915050565b5f5ffd5b5f5ffd5b6101b481610172565b81146101be575f5ffd5b50565b5f813590506101cf816101ab565b92915050565b5f602082840312156101ea576101e96101a3565b5b5f6101f7848285016101c1565b91505092915050565b5f81519050919050565b5f82825260208201905092915050565b8281835e5f83830152505050565b5f601f19601f8301169050919050565b5f61024282610200565b61024c818561020a565b935061025c81856020860161021a565b61026581610228565b840191505092915050565b5f6020820190508181035f8301526102888184610238565b905092915050565b5f5ffd5b5f5ffd5b5f5ffd5b5f5f83601f8401126102b1576102b0610290565b5b8235905067ffffffffffffffff8111156102ce576102cd610294565b5b6020830191508360018202830111156102ea576102e9610298565b5b9250929050565b5f5f60208385031215610307576103066101a3565b5b5f83013567ffffffffffffffff811115610324576103236101a7565b5b6103308582860161029c565b92509250509250929050565b7f4e487b71000000000000000000000000000000000000000000000000000000005f52602260045260245ffd5b5f600282049050600182168061038057607f821691505b6020821081036103935761039261033c565b5b50919050565b5f82905092915050565b7f4e487b71000000000000000000000000000000000000000000000000000000005f52604160045260245ffd5b5f819050815f5260205f209050919050565b5f6020601f8301049050919050565b5f82821b905092915050565b5f6008830261042c7fffffffffffffffffffffffffffffffffffffffffffffffffffffffffffffffff826103f1565b61043686836103f1565b95508019841693508086168417925050509392505050565b5f819050919050565b5f61047161046c61046784610172565b61044e565b610172565b9050919050565b5f819050919050565b61048a83610457565b61049e61049682610478565b8484546103fd565b825550505050565b5f5f905090565b6104b56104a6565b6104c0818484610481565b505050565b5b818110156104e3576104d85f826104ad565b6001810190506104c6565b5050565b601f821115610528576104f9816103d0565b610502846103e2565b81016020851015610511578190505b61052561051d856103e2565b8301826104c5565b50505b505050565b5f82821c905092915050565b5f6105485f198460080261052d565b1980831691505092915050565b5f6105608383610539565b9150826002028217905092915050565b61057a8383610399565b67ffffffffffffffff811115610593576105926103a3565b5b61059d8254610369565b6105a88282856104e7565b5f601f8311600181146105d5575f84156105c3578287013590505b6105cd8582610555565b865550610634565b601f1984166105e3866103d0565b5f5b8281101561060a578489013582556001820191506020850194506020810190506105e5565b868310156106275784890135610623601f891682610539565b8355505b6001600288020188555050505b5050505050505056fea2646970667358221220239f1b1ea4df36db543b75d6f8500851677ab517019af753a28ddfb33f3b4e2c64736f6c634300081e0033",
					"opcodes": "PUSH1 0x80 PUSH1 0x40 MSTORE PUSH1 0xA PUSH0 SSTORE PUSH1 0x40 MLOAD DUP1 PUSH1 0x40 ADD PUSH1 0x40 MSTORE DUP1 PUSH1 0x11 DUP2 MSTORE PUSH1 0x20 ADD PUSH32 0x4C6561726E696E6720536F6C6964697479000000000000000000000000000000 DUP2 MSTORE POP PUSH1 0x1 SWAP1 DUP2 PUSH2 0x4C SWAP2 SWAP1 PUSH2 0x29B JUMP JUMPDEST POP CALLVALUE DUP1 ISZERO PUSH2 0x58 JUMPI PUSH0 PUSH0 REVERT JUMPDEST POP PUSH2 0x36A JUMP JUMPDEST PUSH0 DUP2 MLOAD SWAP1 POP SWAP2 SWAP1 POP JUMP JUMPDEST PUSH32 0x4E487B7100000000000000000000000000000000000000000000000000000000 PUSH0 MSTORE PUSH1 0x41 PUSH1 0x4 MSTORE PUSH1 0x24 PUSH0 REVERT JUMPDEST PUSH32 0x4E487B7100000000000000000000000000000000000000000000000000000000 PUSH0 MSTORE PUSH1 0x22 PUSH1 0x4 MSTORE PUSH1 0x24 PUSH0 REVERT JUMPDEST PUSH0 PUSH1 0x2 DUP3 DIV SWAP1 POP PUSH1 0x1 DUP3 AND DUP1 PUSH2 0xD9 JUMPI PUSH1 0x7F DUP3 AND SWAP2 POP JUMPDEST PUSH1 0x20 DUP3 LT DUP2 SUB PUSH2 0xEC JUMPI PUSH2 0xEB PUSH2 0x95 JUMP JUMPDEST JUMPDEST POP SWAP2 SWAP1 POP JUMP JUMPDEST PUSH0 DUP2 SWAP1 POP DUP2 PUSH0 MSTORE PUSH1 0x20 PUSH0 KECCAK256 SWAP1 POP SWAP2 SWAP1 POP JUMP JUMPDEST PUSH0 PUSH1 0x20 PUSH1 0x1F DUP4 ADD DIV SWAP1 POP SWAP2 SWAP1 POP JUMP JUMPDEST PUSH0 DUP3 DUP3 SHL SWAP1 POP SWAP3 SWAP2 POP POP JUMP JUMPDEST PUSH0 PUSH1 0x8 DUP4 MUL PUSH2 0x14E PUSH32 0xFFFFFFFFFFFFFFFFFFFFFFFFFFFFFFFFFFFFFFFFFFFFFFFFFFFFFFFFFFFFFFFF DUP3 PUSH2 0x113 JUMP JUMPDEST PUSH2 0x158 DUP7 DUP4 PUSH2 0x113 JUMP JUMPDEST SWAP6 POP DUP1 NOT DUP5 AND SWAP4 POP DUP1 DUP7 AND DUP5 OR SWAP3 POP POP POP SWAP4 SWAP3 POP POP POP JUMP JUMPDEST PUSH0 DUP2 SWAP1 POP SWAP2 SWAP1 POP JUMP JUMPDEST PUSH0 DUP2 SWAP1 POP SWAP2 SWAP1 POP JUMP JUMPDEST PUSH0 PUSH2 0x19C PUSH2 0x197 PUSH2 0x192 DUP5 PUSH2 0x170 JUMP JUMPDEST PUSH2 0x179 JUMP JUMPDEST PUSH2 0x170 JUMP JUMPDEST SWAP1 POP SWAP2 SWAP1 POP JUMP JUMPDEST PUSH0 DUP2 SWAP1 POP SWAP2 SWAP1 POP JUMP JUMPDEST PUSH2 0x1B5 DUP4 PUSH2 0x182 JUMP JUMPDEST PUSH2 0x1C9 PUSH2 0x1C1 DUP3 PUSH2 0x1A3 JUMP JUMPDEST DUP5 DUP5 SLOAD PUSH2 0x11F JUMP JUMPDEST DUP3 SSTORE POP POP POP POP JUMP JUMPDEST PUSH0 PUSH0 SWAP1 POP SWAP1 JUMP JUMPDEST PUSH2 0x1E0 PUSH2 0x1D1 JUMP JUMPDEST PUSH2 0x1EB DUP2 DUP5 DUP5 PUSH2 0x1AC JUMP JUMPDEST POP POP POP JUMP JUMPDEST JUMPDEST DUP2 DUP2 LT ISZERO PUSH2 0x20E JUMPI PUSH2 0x203 PUSH0 DUP3 PUSH2 0x1D8 JUMP JUMPDEST PUSH1 0x1 DUP2 ADD SWAP1 POP PUSH2 0x1F1 JUMP JUMPDEST POP POP JUMP JUMPDEST PUSH1 0x1F DUP3 GT ISZERO PUSH2 0x253 JUMPI PUSH2 0x224 DUP2 PUSH2 0xF2 JUMP JUMPDEST PUSH2 0x22D DUP5 PUSH2 0x104 JUMP JUMPDEST DUP2 ADD PUSH1 0x20 DUP6 LT ISZERO PUSH2 0x23C JUMPI DUP2 SWAP1 POP JUMPDEST PUSH2 0x250 PUSH2 0x248 DUP6 PUSH2 0x104 JUMP JUMPDEST DUP4 ADD DUP3 PUSH2 0x1F0 JUMP JUMPDEST POP POP JUMPDEST POP POP POP JUMP JUMPDEST PUSH0 DUP3 DUP3 SHR SWAP1 POP SWAP3 SWAP2 POP POP JUMP JUMPDEST PUSH0 PUSH2 0x273 PUSH0 NOT DUP5 PUSH1 0x8 MUL PUSH2 0x258 JUMP JUMPDEST NOT DUP1 DUP4 AND SWAP2 POP POP SWAP3 SWAP2 POP POP JUMP JUMPDEST PUSH0 PUSH2 0x28B DUP4 DUP4 PUSH2 0x264 JUMP JUMPDEST SWAP2 POP DUP3 PUSH1 0x2 MUL DUP3 OR SWAP1 POP SWAP3 SWAP2 POP POP JUMP JUMPDEST PUSH2 0x2A4 DUP3 PUSH2 0x5E JUMP JUMPDEST PUSH8 0xFFFFFFFFFFFFFFFF DUP2 GT ISZERO PUSH2 0x2BD JUMPI PUSH2 0x2BC PUSH2 0x68 JUMP JUMPDEST JUMPDEST PUSH2 0x2C7 DUP3 SLOAD PUSH2 0xC2 JUMP JUMPDEST PUSH2 0x2D2 DUP3 DUP3 DUP6 PUSH2 0x212 JUMP JUMPDEST PUSH0 PUSH1 0x20 SWAP1 POP PUSH1 0x1F DUP4 GT PUSH1 0x1 DUP2 EQ PUSH2 0x303 JUMPI PUSH0 DUP5 ISZERO PUSH2 0x2F1 JUMPI DUP3 DUP8 ADD MLOAD SWAP1 POP JUMPDEST PUSH2 0x2FB DUP6 DUP3 PUSH2 0x280 JUMP JUMPDEST DUP7 SSTORE POP PUSH2 0x362 JUMP JUMPDEST PUSH1 0x1F NOT DUP5 AND PUSH2 0x311 DUP7 PUSH2 0xF2 JUMP JUMPDEST PUSH0 JUMPDEST DUP3 DUP2 LT ISZERO PUSH2 0x338 JUMPI DUP5 DUP10 ADD MLOAD DUP3 SSTORE PUSH1 0x1 DUP3 ADD SWAP2 POP PUSH1 0x20 DUP6 ADD SWAP5 POP PUSH1 0x20 DUP2 ADD SWAP1 POP PUSH2 0x313 JUMP JUMPDEST DUP7 DUP4 LT ISZERO PUSH2 0x355 JUMPI DUP5 DUP10 ADD MLOAD PUSH2 0x351 PUSH1 0x1F DUP10 AND DUP3 PUSH2 0x264 JUMP JUMPDEST DUP4 SSTORE POP JUMPDEST PUSH1 0x1 PUSH1 0x2 DUP9 MUL ADD DUP9 SSTORE POP POP POP JUMPDEST POP POP POP POP POP POP JUMP JUMPDEST PUSH2 0x673 DUP1 PUSH2 0x377 PUSH0 CODECOPY PUSH0 RETURN INVALID PUSH1 0x80 PUSH1 0x40 MSTORE CALLVALUE DUP1 ISZERO PUSH2 0xF JUMPI PUSH0 PUSH0 REVERT JUMPDEST POP PUSH1 0x4 CALLDATASIZE LT PUSH2 0x4A JUMPI PUSH0 CALLDATALOAD PUSH1 0xE0 SHR DUP1 PUSH4 0x23FD0E40 EQ PUSH2 0x4E JUMPI DUP1 PUSH4 0x6FFD773C EQ PUSH2 0x6C JUMPI DUP1 PUSH4 0x9CE85DFF EQ PUSH2 0x88 JUMPI DUP1 PUSH4 0xC176873D EQ PUSH2 0xA6 JUMPI JUMPDEST PUSH0 PUSH0 REVERT JUMPDEST PUSH2 0x56 PUSH2 0xC2 JUMP JUMPDEST PUSH1 0x40 MLOAD PUSH2 0x63 SWAP2 SWAP1 PUSH2 0x18A JUMP JUMPDEST PUSH1 0x40 MLOAD DUP1 SWAP2 SUB SWAP1 RETURN JUMPDEST PUSH2 0x86 PUSH1 0x4 DUP1 CALLDATASIZE SUB DUP2 ADD SWAP1 PUSH2 0x81 SWAP2 SWAP1 PUSH2 0x1D5 JUMP JUMPDEST PUSH2 0xC7 JUMP JUMPDEST STOP JUMPDEST PUSH2 0x90 PUSH2 0xD0 JUMP JUMPDEST PUSH1 0x40 MLOAD PUSH2 0x9D SWAP2 SWAP1 PUSH2 0x270 JUMP JUMPDEST PUSH1 0x40 MLOAD DUP1 SWAP2 SUB SWAP1 RETURN JUMPDEST PUSH2 0xC0 PUSH1 0x4 DUP1 CALLDATASIZE SUB DUP2 ADD SWAP1 PUSH2 0xBB SWAP2 SWAP1 PUSH2 0x2F1 JUMP JUMPDEST PUSH2 0x15C JUMP JUMPDEST STOP JUMPDEST PUSH0 SLOAD DUP2 JUMP JUMPDEST DUP1 PUSH0 DUP2 SWAP1 SSTORE POP POP JUMP JUMPDEST PUSH1 0x1 DUP1 SLOAD PUSH2 0xDD SWAP1 PUSH2 0x369 JUMP JUMPDEST DUP1 PUSH1 0x1F ADD PUSH1 0x20 DUP1 SWAP2 DIV MUL PUSH1 0x20 ADD PUSH1 0x40 MLOAD SWAP1 DUP2 ADD PUSH1 0x40 MSTORE DUP1 SWAP3 SWAP2 SWAP1 DUP2 DUP2 MSTORE PUSH1 0x20 ADD DUP3 DUP1 SLOAD PUSH2 0x109 SWAP1 PUSH2 0x369 JUMP JUMPDEST DUP1 ISZERO PUSH2 0x154 JUMPI DUP1 PUSH1 0x1F LT PUSH2 0x12B JUMPI PUSH2 0x100 DUP1 DUP4 SLOAD DIV MUL DUP4 MSTORE SWAP2 PUSH1 0x20 ADD SWAP2 PUSH2 0x154 JUMP JUMPDEST DUP3 ADD SWAP2 SWAP1 PUSH0 MSTORE PUSH1 0x20 PUSH0 KECCAK256 SWAP1 JUMPDEST DUP2 SLOAD DUP2 MSTORE SWAP1 PUSH1 0x1 ADD SWAP1 PUSH1 0x20 ADD DUP1 DUP4 GT PUSH2 0x137 JUMPI DUP3 SWAP1 SUB PUSH1 0x1F AND DUP3 ADD SWAP2 JUMPDEST POP POP POP POP POP DUP2 JUMP JUMPDEST DUP2 DUP2 PUSH1 0x1 SWAP2 DUP3 PUSH2 0x16D SWAP3 SWAP2 SWAP1 PUSH2 0x570 JUMP JUMPDEST POP POP POP JUMP JUMPDEST PUSH0 DUP2 SWAP1 POP SWAP2 SWAP1 POP JUMP JUMPDEST PUSH2 0x184 DUP2 PUSH2 0x172 JUMP JUMPDEST DUP3 MSTORE POP POP JUMP JUMPDEST PUSH0 PUSH1 0x20 DUP3 ADD SWAP1 POP PUSH2 0x19D PUSH0 DUP4 ADD DUP5 PUSH2 0x17B JUMP JUMPDEST SWAP3 SWAP2 POP POP JUMP JUMPDEST PUSH0 PUSH0 REVERT JUMPDEST PUSH0 PUSH0 REVERT JUMPDEST PUSH2 0x1B4 DUP2 PUSH2 0x172 JUMP JUMPDEST DUP2 EQ PUSH2 0x1BE JUMPI PUSH0 PUSH0 REVERT JUMPDEST POP JUMP JUMPDEST PUSH0 DUP2 CALLDATALOAD SWAP1 POP PUSH2 0x1CF DUP2 PUSH2 0x1AB JUMP JUMPDEST SWAP3 SWAP2 POP POP JUMP JUMPDEST PUSH0 PUSH1 0x20 DUP3 DUP5 SUB SLT ISZERO PUSH2 0x1EA JUMPI PUSH2 0x1E9 PUSH2 0x1A3 JUMP JUMPDEST JUMPDEST PUSH0 PUSH2 0x1F7 DUP5 DUP3 DUP6 ADD PUSH2 0x1C1 JUMP JUMPDEST SWAP2 POP POP SWAP3 SWAP2 POP POP JUMP JUMPDEST PUSH0 DUP2 MLOAD SWAP1 POP SWAP2 SWAP1 POP JUMP JUMPDEST PUSH0 DUP3 DUP3 MSTORE PUSH1 0x20 DUP3 ADD SWAP1 POP SWAP3 SWAP2 POP POP JUMP JUMPDEST DUP3 DUP2 DUP4 MCOPY PUSH0 DUP4 DUP4 ADD MSTORE POP POP POP JUMP JUMPDEST PUSH0 PUSH1 0x1F NOT PUSH1 0x1F DUP4 ADD AND SWAP1 POP SWAP2 SWAP1 POP JUMP JUMPDEST PUSH0 PUSH2 0x242 DUP3 PUSH2 0x200 JUMP JUMPDEST PUSH2 0x24C DUP2 DUP6 PUSH2 0x20A JUMP JUMPDEST SWAP4 POP PUSH2 0x25C DUP2 DUP6 PUSH1 0x20 DUP7 ADD PUSH2 0x21A JUMP JUMPDEST PUSH2 0x265 DUP2 PUSH2 0x228 JUMP JUMPDEST DUP5 ADD SWAP2 POP POP SWAP3 SWAP2 POP POP JUMP JUMPDEST PUSH0 PUSH1 0x20 DUP3 ADD SWAP1 POP DUP2 DUP2 SUB PUSH0 DUP4 ADD MSTORE PUSH2 0x288 DUP2 DUP5 PUSH2 0x238 JUMP JUMPDEST SWAP1 POP SWAP3 SWAP2 POP POP JUMP JUMPDEST PUSH0 PUSH0 REVERT JUMPDEST PUSH0 PUSH0 REVERT JUMPDEST PUSH0 PUSH0 REVERT JUMPDEST PUSH0 PUSH0 DUP4 PUSH1 0x1F DUP5 ADD SLT PUSH2 0x2B1 JUMPI PUSH2 0x2B0 PUSH2 0x290 JUMP JUMPDEST JUMPDEST DUP3 CALLDATALOAD SWAP1 POP PUSH8 0xFFFFFFFFFFFFFFFF DUP2 GT ISZERO PUSH2 0x2CE JUMPI PUSH2 0x2CD PUSH2 0x294 JUMP JUMPDEST JUMPDEST PUSH1 0x20 DUP4 ADD SWAP2 POP DUP4 PUSH1 0x1 DUP3 MUL DUP4 ADD GT ISZERO PUSH2 0x2EA JUMPI PUSH2 0x2E9 PUSH2 0x298 JUMP JUMPDEST JUMPDEST SWAP3 POP SWAP3 SWAP1 POP JUMP JUMPDEST PUSH0 PUSH0 PUSH1 0x20 DUP4 DUP6 SUB SLT ISZERO PUSH2 0x307 JUMPI PUSH2 0x306 PUSH2 0x1A3 JUMP JUMPDEST JUMPDEST PUSH0 DUP4 ADD CALLDATALOAD PUSH8 0xFFFFFFFFFFFFFFFF DUP2 GT ISZERO PUSH2 0x324 JUMPI PUSH2 0x323 PUSH2 0x1A7 JUMP JUMPDEST JUMPDEST PUSH2 0x330 DUP6 DUP3 DUP7 ADD PUSH2 0x29C JUMP JUMPDEST SWAP3 POP SWAP3 POP POP SWAP3 POP SWAP3 SWAP1 POP JUMP JUMPDEST PUSH32 0x4E487B7100000000000000000000000000000000000000000000000000000000 PUSH0 MSTORE PUSH1 0x22 PUSH1 0x4 MSTORE PUSH1 0x24 PUSH0 REVERT JUMPDEST PUSH0 PUSH1 0x2 DUP3 DIV SWAP1 POP PUSH1 0x1 DUP3 AND DUP1 PUSH2 0x380 JUMPI PUSH1 0x7F DUP3 AND SWAP2 POP JUMPDEST PUSH1 0x20 DUP3 LT DUP2 SUB PUSH2 0x393 JUMPI PUSH2 0x392 PUSH2 0x33C JUMP JUMPDEST JUMPDEST POP SWAP2 SWAP1 POP JUMP JUMPDEST PUSH0 DUP3 SWAP1 POP SWAP3 SWAP2 POP POP JUMP JUMPDEST PUSH32 0x4E487B7100000000000000000000000000000000000000000000000000000000 PUSH0 MSTORE PUSH1 0x41 PUSH1 0x4 MSTORE PUSH1 0x24 PUSH0 REVERT JUMPDEST PUSH0 DUP2 SWAP1 POP DUP2 PUSH0 MSTORE PUSH1 0x20 PUSH0 KECCAK256 SWAP1 POP SWAP2 SWAP1 POP JUMP JUMPDEST PUSH0 PUSH1 0x20 PUSH1 0x1F DUP4 ADD DIV SWAP1 POP SWAP2 SWAP1 POP JUMP JUMPDEST PUSH0 DUP3 DUP3 SHL SWAP1 POP SWAP3 SWAP2 POP POP JUMP JUMPDEST PUSH0 PUSH1 0x8 DUP4 MUL PUSH2 0x42C PUSH32 0xFFFFFFFFFFFFFFFFFFFFFFFFFFFFFFFFFFFFFFFFFFFFFFFFFFFFFFFFFFFFFFFF DUP3 PUSH2 0x3F1 JUMP JUMPDEST PUSH2 0x436 DUP7 DUP4 PUSH2 0x3F1 JUMP JUMPDEST SWAP6 POP DUP1 NOT DUP5 AND SWAP4 POP DUP1 DUP7 AND DUP5 OR SWAP3 POP POP POP SWAP4 SWAP3 POP POP POP JUMP JUMPDEST PUSH0 DUP2 SWAP1 POP SWAP2 SWAP1 POP JUMP JUMPDEST PUSH0 PUSH2 0x471 PUSH2 0x46C PUSH2 0x467 DUP5 PUSH2 0x172 JUMP JUMPDEST PUSH2 0x44E JUMP JUMPDEST PUSH2 0x172 JUMP JUMPDEST SWAP1 POP SWAP2 SWAP1 POP JUMP JUMPDEST PUSH0 DUP2 SWAP1 POP SWAP2 SWAP1 POP JUMP JUMPDEST PUSH2 0x48A DUP4 PUSH2 0x457 JUMP JUMPDEST PUSH2 0x49E PUSH2 0x496 DUP3 PUSH2 0x478 JUMP JUMPDEST DUP5 DUP5 SLOAD PUSH2 0x3FD JUMP JUMPDEST DUP3 SSTORE POP POP POP POP JUMP JUMPDEST PUSH0 PUSH0 SWAP1 POP SWAP1 JUMP JUMPDEST PUSH2 0x4B5 PUSH2 0x4A6 JUMP JUMPDEST PUSH2 0x4C0 DUP2 DUP5 DUP5 PUSH2 0x481 JUMP JUMPDEST POP POP POP JUMP JUMPDEST JUMPDEST DUP2 DUP2 LT ISZERO PUSH2 0x4E3 JUMPI PUSH2 0x4D8 PUSH0 DUP3 PUSH2 0x4AD JUMP JUMPDEST PUSH1 0x1 DUP2 ADD SWAP1 POP PUSH2 0x4C6 JUMP JUMPDEST POP POP JUMP JUMPDEST PUSH1 0x1F DUP3 GT ISZERO PUSH2 0x528 JUMPI PUSH2 0x4F9 DUP2 PUSH2 0x3D0 JUMP JUMPDEST PUSH2 0x502 DUP5 PUSH2 0x3E2 JUMP JUMPDEST DUP2 ADD PUSH1 0x20 DUP6 LT ISZERO PUSH2 0x511 JUMPI DUP2 SWAP1 POP JUMPDEST PUSH2 0x525 PUSH2 0x51D DUP6 PUSH2 0x3E2 JUMP JUMPDEST DUP4 ADD DUP3 PUSH2 0x4C5 JUMP JUMPDEST POP POP JUMPDEST POP POP POP JUMP JUMPDEST PUSH0 DUP3 DUP3 SHR SWAP1 POP SWAP3 SWAP2 POP POP JUMP JUMPDEST PUSH0 PUSH2 0x548 PUSH0 NOT DUP5 PUSH1 0x8 MUL PUSH2 0x52D JUMP JUMPDEST NOT DUP1 DUP4 AND SWAP2 POP POP SWAP3 SWAP2 POP POP JUMP JUMPDEST PUSH0 PUSH2 0x560 DUP4 DUP4 PUSH2 0x539 JUMP JUMPDEST SWAP2 POP DUP3 PUSH1 0x2 MUL DUP3 OR SWAP1 POP SWAP3 SWAP2 POP POP JUMP JUMPDEST PUSH2 0x57A DUP4 DUP4 PUSH2 0x399 JUMP JUMPDEST PUSH8 0xFFFFFFFFFFFFFFFF DUP2 GT ISZERO PUSH2 0x593 JUMPI PUSH2 0x592 PUSH2 0x3A3 JUMP JUMPDEST JUMPDEST PUSH2 0x59D DUP3 SLOAD PUSH2 0x369 JUMP JUMPDEST PUSH2 0x5A8 DUP3 DUP3 DUP6 PUSH2 0x4E7 JUMP JUMPDEST PUSH0 PUSH1 0x1F DUP4 GT PUSH1 0x1 DUP2 EQ PUSH2 0x5D5 JUMPI PUSH0 DUP5 ISZERO PUSH2 0x5C3 JUMPI DUP3 DUP8 ADD CALLDATALOAD SWAP1 POP JUMPDEST PUSH2 0x5CD DUP6 DUP3 PUSH2 0x555 JUMP JUMPDEST DUP7 SSTORE POP PUSH2 0x634 JUMP JUMPDEST PUSH1 0x1F NOT DUP5 AND PUSH2 0x5E3 DUP7 PUSH2 0x3D0 JUMP JUMPDEST PUSH0 JUMPDEST DUP3 DUP2 LT ISZERO PUSH2 0x60A JUMPI DUP5 DUP10 ADD CALLDATALOAD DUP3 SSTORE PUSH1 0x1 DUP3 ADD SWAP2 POP PUSH1 0x20 DUP6 ADD SWAP5 POP PUSH1 0x20 DUP2 ADD SWAP1 POP PUSH2 0x5E5 JUMP JUMPDEST DUP7 DUP4 LT ISZERO PUSH2 0x627 JUMPI DUP5 DUP10 ADD CALLDATALOAD PUSH2 0x623 PUSH1 0x1F DUP10 AND DUP3 PUSH2 0x539 JUMP JUMPDEST DUP4 SSTORE POP JUMPDEST PUSH1 0x1 PUSH1 0x2 DUP9 MUL ADD DUP9 SSTORE POP POP POP JUMPDEST POP POP POP POP POP POP POP JUMP INVALID LOG2 PUSH5 0x6970667358 0x22 SLT KECCAK256 0x23 SWAP16 SHL 0x1E LOG4 0xDF CALLDATASIZE 0xDB SLOAD EXTCODESIZE PUSH22 0xD6F8500851677AB517019AF753A28DDFB33F3B4E2C64 PUSH20 0x6F6C634300081E00330000000000000000000000 "
				},
				"gasEstimates": {
					"creation": {
						"codeDepositCost": "330200",
						"executionCost": "infinite",
						"totalCost": "infinite"
					},
					"external": {
						"myNumber()": "2402",
						"myStatus()": "infinite",
						"setMyNumber(uint256)": "22514",
						"setMyStatus(string)": "infinite"
					}
				},
				"methodIdentifiers": {
					"myNumber()": "23fd0e40",
					"myStatus()": "9ce85dff",
					"setMyNumber(uint256)": "6ffd773c",
					"setMyStatus(string)": "c176873d"
				}
			},
			"storageLayout": {
				"storage": [
					{
						"astId": 4,
						"contract": "function.sol:MyFavoriteNumber",
						"label": "myNumber",
						"offset": 0,
						"slot": "0",
						"type": "t_uint256"
					},
					{
						"astId": 7,
						"contract": "function.sol:MyFavoriteNumber",
						"label": "myStatus",
						"offset": 0,
						"slot": "1",
						"type": "t_string_storage"
					}
				],
				"types": {
					"t_string_storage": {
						"encoding": "bytes",
						"label": "string",
						"numberOfBytes": "32"
					},
					"t_uint256": {
						"encoding": "inplace",
						"label": "uint256",
						"numberOfBytes": "32"
					}
				}
			},
			"userdoc": {
				"kind": "user",
				"methods": {},
				"version": 1
			}
		}
	}
}