{
	"SIH_Project Contract/CertRegistry.sol": {
		"CertRegistry": {
			"abi": [
				{
					"inputs": [],
					"stateMutability": "nonpayable",
					"type": "constructor"
				},
				{
					"inputs": [],
					"name": "AccessControlBadConfirmation",
					"type": "error"
				},
				{
					"inputs": [
						{
							"internalType": "address",
							"name": "account",
							"type": "address"
						},
						{
							"internalType": "bytes32",
							"name": "neededRole",
							"type": "bytes32"
						}
					],
					"name": "AccessControlUnauthorizedAccount",
					"type": "error"
				},
				{
					"anonymous": false,
					"inputs": [
						{
							"indexed": true,
							"internalType": "bytes32",
							"name": "recordIdHash",
							"type": "bytes32"
						},
						{
							"indexed": true,
							"internalType": "address",
							"name": "issuer",
							"type": "address"
						},
						{
							"indexed": false,
							"internalType": "bytes32",
							"name": "fileHash",
							"type": "bytes32"
						},
						{
							"indexed": false,
							"internalType": "uint256",
							"name": "issuedAt",
							"type": "uint256"
						}
					],
					"name": "RecordIssued",
					"type": "event"
				},
				{
					"anonymous": false,
					"inputs": [
						{
							"indexed": true,
							"internalType": "bytes32",
							"name": "recordIdHash",
							"type": "bytes32"
						},
						{
							"indexed": true,
							"internalType": "address",
							"name": "revoker",
							"type": "address"
						},
						{
							"indexed": false,
							"internalType": "uint256",
							"name": "revokedAt",
							"type": "uint256"
						}
					],
					"name": "RecordRevoked",
					"type": "event"
				},
				{
					"anonymous": false,
					"inputs": [
						{
							"indexed": true,
							"internalType": "bytes32",
							"name": "role",
							"type": "bytes32"
						},
						{
							"indexed": true,
							"internalType": "bytes32",
							"name": "previousAdminRole",
							"type": "bytes32"
						},
						{
							"indexed": true,
							"internalType": "bytes32",
							"name": "newAdminRole",
							"type": "bytes32"
						}
					],
					"name": "RoleAdminChanged",
					"type": "event"
				},
				{
					"anonymous": false,
					"inputs": [
						{
							"indexed": true,
							"internalType": "bytes32",
							"name": "role",
							"type": "bytes32"
						},
						{
							"indexed": true,
							"internalType": "address",
							"name": "account",
							"type": "address"
						},
						{
							"indexed": true,
							"internalType": "address",
							"name": "sender",
							"type": "address"
						}
					],
					"name": "RoleGranted",
					"type": "event"
				},
				{
					"anonymous": false,
					"inputs": [
						{
							"indexed": true,
							"internalType": "bytes32",
							"name": "role",
							"type": "bytes32"
						},
						{
							"indexed": true,
							"internalType": "address",
							"name": "account",
							"type": "address"
						},
						{
							"indexed": true,
							"internalType": "address",
							"name": "sender",
							"type": "address"
						}
					],
					"name": "RoleRevoked",
					"type": "event"
				},
				{
					"inputs": [],
					"name": "ADMIN_ROLE",
					"outputs": [
						{
							"internalType": "bytes32",
							"name": "",
							"type": "bytes32"
						}
					],
					"stateMutability": "view",
					"type": "function"
				},
				{
					"inputs": [],
					"name": "DEFAULT_ADMIN_ROLE",
					"outputs": [
						{
							"internalType": "bytes32",
							"name": "",
							"type": "bytes32"
						}
					],
					"stateMutability": "view",
					"type": "function"
				},
				{
					"inputs": [],
					"name": "DEPARTMENT_ROLE",
					"outputs": [
						{
							"internalType": "bytes32",
							"name": "",
							"type": "bytes32"
						}
					],
					"stateMutability": "view",
					"type": "function"
				},
				{
					"inputs": [],
					"name": "FACULTY_ROLE",
					"outputs": [
						{
							"internalType": "bytes32",
							"name": "",
							"type": "bytes32"
						}
					],
					"stateMutability": "view",
					"type": "function"
				},
				{
					"inputs": [
						{
							"internalType": "address",
							"name": "department",
							"type": "address"
						}
					],
					"name": "addDepartment",
					"outputs": [],
					"stateMutability": "nonpayable",
					"type": "function"
				},
				{
					"inputs": [
						{
							"internalType": "address",
							"name": "faculty",
							"type": "address"
						}
					],
					"name": "addFaculty",
					"outputs": [],
					"stateMutability": "nonpayable",
					"type": "function"
				},
				{
					"inputs": [
						{
							"internalType": "bytes32",
							"name": "_recordIdHash",
							"type": "bytes32"
						}
					],
					"name": "getRecord",
					"outputs": [
						{
							"internalType": "address",
							"name": "issuer",
							"type": "address"
						},
						{
							"internalType": "bytes32",
							"name": "fileHash",
							"type": "bytes32"
						},
						{
							"internalType": "uint256",
							"name": "issuedAt",
							"type": "uint256"
						},
						{
							"internalType": "bool",
							"name": "revoked",
							"type": "bool"
						}
					],
					"stateMutability": "view",
					"type": "function"
				},
				{
					"inputs": [
						{
							"internalType": "bytes32",
							"name": "role",
							"type": "bytes32"
						}
					],
					"name": "getRoleAdmin",
					"outputs": [
						{
							"internalType": "bytes32",
							"name": "",
							"type": "bytes32"
						}
					],
					"stateMutability": "view",
					"type": "function"
				},
				{
					"inputs": [
						{
							"internalType": "bytes32",
							"name": "role",
							"type": "bytes32"
						},
						{
							"internalType": "address",
							"name": "account",
							"type": "address"
						}
					],
					"name": "grantRole",
					"outputs": [],
					"stateMutability": "nonpayable",
					"type": "function"
				},
				{
					"inputs": [
						{
							"internalType": "bytes32",
							"name": "role",
							"type": "bytes32"
						},
						{
							"internalType": "address",
							"name": "account",
							"type": "address"
						}
					],
					"name": "hasRole",
					"outputs": [
						{
							"internalType": "bool",
							"name": "",
							"type": "bool"
						}
					],
					"stateMutability": "view",
					"type": "function"
				},
				{
					"inputs": [
						{
							"internalType": "bytes32",
							"name": "_recordIdHash",
							"type": "bytes32"
						},
						{
							"internalType": "bytes32",
							"name": "_fileHash",
							"type": "bytes32"
						}
					],
					"name": "issueInstitutionalRecord",
					"outputs": [],
					"stateMutability": "nonpayable",
					"type": "function"
				},
				{
					"inputs": [
						{
							"internalType": "bytes32",
							"name": "_recordIdHash",
							"type": "bytes32"
						},
						{
							"internalType": "bytes32",
							"name": "_fileHash",
							"type": "bytes32"
						}
					],
					"name": "issueRecord",
					"outputs": [],
					"stateMutability": "nonpayable",
					"type": "function"
				},
				{
					"inputs": [
						{
							"internalType": "bytes32",
							"name": "role",
							"type": "bytes32"
						},
						{
							"internalType": "address",
							"name": "callerConfirmation",
							"type": "address"
						}
					],
					"name": "renounceRole",
					"outputs": [],
					"stateMutability": "nonpayable",
					"type": "function"
				},
				{
					"inputs": [
						{
							"internalType": "bytes32",
							"name": "_recordIdHash",
							"type": "bytes32"
						}
					],
					"name": "revokeRecord",
					"outputs": [],
					"stateMutability": "nonpayable",
					"type": "function"
				},
				{
					"inputs": [
						{
							"internalType": "bytes32",
							"name": "role",
							"type": "bytes32"
						},
						{
							"internalType": "address",
							"name": "account",
							"type": "address"
						}
					],
					"name": "revokeRole",
					"outputs": [],
					"stateMutability": "nonpayable",
					"type": "function"
				},
				{
					"inputs": [
						{
							"internalType": "bytes4",
							"name": "interfaceId",
							"type": "bytes4"
						}
					],
					"name": "supportsInterface",
					"outputs": [
						{
							"internalType": "bool",
							"name": "",
							"type": "bool"
						}
					],
					"stateMutability": "view",
					"type": "function"
				},
				{
					"inputs": [
						{
							"internalType": "bytes32",
							"name": "_recordIdHash",
							"type": "bytes32"
						},
						{
							"internalType": "bytes32",
							"name": "_fileHash",
							"type": "bytes32"
						}
					],
					"name": "verifyRecord",
					"outputs": [
						{
							"internalType": "bool",
							"name": "",
							"type": "bool"
						},
						{
							"internalType": "bool",
							"name": "",
							"type": "bool"
						}
					],
					"stateMutability": "view",
					"type": "function"
				}
			],
			"devdoc": {
				"details": "This contract manages the immutable registry of verified certificates and records. Access is restricted to designated roles (Admin, Faculty, Department).",
				"errors": {
					"AccessControlBadConfirmation()": [
						{
							"details": "The caller of a function is not the expected one. NOTE: Don't confuse with {AccessControlUnauthorizedAccount}."
						}
					],
					"AccessControlUnauthorizedAccount(address,bytes32)": [
						{
							"details": "The `account` is missing a role."
						}
					]
				},
				"events": {
					"RoleAdminChanged(bytes32,bytes32,bytes32)": {
						"details": "Emitted when `newAdminRole` is set as ``role``'s admin role, replacing `previousAdminRole` `DEFAULT_ADMIN_ROLE` is the starting admin for all roles, despite {RoleAdminChanged} not being emitted to signal this."
					},
					"RoleGranted(bytes32,address,address)": {
						"details": "Emitted when `account` is granted `role`. `sender` is the account that originated the contract call. This account bears the admin role (for the granted role). Expected in cases where the role was granted using the internal {AccessControl-_grantRole}."
					},
					"RoleRevoked(bytes32,address,address)": {
						"details": "Emitted when `account` is revoked `role`. `sender` is the account that originated the contract call:   - if using `revokeRole`, it is the admin role bearer   - if using `renounceRole`, it is the role bearer (i.e. `account`)"
					}
				},
				"kind": "dev",
				"methods": {
					"addDepartment(address)": {
						"details": "Adds a new address to the list of Departments.",
						"params": {
							"department": "The address to be added."
						}
					},
					"addFaculty(address)": {
						"details": "Adds a new address to the list of Faculty.",
						"params": {
							"faculty": "The address to be added."
						}
					},
					"constructor": {
						"details": "The contract deployer is set as the initial admin."
					},
					"getRoleAdmin(bytes32)": {
						"details": "Returns the admin role that controls `role`. See {grantRole} and {revokeRole}. To change a role's admin, use {_setRoleAdmin}."
					},
					"grantRole(bytes32,address)": {
						"details": "Grants `role` to `account`. If `account` had not been already granted `role`, emits a {RoleGranted} event. Requirements: - the caller must have ``role``'s admin role. May emit a {RoleGranted} event."
					},
					"hasRole(bytes32,address)": {
						"details": "Returns `true` if `account` has been granted `role`."
					},
					"issueInstitutionalRecord(bytes32,bytes32)": {
						"details": "Only a registered admin can call this function.",
						"params": {
							"_fileHash": "The hash of the PDF report itself.",
							"_recordIdHash": "The unique hash of the off-chain report ID."
						}
					},
					"issueRecord(bytes32,bytes32)": {
						"details": "Only Faculty or Department can call this function.",
						"params": {
							"_fileHash": "The hash of the file (e.g., PDF) being certified.",
							"_recordIdHash": "The unique hash of the off-chain record ID."
						}
					},
					"renounceRole(bytes32,address)": {
						"details": "Revokes `role` from the calling account. Roles are often managed via {grantRole} and {revokeRole}: this function's purpose is to provide a mechanism for accounts to lose their privileges if they are compromised (such as when a trusted device is misplaced). If the calling account had been revoked `role`, emits a {RoleRevoked} event. Requirements: - the caller must be `callerConfirmation`. May emit a {RoleRevoked} event."
					},
					"revokeRecord(bytes32)": {
						"details": "Can only be called by the original issuer or a contract admin.",
						"params": {
							"_recordIdHash": "The unique hash of the off-chain record ID."
						}
					},
					"revokeRole(bytes32,address)": {
						"details": "Revokes `role` from `account`. If `account` had been granted `role`, emits a {RoleRevoked} event. Requirements: - the caller must have ``role``'s admin role. May emit a {RoleRevoked} event."
					},
					"supportsInterface(bytes4)": {
						"details": "Returns true if this contract implements the interface defined by `interfaceId`. See the corresponding https://eips.ethereum.org/EIPS/eip-165#how-interfaces-are-identified[ERC section] to learn more about how these ids are created. This function call must use less than 30 000 gas."
					},
					"verifyRecord(bytes32,bytes32)": {
						"details": "This function is critical for off-chain verification processes.",
						"params": {
							"_fileHash": "The hash of the file to verify.",
							"_recordIdHash": "The unique hash of the off-chain record ID."
						},
						"returns": {
							"_0": "A boolean indicating if the record is valid, and a boolean if it has been revoked."
						}
					}
				},
				"title": "CertRegistry",
				"version": 1
			},
			"evm": {
				"assembly": "    /* \"SIH_Project Contract/CertRegistry.sol\":324:5910  contract CertRegistry is AccessControl {... */\n  mstore(0x40, 0x80)\n    /* \"SIH_Project Contract/CertRegistry.sol\":1651:1771  constructor() {... */\n  callvalue\n  dup1\n  iszero\n  tag_1\n  jumpi\n  0x00\n  dup1\n  revert\ntag_1:\n  pop\n    /* \"SIH_Project Contract/CertRegistry.sol\":1676:1718  _grantRole(DEFAULT_ADMIN_ROLE, msg.sender) */\n  tag_4\n    /* \"@openzeppelin/contracts/access/AccessControl.sol\":2241:2245  0x00 */\n  0x00\n    /* \"SIH_Project Contract/CertRegistry.sol\":1687:1705  DEFAULT_ADMIN_ROLE */\n  dup1\n  shl\n    /* \"SIH_Project Contract/CertRegistry.sol\":1707:1717  msg.sender */\n  caller\n    /* \"SIH_Project Contract/CertRegistry.sol\":1676:1686  _grantRole */\n  shl(0x20, tag_5)\n    /* \"SIH_Project Contract/CertRegistry.sol\":1676:1718  _grantRole(DEFAULT_ADMIN_ROLE, msg.sender) */\n  0x20\n  shr\n  jump\t// in\ntag_4:\n  pop\n    /* \"SIH_Project Contract/CertRegistry.sol\":1729:1763  _grantRole(ADMIN_ROLE, msg.sender) */\n  tag_6\n    /* \"SIH_Project Contract/CertRegistry.sol\":475:498  keccak256(\"ADMIN_ROLE\") */\n  0xa49807205ce4d355092ef5a8a18f56e8913cf4a201fbe287825b095693c21775\n    /* \"SIH_Project Contract/CertRegistry.sol\":1752:1762  msg.sender */\n  caller\n    /* \"SIH_Project Contract/CertRegistry.sol\":1729:1739  _grantRole */\n  shl(0x20, tag_5)\n    /* \"SIH_Project Contract/CertRegistry.sol\":1729:1763  _grantRole(ADMIN_ROLE, msg.sender) */\n  0x20\n  shr\n  jump\t// in\ntag_6:\n  pop\n    /* \"SIH_Project Contract/CertRegistry.sol\":324:5910  contract CertRegistry is AccessControl {... */\n  jump(tag_7)\n    /* \"@openzeppelin/contracts/access/AccessControl.sol\":6155:6471  function _grantRole(bytes32 role, address account) internal virtual returns (bool) {... */\ntag_5:\n    /* \"@openzeppelin/contracts/access/AccessControl.sol\":6232:6236  bool */\n  0x00\n    /* \"@openzeppelin/contracts/access/AccessControl.sol\":6253:6275  hasRole(role, account) */\n  tag_9\n    /* \"@openzeppelin/contracts/access/AccessControl.sol\":6261:6265  role */\n  dup4\n    /* \"@openzeppelin/contracts/access/AccessControl.sol\":6267:6274  account */\n  dup4\n    /* \"@openzeppelin/contracts/access/AccessControl.sol\":6253:6260  hasRole */\n  shl(0x20, tag_10)\n    /* \"@openzeppelin/contracts/access/AccessControl.sol\":6253:6275  hasRole(role, account) */\n  0x20\n  shr\n  jump\t// in\ntag_9:\n    /* \"@openzeppelin/contracts/access/AccessControl.sol\":6248:6465  if (!hasRole(role, account)) {... */\n  tag_11\n  jumpi\n    /* \"@openzeppelin/contracts/access/AccessControl.sol\":6323:6327  true */\n  0x01\n    /* \"@openzeppelin/contracts/access/AccessControl.sol\":6291:6297  _roles */\n  0x00\n    /* \"@openzeppelin/contracts/access/AccessControl.sol\":6291:6303  _roles[role] */\n  dup1\n    /* \"@openzeppelin/contracts/access/AccessControl.sol\":6298:6302  role */\n  dup6\n    /* \"@openzeppelin/contracts/access/AccessControl.sol\":6291:6303  _roles[role] */\n  dup2\n  mstore\n  0x20\n  add\n  swap1\n  dup2\n  mstore\n  0x20\n  add\n  0x00\n  keccak256\n    /* \"@openzeppelin/contracts/access/AccessControl.sol\":6291:6311  _roles[role].hasRole */\n  0x00\n  add\n    /* \"@openzeppelin/contracts/access/AccessControl.sol\":6291:6320  _roles[role].hasRole[account] */\n  0x00\n    /* \"@openzeppelin/contracts/access/AccessControl.sol\":6312:6319  account */\n  dup5\n    /* \"@openzeppelin/contracts/access/AccessControl.sol\":6291:6320  _roles[role].hasRole[account] */\n  0xffffffffffffffffffffffffffffffffffffffff\n  and\n  0xffffffffffffffffffffffffffffffffffffffff\n  and\n  dup2\n  mstore\n  0x20\n  add\n  swap1\n  dup2\n  mstore\n  0x20\n  add\n  0x00\n  keccak256\n  0x00\n    /* \"@openzeppelin/contracts/access/AccessControl.sol\":6291:6327  _roles[role].hasRole[account] = true */\n  0x0100\n  exp\n  dup2\n  sload\n  dup2\n  0xff\n  mul\n  not\n  and\n  swap1\n  dup4\n  iszero\n  iszero\n  mul\n  or\n  swap1\n  sstore\n  pop\n    /* \"@openzeppelin/contracts/access/AccessControl.sol\":6373:6385  _msgSender() */\n  tag_12\n    /* \"@openzeppelin/contracts/access/AccessControl.sol\":6373:6383  _msgSender */\n  shl(0x20, tag_13)\n    /* \"@openzeppelin/contracts/access/AccessControl.sol\":6373:6385  _msgSender() */\n  0x20\n  shr\n  jump\t// in\ntag_12:\n    /* \"@openzeppelin/contracts/access/AccessControl.sol\":6346:6386  RoleGranted(role, account, _msgSender()) */\n  0xffffffffffffffffffffffffffffffffffffffff\n  and\n    /* \"@openzeppelin/contracts/access/AccessControl.sol\":6364:6371  account */\n  dup3\n    /* \"@openzeppelin/contracts/access/AccessControl.sol\":6346:6386  RoleGranted(role, account, _msgSender()) */\n  0xffffffffffffffffffffffffffffffffffffffff\n  and\n    /* \"@openzeppelin/contracts/access/AccessControl.sol\":6358:6362  role */\n  dup5\n    /* \"@openzeppelin/contracts/access/AccessControl.sol\":6346:6386  RoleGranted(role, account, _msgSender()) */\n  0x2f8788117e7eff1d82e926ec794901d17c78024a50270940304540a733656f0d\n  mload(0x40)\n  mload(0x40)\n  dup1\n  swap2\n  sub\n  swap1\n  log4\n    /* \"@openzeppelin/contracts/access/AccessControl.sol\":6407:6411  true */\n  0x01\n    /* \"@openzeppelin/contracts/access/AccessControl.sol\":6400:6411  return true */\n  swap1\n  pop\n  jump(tag_8)\n    /* \"@openzeppelin/contracts/access/AccessControl.sol\":6248:6465  if (!hasRole(role, account)) {... */\ntag_11:\n    /* \"@openzeppelin/contracts/access/AccessControl.sol\":6449:6454  false */\n  0x00\n    /* \"@openzeppelin/contracts/access/AccessControl.sol\":6442:6454  return false */\n  swap1\n  pop\n    /* \"@openzeppelin/contracts/access/AccessControl.sol\":6155:6471  function _grantRole(bytes32 role, address account) internal virtual returns (bool) {... */\ntag_8:\n  swap3\n  swap2\n  pop\n  pop\n  jump\t// out\n    /* \"@openzeppelin/contracts/access/AccessControl.sol\":2830:2966  function hasRole(bytes32 role, address account) public view virtual returns (bool) {... */\ntag_10:\n    /* \"@openzeppelin/contracts/access/AccessControl.sol\":2907:2911  bool */\n  0x00\n    /* \"@openzeppelin/contracts/access/AccessControl.sol\":2930:2936  _roles */\n  dup1\n    /* \"@openzeppelin/contracts/access/AccessControl.sol\":2930:2942  _roles[role] */\n  0x00\n    /* \"@openzeppelin/contracts/access/AccessControl.sol\":2937:2941  role */\n  dup5\n    /* \"@openzeppelin/contracts/access/AccessControl.sol\":2930:2942  _roles[role] */\n  dup2\n  mstore\n  0x20\n  add\n  swap1\n  dup2\n  mstore\n  0x20\n  add\n  0x00\n  keccak256\n    /* \"@openzeppelin/contracts/access/AccessControl.sol\":2930:2950  _roles[role].hasRole */\n  0x00\n  add\n    /* \"@openzeppelin/contracts/access/AccessControl.sol\":2930:2959  _roles[role].hasRole[account] */\n  0x00\n    /* \"@openzeppelin/contracts/access/AccessControl.sol\":2951:2958  account */\n  dup4\n    /* \"@openzeppelin/contracts/access/AccessControl.sol\":2930:2959  _roles[role].hasRole[account] */\n  0xffffffffffffffffffffffffffffffffffffffff\n  and\n  0xffffffffffffffffffffffffffffffffffffffff\n  and\n  dup2\n  mstore\n  0x20\n  add\n  swap1\n  dup2\n  mstore\n  0x20\n  add\n  0x00\n  keccak256\n  0x00\n  swap1\n  sload\n  swap1\n  0x0100\n  exp\n  swap1\n  div\n  0xff\n  and\n    /* \"@openzeppelin/contracts/access/AccessControl.sol\":2923:2959  return _roles[role].hasRole[account] */\n  swap1\n  pop\n    /* \"@openzeppelin/contracts/access/AccessControl.sol\":2830:2966  function hasRole(bytes32 role, address account) public view virtual returns (bool) {... */\n  swap3\n  swap2\n  pop\n  pop\n  jump\t// out\n    /* \"@openzeppelin/contracts/utils/Context.sol\":656:752  function _msgSender() internal view virtual returns (address) {... */\ntag_13:\n    /* \"@openzeppelin/contracts/utils/Context.sol\":709:716  address */\n  0x00\n    /* \"@openzeppelin/contracts/utils/Context.sol\":735:745  msg.sender */\n  caller\n    /* \"@openzeppelin/contracts/utils/Context.sol\":728:745  return msg.sender */\n  swap1\n  pop\n    /* \"@openzeppelin/contracts/utils/Context.sol\":656:752  function _msgSender() internal view virtual returns (address) {... */\n  swap1\n  jump\t// out\n    /* \"SIH_Project Contract/CertRegistry.sol\":324:5910  contract CertRegistry is AccessControl {... */\ntag_7:\n  dataSize(sub_0)\n  dup1\n  dataOffset(sub_0)\n  0x00\n  codecopy\n  0x00\n  return\nstop\n\nsub_0: assembly {\n        /* \"SIH_Project Contract/CertRegistry.sol\":324:5910  contract CertRegistry is AccessControl {... */\n      mstore(0x40, 0x80)\n      callvalue\n      dup1\n      iszero\n      tag_1\n      jumpi\n      0x00\n      dup1\n      revert\n    tag_1:\n      pop\n      jumpi(tag_2, lt(calldatasize, 0x04))\n      shr(0xe0, calldataload(0x00))\n      dup1\n      0x69ff43fc\n      gt\n      tag_20\n      jumpi\n      dup1\n      0x996dc022\n      gt\n      tag_21\n      jumpi\n      dup1\n      0x996dc022\n      eq\n      tag_15\n      jumpi\n      dup1\n      0xa217fddf\n      eq\n      tag_16\n      jumpi\n      dup1\n      0xc616c979\n      eq\n      tag_17\n      jumpi\n      dup1\n      0xd547741f\n      eq\n      tag_18\n      jumpi\n      dup1\n      0xf838585f\n      eq\n      tag_19\n      jumpi\n      jump(tag_2)\n    tag_21:\n      dup1\n      0x69ff43fc\n      eq\n      tag_11\n      jumpi\n      dup1\n      0x6fe3ceb8\n      eq\n      tag_12\n      jumpi\n      dup1\n      0x75b238fc\n      eq\n      tag_13\n      jumpi\n      dup1\n      0x91d14854\n      eq\n      tag_14\n      jumpi\n      jump(tag_2)\n    tag_20:\n      dup1\n      0x36568abe\n      gt\n      tag_22\n      jumpi\n      dup1\n      0x36568abe\n      eq\n      tag_7\n      jumpi\n      dup1\n      0x396ff3ed\n      eq\n      tag_8\n      jumpi\n      dup1\n      0x3e478509\n      eq\n      tag_9\n      jumpi\n      dup1\n      0x63e44e2f\n      eq\n      tag_10\n      jumpi\n      jump(tag_2)\n    tag_22:\n      dup1\n      0x01ffc9a7\n      eq\n      tag_3\n      jumpi\n      dup1\n      0x213681cd\n      eq\n      tag_4\n      jumpi\n      dup1\n      0x248a9ca3\n      eq\n      tag_5\n      jumpi\n      dup1\n      0x2f2ff15d\n      eq\n      tag_6\n      jumpi\n    tag_2:\n      0x00\n      dup1\n      revert\n        /* \"@openzeppelin/contracts/access/AccessControl.sol\":2541:2743  function supportsInterface(bytes4 interfaceId) public view virtual override returns (bool) {... */\n    tag_3:\n      tag_23\n      0x04\n      dup1\n      calldatasize\n      sub\n      dup2\n      add\n      swap1\n      tag_24\n      swap2\n      swap1\n      tag_25\n      jump\t// in\n    tag_24:\n      tag_26\n      jump\t// in\n    tag_23:\n      mload(0x40)\n      tag_27\n      swap2\n      swap1\n      tag_28\n      jump\t// in\n    tag_27:\n      mload(0x40)\n      dup1\n      swap2\n      sub\n      swap1\n      return\n        /* \"SIH_Project Contract/CertRegistry.sol\":4932:5236  function getRecord(bytes32 _recordIdHash) external view returns (... */\n    tag_4:\n      tag_29\n      0x04\n      dup1\n      calldatasize\n      sub\n      dup2\n      add\n      swap1\n      tag_30\n      swap2\n      swap1\n      tag_31\n      jump\t// in\n    tag_30:\n      tag_32\n      jump\t// in\n    tag_29:\n      mload(0x40)\n      tag_33\n      swap5\n      swap4\n      swap3\n      swap2\n      swap1\n      tag_34\n      jump\t// in\n    tag_33:\n      mload(0x40)\n      dup1\n      swap2\n      sub\n      swap1\n      return\n        /* \"@openzeppelin/contracts/access/AccessControl.sol\":3786:3906  function getRoleAdmin(bytes32 role) public view virtual returns (bytes32) {... */\n    tag_5:\n      tag_35\n      0x04\n      dup1\n      calldatasize\n      sub\n      dup2\n      add\n      swap1\n      tag_36\n      swap2\n      swap1\n      tag_31\n      jump\t// in\n    tag_36:\n      tag_37\n      jump\t// in\n    tag_35:\n      mload(0x40)\n      tag_38\n      swap2\n      swap1\n      tag_39\n      jump\t// in\n    tag_38:\n      mload(0x40)\n      dup1\n      swap2\n      sub\n      swap1\n      return\n        /* \"@openzeppelin/contracts/access/AccessControl.sol\":4202:4338  function grantRole(bytes32 role, address account) public virtual onlyRole(getRoleAdmin(role)) {... */\n    tag_6:\n      tag_40\n      0x04\n      dup1\n      calldatasize\n      sub\n      dup2\n      add\n      swap1\n      tag_41\n      swap2\n      swap1\n      tag_42\n      jump\t// in\n    tag_41:\n      tag_43\n      jump\t// in\n    tag_40:\n      stop\n        /* \"@openzeppelin/contracts/access/AccessControl.sol\":5304:5549  function renounceRole(bytes32 role, address callerConfirmation) public virtual {... */\n    tag_7:\n      tag_44\n      0x04\n      dup1\n      calldatasize\n      sub\n      dup2\n      add\n      swap1\n      tag_45\n      swap2\n      swap1\n      tag_42\n      jump\t// in\n    tag_45:\n      tag_46\n      jump\t// in\n    tag_44:\n      stop\n        /* \"SIH_Project Contract/CertRegistry.sol\":1946:2065  function addFaculty(address faculty) external onlyRole(ADMIN_ROLE) {... */\n    tag_8:\n      tag_47\n      0x04\n      dup1\n      calldatasize\n      sub\n      dup2\n      add\n      swap1\n      tag_48\n      swap2\n      swap1\n      tag_49\n      jump\t// in\n    tag_48:\n      tag_50\n      jump\t// in\n    tag_47:\n      stop\n        /* \"SIH_Project Contract/CertRegistry.sol\":2662:3366  function issueRecord(... */\n    tag_9:\n      tag_51\n      0x04\n      dup1\n      calldatasize\n      sub\n      dup2\n      add\n      swap1\n      tag_52\n      swap2\n      swap1\n      tag_53\n      jump\t// in\n    tag_52:\n      tag_54\n      jump\t// in\n    tag_51:\n      stop\n        /* \"SIH_Project Contract/CertRegistry.sol\":2202:2333  function addDepartment(address department) external onlyRole(ADMIN_ROLE) {... */\n    tag_10:\n      tag_55\n      0x04\n      dup1\n      calldatasize\n      sub\n      dup2\n      add\n      swap1\n      tag_56\n      swap2\n      swap1\n      tag_49\n      jump\t// in\n    tag_56:\n      tag_57\n      jump\t// in\n    tag_55:\n      stop\n        /* \"SIH_Project Contract/CertRegistry.sol\":3664:4177  function issueInstitutionalRecord(... */\n    tag_11:\n      tag_58\n      0x04\n      dup1\n      calldatasize\n      sub\n      dup2\n      add\n      swap1\n      tag_59\n      swap2\n      swap1\n      tag_53\n      jump\t// in\n    tag_59:\n      tag_60\n      jump\t// in\n    tag_58:\n      stop\n        /* \"SIH_Project Contract/CertRegistry.sol\":560:624  bytes32 public constant FACULTY_ROLE = keccak256(\"FACULTY_ROLE\") */\n    tag_12:\n      tag_61\n      tag_62\n      jump\t// in\n    tag_61:\n      mload(0x40)\n      tag_63\n      swap2\n      swap1\n      tag_39\n      jump\t// in\n    tag_63:\n      mload(0x40)\n      dup1\n      swap2\n      sub\n      swap1\n      return\n        /* \"SIH_Project Contract/CertRegistry.sol\":438:498  bytes32 public constant ADMIN_ROLE = keccak256(\"ADMIN_ROLE\") */\n    tag_13:\n      tag_64\n      tag_65\n      jump\t// in\n    tag_64:\n      mload(0x40)\n      tag_66\n      swap2\n      swap1\n      tag_39\n      jump\t// in\n    tag_66:\n      mload(0x40)\n      dup1\n      swap2\n      sub\n      swap1\n      return\n        /* \"@openzeppelin/contracts/access/AccessControl.sol\":2830:2966  function hasRole(bytes32 role, address account) public view virtual returns (bool) {... */\n    tag_14:\n      tag_67\n      0x04\n      dup1\n      calldatasize\n      sub\n      dup2\n      add\n      swap1\n      tag_68\n      swap2\n      swap1\n      tag_42\n      jump\t// in\n    tag_68:\n      tag_69\n      jump\t// in\n    tag_67:\n      mload(0x40)\n      tag_70\n      swap2\n      swap1\n      tag_28\n      jump\t// in\n    tag_70:\n      mload(0x40)\n      dup1\n      swap2\n      sub\n      swap1\n      return\n        /* \"SIH_Project Contract/CertRegistry.sol\":722:792  bytes32 public constant DEPARTMENT_ROLE = keccak256(\"DEPARTMENT_ROLE\") */\n    tag_15:\n      tag_71\n      tag_72\n      jump\t// in\n    tag_71:\n      mload(0x40)\n      tag_73\n      swap2\n      swap1\n      tag_39\n      jump\t// in\n    tag_73:\n      mload(0x40)\n      dup1\n      swap2\n      sub\n      swap1\n      return\n        /* \"@openzeppelin/contracts/access/AccessControl.sol\":2196:2245  bytes32 public constant DEFAULT_ADMIN_ROLE = 0x00 */\n    tag_16:\n      tag_74\n      tag_75\n      jump\t// in\n    tag_74:\n      mload(0x40)\n      tag_76\n      swap2\n      swap1\n      tag_39\n      jump\t// in\n    tag_76:\n      mload(0x40)\n      dup1\n      swap2\n      sub\n      swap1\n      return\n        /* \"SIH_Project Contract/CertRegistry.sol\":4396:4924  function revokeRecord(bytes32 _recordIdHash) external {... */\n    tag_17:\n      tag_77\n      0x04\n      dup1\n      calldatasize\n      sub\n      dup2\n      add\n      swap1\n      tag_78\n      swap2\n      swap1\n      tag_31\n      jump\t// in\n    tag_78:\n      tag_79\n      jump\t// in\n    tag_77:\n      stop\n        /* \"@openzeppelin/contracts/access/AccessControl.sol\":4618:4756  function revokeRole(bytes32 role, address account) public virtual onlyRole(getRoleAdmin(role)) {... */\n    tag_18:\n      tag_80\n      0x04\n      dup1\n      calldatasize\n      sub\n      dup2\n      add\n      swap1\n      tag_81\n      swap2\n      swap1\n      tag_42\n      jump\t// in\n    tag_81:\n      tag_82\n      jump\t// in\n    tag_80:\n      stop\n        /* \"SIH_Project Contract/CertRegistry.sol\":5632:5907  function verifyRecord(bytes32 _recordIdHash, bytes32 _fileHash) external view returns (bool, bool) {... */\n    tag_19:\n      tag_83\n      0x04\n      dup1\n      calldatasize\n      sub\n      dup2\n      add\n      swap1\n      tag_84\n      swap2\n      swap1\n      tag_53\n      jump\t// in\n    tag_84:\n      tag_85\n      jump\t// in\n    tag_83:\n      mload(0x40)\n      tag_86\n      swap3\n      swap2\n      swap1\n      tag_87\n      jump\t// in\n    tag_86:\n      mload(0x40)\n      dup1\n      swap2\n      sub\n      swap1\n      return\n        /* \"@openzeppelin/contracts/access/AccessControl.sol\":2541:2743  function supportsInterface(bytes4 interfaceId) public view virtual override returns (bool) {... */\n    tag_26:\n        /* \"@openzeppelin/contracts/access/AccessControl.sol\":2626:2630  bool */\n      0x00\n        /* \"@openzeppelin/contracts/access/AccessControl.sol\":2664:2696  type(IAccessControl).interfaceId */\n      0x7965db0b00000000000000000000000000000000000000000000000000000000\n        /* \"@openzeppelin/contracts/access/AccessControl.sol\":2649:2696  interfaceId == type(IAccessControl).interfaceId */\n      not(0xffffffffffffffffffffffffffffffffffffffffffffffffffffffff)\n      and\n        /* \"@openzeppelin/contracts/access/AccessControl.sol\":2649:2660  interfaceId */\n      dup3\n        /* \"@openzeppelin/contracts/access/AccessControl.sol\":2649:2696  interfaceId == type(IAccessControl).interfaceId */\n      not(0xffffffffffffffffffffffffffffffffffffffffffffffffffffffff)\n      and\n      eq\n        /* \"@openzeppelin/contracts/access/AccessControl.sol\":2649:2736  interfaceId == type(IAccessControl).interfaceId || super.supportsInterface(interfaceId) */\n      dup1\n      tag_89\n      jumpi\n      pop\n        /* \"@openzeppelin/contracts/access/AccessControl.sol\":2700:2736  super.supportsInterface(interfaceId) */\n      tag_90\n        /* \"@openzeppelin/contracts/access/AccessControl.sol\":2724:2735  interfaceId */\n      dup3\n        /* \"@openzeppelin/contracts/access/AccessControl.sol\":2700:2723  super.supportsInterface */\n      tag_91\n        /* \"@openzeppelin/contracts/access/AccessControl.sol\":2700:2736  super.supportsInterface(interfaceId) */\n      jump\t// in\n    tag_90:\n        /* \"@openzeppelin/contracts/access/AccessControl.sol\":2649:2736  interfaceId == type(IAccessControl).interfaceId || super.supportsInterface(interfaceId) */\n    tag_89:\n        /* \"@openzeppelin/contracts/access/AccessControl.sol\":2642:2736  return interfaceId == type(IAccessControl).interfaceId || super.supportsInterface(interfaceId) */\n      swap1\n      pop\n        /* \"@openzeppelin/contracts/access/AccessControl.sol\":2541:2743  function supportsInterface(bytes4 interfaceId) public view virtual override returns (bool) {... */\n      swap2\n      swap1\n      pop\n      jump\t// out\n        /* \"SIH_Project Contract/CertRegistry.sol\":4932:5236  function getRecord(bytes32 _recordIdHash) external view returns (... */\n    tag_32:\n        /* \"SIH_Project Contract/CertRegistry.sol\":5007:5021  address issuer */\n      0x00\n        /* \"SIH_Project Contract/CertRegistry.sol\":5032:5048  bytes32 fileHash */\n      dup1\n        /* \"SIH_Project Contract/CertRegistry.sol\":5059:5075  uint256 issuedAt */\n      0x00\n        /* \"SIH_Project Contract/CertRegistry.sol\":5086:5098  bool revoked */\n      dup1\n        /* \"SIH_Project Contract/CertRegistry.sol\":5117:5133  Record storage r */\n      0x00\n        /* \"SIH_Project Contract/CertRegistry.sol\":5136:5143  records */\n      0x01\n        /* \"SIH_Project Contract/CertRegistry.sol\":5136:5158  records[_recordIdHash] */\n      0x00\n        /* \"SIH_Project Contract/CertRegistry.sol\":5144:5157  _recordIdHash */\n      dup8\n        /* \"SIH_Project Contract/CertRegistry.sol\":5136:5158  records[_recordIdHash] */\n      dup2\n      mstore\n      0x20\n      add\n      swap1\n      dup2\n      mstore\n      0x20\n      add\n      0x00\n      keccak256\n        /* \"SIH_Project Contract/CertRegistry.sol\":5117:5158  Record storage r = records[_recordIdHash] */\n      swap1\n      pop\n        /* \"SIH_Project Contract/CertRegistry.sol\":5177:5178  r */\n      dup1\n        /* \"SIH_Project Contract/CertRegistry.sol\":5177:5192  r.issuerAddress */\n      0x00\n      add\n      0x00\n      swap1\n      sload\n      swap1\n      0x0100\n      exp\n      swap1\n      div\n      0xffffffffffffffffffffffffffffffffffffffff\n      and\n        /* \"SIH_Project Contract/CertRegistry.sol\":5194:5195  r */\n      dup2\n        /* \"SIH_Project Contract/CertRegistry.sol\":5194:5204  r.fileHash */\n      0x01\n      add\n      sload\n        /* \"SIH_Project Contract/CertRegistry.sol\":5206:5207  r */\n      dup3\n        /* \"SIH_Project Contract/CertRegistry.sol\":5206:5216  r.issuedAt */\n      0x02\n      add\n      sload\n        /* \"SIH_Project Contract/CertRegistry.sol\":5218:5219  r */\n      dup4\n        /* \"SIH_Project Contract/CertRegistry.sol\":5218:5227  r.revoked */\n      0x03\n      add\n      0x00\n      swap1\n      sload\n      swap1\n      0x0100\n      exp\n      swap1\n      div\n      0xff\n      and\n        /* \"SIH_Project Contract/CertRegistry.sol\":5169:5228  return (r.issuerAddress, r.fileHash, r.issuedAt, r.revoked) */\n      swap5\n      pop\n      swap5\n      pop\n      swap5\n      pop\n      swap5\n      pop\n      pop\n        /* \"SIH_Project Contract/CertRegistry.sol\":4932:5236  function getRecord(bytes32 _recordIdHash) external view returns (... */\n      swap2\n      swap4\n      pop\n      swap2\n      swap4\n      jump\t// out\n        /* \"@openzeppelin/contracts/access/AccessControl.sol\":3786:3906  function getRoleAdmin(bytes32 role) public view virtual returns (bytes32) {... */\n    tag_37:\n        /* \"@openzeppelin/contracts/access/AccessControl.sol\":3851:3858  bytes32 */\n      0x00\n        /* \"@openzeppelin/contracts/access/AccessControl.sol\":3877:3883  _roles */\n      dup1\n        /* \"@openzeppelin/contracts/access/AccessControl.sol\":3877:3889  _roles[role] */\n      0x00\n        /* \"@openzeppelin/contracts/access/AccessControl.sol\":3884:3888  role */\n      dup4\n        /* \"@openzeppelin/contracts/access/AccessControl.sol\":3877:3889  _roles[role] */\n      dup2\n      mstore\n      0x20\n      add\n      swap1\n      dup2\n      mstore\n      0x20\n      add\n      0x00\n      keccak256\n        /* \"@openzeppelin/contracts/access/AccessControl.sol\":3877:3899  _roles[role].adminRole */\n      0x01\n      add\n      sload\n        /* \"@openzeppelin/contracts/access/AccessControl.sol\":3870:3899  return _roles[role].adminRole */\n      swap1\n      pop\n        /* \"@openzeppelin/contracts/access/AccessControl.sol\":3786:3906  function getRoleAdmin(bytes32 role) public view virtual returns (bytes32) {... */\n      swap2\n      swap1\n      pop\n      jump\t// out\n        /* \"@openzeppelin/contracts/access/AccessControl.sol\":4202:4338  function grantRole(bytes32 role, address account) public virtual onlyRole(getRoleAdmin(role)) {... */\n    tag_43:\n        /* \"@openzeppelin/contracts/access/AccessControl.sol\":4276:4294  getRoleAdmin(role) */\n      tag_94\n        /* \"@openzeppelin/contracts/access/AccessControl.sol\":4289:4293  role */\n      dup3\n        /* \"@openzeppelin/contracts/access/AccessControl.sol\":4276:4288  getRoleAdmin */\n      tag_37\n        /* \"@openzeppelin/contracts/access/AccessControl.sol\":4276:4294  getRoleAdmin(role) */\n      jump\t// in\n    tag_94:\n        /* \"@openzeppelin/contracts/access/AccessControl.sol\":2473:2489  _checkRole(role) */\n      tag_96\n        /* \"@openzeppelin/contracts/access/AccessControl.sol\":2484:2488  role */\n      dup2\n        /* \"@openzeppelin/contracts/access/AccessControl.sol\":2473:2483  _checkRole */\n      tag_97\n        /* \"@openzeppelin/contracts/access/AccessControl.sol\":2473:2489  _checkRole(role) */\n      jump\t// in\n    tag_96:\n        /* \"@openzeppelin/contracts/access/AccessControl.sol\":4306:4331  _grantRole(role, account) */\n      tag_99\n        /* \"@openzeppelin/contracts/access/AccessControl.sol\":4317:4321  role */\n      dup4\n        /* \"@openzeppelin/contracts/access/AccessControl.sol\":4323:4330  account */\n      dup4\n        /* \"@openzeppelin/contracts/access/AccessControl.sol\":4306:4316  _grantRole */\n      tag_100\n        /* \"@openzeppelin/contracts/access/AccessControl.sol\":4306:4331  _grantRole(role, account) */\n      jump\t// in\n    tag_99:\n      pop\n        /* \"@openzeppelin/contracts/access/AccessControl.sol\":4202:4338  function grantRole(bytes32 role, address account) public virtual onlyRole(getRoleAdmin(role)) {... */\n      pop\n      pop\n      pop\n      jump\t// out\n        /* \"@openzeppelin/contracts/access/AccessControl.sol\":5304:5549  function renounceRole(bytes32 role, address callerConfirmation) public virtual {... */\n    tag_46:\n        /* \"@openzeppelin/contracts/access/AccessControl.sol\":5419:5431  _msgSender() */\n      tag_102\n        /* \"@openzeppelin/contracts/access/AccessControl.sol\":5419:5429  _msgSender */\n      tag_103\n        /* \"@openzeppelin/contracts/access/AccessControl.sol\":5419:5431  _msgSender() */\n      jump\t// in\n    tag_102:\n        /* \"@openzeppelin/contracts/access/AccessControl.sol\":5397:5431  callerConfirmation != _msgSender() */\n      0xffffffffffffffffffffffffffffffffffffffff\n      and\n        /* \"@openzeppelin/contracts/access/AccessControl.sol\":5397:5415  callerConfirmation */\n      dup2\n        /* \"@openzeppelin/contracts/access/AccessControl.sol\":5397:5431  callerConfirmation != _msgSender() */\n      0xffffffffffffffffffffffffffffffffffffffff\n      and\n      eq\n        /* \"@openzeppelin/contracts/access/AccessControl.sol\":5393:5495  if (callerConfirmation != _msgSender()) {... */\n      tag_104\n      jumpi\n        /* \"@openzeppelin/contracts/access/AccessControl.sol\":5454:5484  AccessControlBadConfirmation() */\n      mload(0x40)\n      0x6697b23200000000000000000000000000000000000000000000000000000000\n      dup2\n      mstore\n      0x04\n      add\n      mload(0x40)\n      dup1\n      swap2\n      sub\n      swap1\n      revert\n        /* \"@openzeppelin/contracts/access/AccessControl.sol\":5393:5495  if (callerConfirmation != _msgSender()) {... */\n    tag_104:\n        /* \"@openzeppelin/contracts/access/AccessControl.sol\":5505:5542  _revokeRole(role, callerConfirmation) */\n      tag_105\n        /* \"@openzeppelin/contracts/access/AccessControl.sol\":5517:5521  role */\n      dup3\n        /* \"@openzeppelin/contracts/access/AccessControl.sol\":5523:5541  callerConfirmation */\n      dup3\n        /* \"@openzeppelin/contracts/access/AccessControl.sol\":5505:5516  _revokeRole */\n      tag_106\n        /* \"@openzeppelin/contracts/access/AccessControl.sol\":5505:5542  _revokeRole(role, callerConfirmation) */\n      jump\t// in\n    tag_105:\n      pop\n        /* \"@openzeppelin/contracts/access/AccessControl.sol\":5304:5549  function renounceRole(bytes32 role, address callerConfirmation) public virtual {... */\n      pop\n      pop\n      jump\t// out\n        /* \"SIH_Project Contract/CertRegistry.sol\":1946:2065  function addFaculty(address faculty) external onlyRole(ADMIN_ROLE) {... */\n    tag_50:\n        /* \"SIH_Project Contract/CertRegistry.sol\":475:498  keccak256(\"ADMIN_ROLE\") */\n      0xa49807205ce4d355092ef5a8a18f56e8913cf4a201fbe287825b095693c21775\n        /* \"@openzeppelin/contracts/access/AccessControl.sol\":2473:2489  _checkRole(role) */\n      tag_108\n        /* \"@openzeppelin/contracts/access/AccessControl.sol\":2484:2488  role */\n      dup2\n        /* \"@openzeppelin/contracts/access/AccessControl.sol\":2473:2483  _checkRole */\n      tag_97\n        /* \"@openzeppelin/contracts/access/AccessControl.sol\":2473:2489  _checkRole(role) */\n      jump\t// in\n    tag_108:\n        /* \"SIH_Project Contract/CertRegistry.sol\":2024:2057  _grantRole(FACULTY_ROLE, faculty) */\n      tag_110\n        /* \"SIH_Project Contract/CertRegistry.sol\":599:624  keccak256(\"FACULTY_ROLE\") */\n      0xf3f9cfff7b46f415da5a492b1718971da203f87c6aae9299e7b408eb83ef8bee\n        /* \"SIH_Project Contract/CertRegistry.sol\":2049:2056  faculty */\n      dup4\n        /* \"SIH_Project Contract/CertRegistry.sol\":2024:2034  _grantRole */\n      tag_100\n        /* \"SIH_Project Contract/CertRegistry.sol\":2024:2057  _grantRole(FACULTY_ROLE, faculty) */\n      jump\t// in\n    tag_110:\n      pop\n        /* \"SIH_Project Contract/CertRegistry.sol\":1946:2065  function addFaculty(address faculty) external onlyRole(ADMIN_ROLE) {... */\n      pop\n      pop\n      jump\t// out\n        /* \"SIH_Project Contract/CertRegistry.sol\":2662:3366  function issueRecord(... */\n    tag_54:\n        /* \"SIH_Project Contract/CertRegistry.sol\":2852:2885  hasRole(FACULTY_ROLE, msg.sender) */\n      tag_112\n        /* \"SIH_Project Contract/CertRegistry.sol\":599:624  keccak256(\"FACULTY_ROLE\") */\n      0xf3f9cfff7b46f415da5a492b1718971da203f87c6aae9299e7b408eb83ef8bee\n        /* \"SIH_Project Contract/CertRegistry.sol\":2874:2884  msg.sender */\n      caller\n        /* \"SIH_Project Contract/CertRegistry.sol\":2852:2859  hasRole */\n      tag_69\n        /* \"SIH_Project Contract/CertRegistry.sol\":2852:2885  hasRole(FACULTY_ROLE, msg.sender) */\n      jump\t// in\n    tag_112:\n        /* \"SIH_Project Contract/CertRegistry.sol\":2852:2925  hasRole(FACULTY_ROLE, msg.sender) || hasRole(DEPARTMENT_ROLE, msg.sender) */\n      dup1\n      tag_113\n      jumpi\n      pop\n        /* \"SIH_Project Contract/CertRegistry.sol\":2889:2925  hasRole(DEPARTMENT_ROLE, msg.sender) */\n      tag_114\n        /* \"SIH_Project Contract/CertRegistry.sol\":764:792  keccak256(\"DEPARTMENT_ROLE\") */\n      0xe7837d04f36ce0b2f3cc662bf1b2b632a7fbd12ae95199e8bd3dcfbcc440b66b\n        /* \"SIH_Project Contract/CertRegistry.sol\":2914:2924  msg.sender */\n      caller\n        /* \"SIH_Project Contract/CertRegistry.sol\":2889:2896  hasRole */\n      tag_69\n        /* \"SIH_Project Contract/CertRegistry.sol\":2889:2925  hasRole(DEPARTMENT_ROLE, msg.sender) */\n      jump\t// in\n    tag_114:\n        /* \"SIH_Project Contract/CertRegistry.sol\":2852:2925  hasRole(FACULTY_ROLE, msg.sender) || hasRole(DEPARTMENT_ROLE, msg.sender) */\n    tag_113:\n        /* \"SIH_Project Contract/CertRegistry.sol\":2844:2992  require(hasRole(FACULTY_ROLE, msg.sender) || hasRole(DEPARTMENT_ROLE, msg.sender), ... */\n      tag_115\n      jumpi\n      mload(0x40)\n      0x08c379a000000000000000000000000000000000000000000000000000000000\n      dup2\n      mstore\n      0x04\n      add\n      tag_116\n      swap1\n      tag_117\n      jump\t// in\n    tag_116:\n      mload(0x40)\n      dup1\n      swap2\n      sub\n      swap1\n      revert\n    tag_115:\n        /* \"SIH_Project Contract/CertRegistry.sol\":3046:3047  0 */\n      0x00\n        /* \"SIH_Project Contract/CertRegistry.sol\":3011:3018  records */\n      0x01\n        /* \"SIH_Project Contract/CertRegistry.sol\":3011:3033  records[_recordIdHash] */\n      0x00\n        /* \"SIH_Project Contract/CertRegistry.sol\":3019:3032  _recordIdHash */\n      dup5\n        /* \"SIH_Project Contract/CertRegistry.sol\":3011:3033  records[_recordIdHash] */\n      dup2\n      mstore\n      0x20\n      add\n      swap1\n      dup2\n      mstore\n      0x20\n      add\n      0x00\n      keccak256\n        /* \"SIH_Project Contract/CertRegistry.sol\":3011:3042  records[_recordIdHash].issuedAt */\n      0x02\n      add\n      sload\n        /* \"SIH_Project Contract/CertRegistry.sol\":3011:3047  records[_recordIdHash].issuedAt == 0 */\n      eq\n        /* \"SIH_Project Contract/CertRegistry.sol\":3003:3073  require(records[_recordIdHash].issuedAt == 0, \"Record already exists\") */\n      tag_118\n      jumpi\n      mload(0x40)\n      0x08c379a000000000000000000000000000000000000000000000000000000000\n      dup2\n      mstore\n      0x04\n      add\n      tag_119\n      swap1\n      tag_120\n      jump\t// in\n    tag_119:\n      mload(0x40)\n      dup1\n      swap2\n      sub\n      swap1\n      revert\n    tag_118:\n        /* \"SIH_Project Contract/CertRegistry.sol\":3111:3273  Record({... */\n      mload(0x40)\n      dup1\n      0x80\n      add\n      0x40\n      mstore\n      dup1\n        /* \"SIH_Project Contract/CertRegistry.sol\":3148:3158  msg.sender */\n      caller\n        /* \"SIH_Project Contract/CertRegistry.sol\":3111:3273  Record({... */\n      0xffffffffffffffffffffffffffffffffffffffff\n      and\n      dup2\n      mstore\n      0x20\n      add\n        /* \"SIH_Project Contract/CertRegistry.sol\":3183:3192  _fileHash */\n      dup3\n        /* \"SIH_Project Contract/CertRegistry.sol\":3111:3273  Record({... */\n      dup2\n      mstore\n      0x20\n      add\n        /* \"SIH_Project Contract/CertRegistry.sol\":3217:3232  block.timestamp */\n      timestamp\n        /* \"SIH_Project Contract/CertRegistry.sol\":3111:3273  Record({... */\n      dup2\n      mstore\n      0x20\n      add\n        /* \"SIH_Project Contract/CertRegistry.sol\":3256:3261  false */\n      0x00\n        /* \"SIH_Project Contract/CertRegistry.sol\":3111:3273  Record({... */\n      iszero\n      iszero\n      dup2\n      mstore\n      pop\n        /* \"SIH_Project Contract/CertRegistry.sol\":3086:3093  records */\n      0x01\n        /* \"SIH_Project Contract/CertRegistry.sol\":3086:3108  records[_recordIdHash] */\n      0x00\n        /* \"SIH_Project Contract/CertRegistry.sol\":3094:3107  _recordIdHash */\n      dup5\n        /* \"SIH_Project Contract/CertRegistry.sol\":3086:3108  records[_recordIdHash] */\n      dup2\n      mstore\n      0x20\n      add\n      swap1\n      dup2\n      mstore\n      0x20\n      add\n      0x00\n      keccak256\n        /* \"SIH_Project Contract/CertRegistry.sol\":3086:3273  records[_recordIdHash] = Record({... */\n      0x00\n      dup3\n      add\n      mload\n      dup2\n      0x00\n      add\n      exp(0x0100, 0x00)\n      dup2\n      sload\n      dup2\n      0xffffffffffffffffffffffffffffffffffffffff\n      mul\n      not\n      and\n      swap1\n      dup4\n      0xffffffffffffffffffffffffffffffffffffffff\n      and\n      mul\n      or\n      swap1\n      sstore\n      pop\n      0x20\n      dup3\n      add\n      mload\n      dup2\n      0x01\n      add\n      sstore\n      0x40\n      dup3\n      add\n      mload\n      dup2\n      0x02\n      add\n      sstore\n      0x60\n      dup3\n      add\n      mload\n      dup2\n      0x03\n      add\n      exp(0x0100, 0x00)\n      dup2\n      sload\n      dup2\n      0xff\n      mul\n      not\n      and\n      swap1\n      dup4\n      iszero\n      iszero\n      mul\n      or\n      swap1\n      sstore\n      pop\n      swap1\n      pop\n      pop\n        /* \"SIH_Project Contract/CertRegistry.sol\":3319:3329  msg.sender */\n      caller\n        /* \"SIH_Project Contract/CertRegistry.sol\":3291:3358  RecordIssued(_recordIdHash, msg.sender, _fileHash, block.timestamp) */\n      0xffffffffffffffffffffffffffffffffffffffff\n      and\n        /* \"SIH_Project Contract/CertRegistry.sol\":3304:3317  _recordIdHash */\n      dup3\n        /* \"SIH_Project Contract/CertRegistry.sol\":3291:3358  RecordIssued(_recordIdHash, msg.sender, _fileHash, block.timestamp) */\n      0x9f98e4a6a613f74715f54d5326cf01190330375c17b05ecd29e22646ba8b14c3\n        /* \"SIH_Project Contract/CertRegistry.sol\":3331:3340  _fileHash */\n      dup4\n        /* \"SIH_Project Contract/CertRegistry.sol\":3342:3357  block.timestamp */\n      timestamp\n        /* \"SIH_Project Contract/CertRegistry.sol\":3291:3358  RecordIssued(_recordIdHash, msg.sender, _fileHash, block.timestamp) */\n      mload(0x40)\n      tag_121\n      swap3\n      swap2\n      swap1\n      tag_122\n      jump\t// in\n    tag_121:\n      mload(0x40)\n      dup1\n      swap2\n      sub\n      swap1\n      log3\n        /* \"SIH_Project Contract/CertRegistry.sol\":2662:3366  function issueRecord(... */\n      pop\n      pop\n      jump\t// out\n        /* \"SIH_Project Contract/CertRegistry.sol\":2202:2333  function addDepartment(address department) external onlyRole(ADMIN_ROLE) {... */\n    tag_57:\n        /* \"SIH_Project Contract/CertRegistry.sol\":475:498  keccak256(\"ADMIN_ROLE\") */\n      0xa49807205ce4d355092ef5a8a18f56e8913cf4a201fbe287825b095693c21775\n        /* \"@openzeppelin/contracts/access/AccessControl.sol\":2473:2489  _checkRole(role) */\n      tag_124\n        /* \"@openzeppelin/contracts/access/AccessControl.sol\":2484:2488  role */\n      dup2\n        /* \"@openzeppelin/contracts/access/AccessControl.sol\":2473:2483  _checkRole */\n      tag_97\n        /* \"@openzeppelin/contracts/access/AccessControl.sol\":2473:2489  _checkRole(role) */\n      jump\t// in\n    tag_124:\n        /* \"SIH_Project Contract/CertRegistry.sol\":2286:2325  _grantRole(DEPARTMENT_ROLE, department) */\n      tag_126\n        /* \"SIH_Project Contract/CertRegistry.sol\":764:792  keccak256(\"DEPARTMENT_ROLE\") */\n      0xe7837d04f36ce0b2f3cc662bf1b2b632a7fbd12ae95199e8bd3dcfbcc440b66b\n        /* \"SIH_Project Contract/CertRegistry.sol\":2314:2324  department */\n      dup4\n        /* \"SIH_Project Contract/CertRegistry.sol\":2286:2296  _grantRole */\n      tag_100\n        /* \"SIH_Project Contract/CertRegistry.sol\":2286:2325  _grantRole(DEPARTMENT_ROLE, department) */\n      jump\t// in\n    tag_126:\n      pop\n        /* \"SIH_Project Contract/CertRegistry.sol\":2202:2333  function addDepartment(address department) external onlyRole(ADMIN_ROLE) {... */\n      pop\n      pop\n      jump\t// out\n        /* \"SIH_Project Contract/CertRegistry.sol\":3664:4177  function issueInstitutionalRecord(... */\n    tag_60:\n        /* \"SIH_Project Contract/CertRegistry.sol\":475:498  keccak256(\"ADMIN_ROLE\") */\n      0xa49807205ce4d355092ef5a8a18f56e8913cf4a201fbe287825b095693c21775\n        /* \"@openzeppelin/contracts/access/AccessControl.sol\":2473:2489  _checkRole(role) */\n      tag_128\n        /* \"@openzeppelin/contracts/access/AccessControl.sol\":2484:2488  role */\n      dup2\n        /* \"@openzeppelin/contracts/access/AccessControl.sol\":2473:2483  _checkRole */\n      tag_97\n        /* \"@openzeppelin/contracts/access/AccessControl.sol\":2473:2489  _checkRole(role) */\n      jump\t// in\n    tag_128:\n        /* \"SIH_Project Contract/CertRegistry.sol\":3849:3850  0 */\n      0x00\n        /* \"SIH_Project Contract/CertRegistry.sol\":3814:3821  records */\n      0x01\n        /* \"SIH_Project Contract/CertRegistry.sol\":3814:3836  records[_recordIdHash] */\n      0x00\n        /* \"SIH_Project Contract/CertRegistry.sol\":3822:3835  _recordIdHash */\n      dup6\n        /* \"SIH_Project Contract/CertRegistry.sol\":3814:3836  records[_recordIdHash] */\n      dup2\n      mstore\n      0x20\n      add\n      swap1\n      dup2\n      mstore\n      0x20\n      add\n      0x00\n      keccak256\n        /* \"SIH_Project Contract/CertRegistry.sol\":3814:3845  records[_recordIdHash].issuedAt */\n      0x02\n      add\n      sload\n        /* \"SIH_Project Contract/CertRegistry.sol\":3814:3850  records[_recordIdHash].issuedAt == 0 */\n      eq\n        /* \"SIH_Project Contract/CertRegistry.sol\":3806:3876  require(records[_recordIdHash].issuedAt == 0, \"Record already exists\") */\n      tag_130\n      jumpi\n      mload(0x40)\n      0x08c379a000000000000000000000000000000000000000000000000000000000\n      dup2\n      mstore\n      0x04\n      add\n      tag_131\n      swap1\n      tag_120\n      jump\t// in\n    tag_131:\n      mload(0x40)\n      dup1\n      swap2\n      sub\n      swap1\n      revert\n    tag_130:\n        /* \"SIH_Project Contract/CertRegistry.sol\":3914:4076  Record({... */\n      mload(0x40)\n      dup1\n      0x80\n      add\n      0x40\n      mstore\n      dup1\n        /* \"SIH_Project Contract/CertRegistry.sol\":3951:3961  msg.sender */\n      caller\n        /* \"SIH_Project Contract/CertRegistry.sol\":3914:4076  Record({... */\n      0xffffffffffffffffffffffffffffffffffffffff\n      and\n      dup2\n      mstore\n      0x20\n      add\n        /* \"SIH_Project Contract/CertRegistry.sol\":3986:3995  _fileHash */\n      dup4\n        /* \"SIH_Project Contract/CertRegistry.sol\":3914:4076  Record({... */\n      dup2\n      mstore\n      0x20\n      add\n        /* \"SIH_Project Contract/CertRegistry.sol\":4020:4035  block.timestamp */\n      timestamp\n        /* \"SIH_Project Contract/CertRegistry.sol\":3914:4076  Record({... */\n      dup2\n      mstore\n      0x20\n      add\n        /* \"SIH_Project Contract/CertRegistry.sol\":4059:4064  false */\n      0x00\n        /* \"SIH_Project Contract/CertRegistry.sol\":3914:4076  Record({... */\n      iszero\n      iszero\n      dup2\n      mstore\n      pop\n        /* \"SIH_Project Contract/CertRegistry.sol\":3889:3896  records */\n      0x01\n        /* \"SIH_Project Contract/CertRegistry.sol\":3889:3911  records[_recordIdHash] */\n      0x00\n        /* \"SIH_Project Contract/CertRegistry.sol\":3897:3910  _recordIdHash */\n      dup6\n        /* \"SIH_Project Contract/CertRegistry.sol\":3889:3911  records[_recordIdHash] */\n      dup2\n      mstore\n      0x20\n      add\n      swap1\n      dup2\n      mstore\n      0x20\n      add\n      0x00\n      keccak256\n        /* \"SIH_Project Contract/CertRegistry.sol\":3889:4076  records[_recordIdHash] = Record({... */\n      0x00\n      dup3\n      add\n      mload\n      dup2\n      0x00\n      add\n      exp(0x0100, 0x00)\n      dup2\n      sload\n      dup2\n      0xffffffffffffffffffffffffffffffffffffffff\n      mul\n      not\n      and\n      swap1\n      dup4\n      0xffffffffffffffffffffffffffffffffffffffff\n      and\n      mul\n      or\n      swap1\n      sstore\n      pop\n      0x20\n      dup3\n      add\n      mload\n      dup2\n      0x01\n      add\n      sstore\n      0x40\n      dup3\n      add\n      mload\n      dup2\n      0x02\n      add\n      sstore\n      0x60\n      dup3\n      add\n      mload\n      dup2\n      0x03\n      add\n      exp(0x0100, 0x00)\n      dup2\n      sload\n      dup2\n      0xff\n      mul\n      not\n      and\n      swap1\n      dup4\n      iszero\n      iszero\n      mul\n      or\n      swap1\n      sstore\n      pop\n      swap1\n      pop\n      pop\n        /* \"SIH_Project Contract/CertRegistry.sol\":4130:4140  msg.sender */\n      caller\n        /* \"SIH_Project Contract/CertRegistry.sol\":4102:4169  RecordIssued(_recordIdHash, msg.sender, _fileHash, block.timestamp) */\n      0xffffffffffffffffffffffffffffffffffffffff\n      and\n        /* \"SIH_Project Contract/CertRegistry.sol\":4115:4128  _recordIdHash */\n      dup4\n        /* \"SIH_Project Contract/CertRegistry.sol\":4102:4169  RecordIssued(_recordIdHash, msg.sender, _fileHash, block.timestamp) */\n      0x9f98e4a6a613f74715f54d5326cf01190330375c17b05ecd29e22646ba8b14c3\n        /* \"SIH_Project Contract/CertRegistry.sol\":4142:4151  _fileHash */\n      dup5\n        /* \"SIH_Project Contract/CertRegistry.sol\":4153:4168  block.timestamp */\n      timestamp\n        /* \"SIH_Project Contract/CertRegistry.sol\":4102:4169  RecordIssued(_recordIdHash, msg.sender, _fileHash, block.timestamp) */\n      mload(0x40)\n      tag_132\n      swap3\n      swap2\n      swap1\n      tag_122\n      jump\t// in\n    tag_132:\n      mload(0x40)\n      dup1\n      swap2\n      sub\n      swap1\n      log3\n        /* \"SIH_Project Contract/CertRegistry.sol\":3664:4177  function issueInstitutionalRecord(... */\n      pop\n      pop\n      pop\n      jump\t// out\n        /* \"SIH_Project Contract/CertRegistry.sol\":560:624  bytes32 public constant FACULTY_ROLE = keccak256(\"FACULTY_ROLE\") */\n    tag_62:\n        /* \"SIH_Project Contract/CertRegistry.sol\":599:624  keccak256(\"FACULTY_ROLE\") */\n      0xf3f9cfff7b46f415da5a492b1718971da203f87c6aae9299e7b408eb83ef8bee\n        /* \"SIH_Project Contract/CertRegistry.sol\":560:624  bytes32 public constant FACULTY_ROLE = keccak256(\"FACULTY_ROLE\") */\n      dup2\n      jump\t// out\n        /* \"SIH_Project Contract/CertRegistry.sol\":438:498  bytes32 public constant ADMIN_ROLE = keccak256(\"ADMIN_ROLE\") */\n    tag_65:\n        /* \"SIH_Project Contract/CertRegistry.sol\":475:498  keccak256(\"ADMIN_ROLE\") */\n      0xa49807205ce4d355092ef5a8a18f56e8913cf4a201fbe287825b095693c21775\n        /* \"SIH_Project Contract/CertRegistry.sol\":438:498  bytes32 public constant ADMIN_ROLE = keccak256(\"ADMIN_ROLE\") */\n      dup2\n      jump\t// out\n        /* \"@openzeppelin/contracts/access/AccessControl.sol\":2830:2966  function hasRole(bytes32 role, address account) public view virtual returns (bool) {... */\n    tag_69:\n        /* \"@openzeppelin/contracts/access/AccessControl.sol\":2907:2911  bool */\n      0x00\n        /* \"@openzeppelin/contracts/access/AccessControl.sol\":2930:2936  _roles */\n      dup1\n        /* \"@openzeppelin/contracts/access/AccessControl.sol\":2930:2942  _roles[role] */\n      0x00\n        /* \"@openzeppelin/contracts/access/AccessControl.sol\":2937:2941  role */\n      dup5\n        /* \"@openzeppelin/contracts/access/AccessControl.sol\":2930:2942  _roles[role] */\n      dup2\n      mstore\n      0x20\n      add\n      swap1\n      dup2\n      mstore\n      0x20\n      add\n      0x00\n      keccak256\n        /* \"@openzeppelin/contracts/access/AccessControl.sol\":2930:2950  _roles[role].hasRole */\n      0x00\n      add\n        /* \"@openzeppelin/contracts/access/AccessControl.sol\":2930:2959  _roles[role].hasRole[account] */\n      0x00\n        /* \"@openzeppelin/contracts/access/AccessControl.sol\":2951:2958  account */\n      dup4\n        /* \"@openzeppelin/contracts/access/AccessControl.sol\":2930:2959  _roles[role].hasRole[account] */\n      0xffffffffffffffffffffffffffffffffffffffff\n      and\n      0xffffffffffffffffffffffffffffffffffffffff\n      and\n      dup2\n      mstore\n      0x20\n      add\n      swap1\n      dup2\n      mstore\n      0x20\n      add\n      0x00\n      keccak256\n      0x00\n      swap1\n      sload\n      swap1\n      0x0100\n      exp\n      swap1\n      div\n      0xff\n      and\n        /* \"@openzeppelin/contracts/access/AccessControl.sol\":2923:2959  return _roles[role].hasRole[account] */\n      swap1\n      pop\n        /* \"@openzeppelin/contracts/access/AccessControl.sol\":2830:2966  function hasRole(bytes32 role, address account) public view virtual returns (bool) {... */\n      swap3\n      swap2\n      pop\n      pop\n      jump\t// out\n        /* \"SIH_Project Contract/CertRegistry.sol\":722:792  bytes32 public constant DEPARTMENT_ROLE = keccak256(\"DEPARTMENT_ROLE\") */\n    tag_72:\n        /* \"SIH_Project Contract/CertRegistry.sol\":764:792  keccak256(\"DEPARTMENT_ROLE\") */\n      0xe7837d04f36ce0b2f3cc662bf1b2b632a7fbd12ae95199e8bd3dcfbcc440b66b\n        /* \"SIH_Project Contract/CertRegistry.sol\":722:792  bytes32 public constant DEPARTMENT_ROLE = keccak256(\"DEPARTMENT_ROLE\") */\n      dup2\n      jump\t// out\n        /* \"@openzeppelin/contracts/access/AccessControl.sol\":2196:2245  bytes32 public constant DEFAULT_ADMIN_ROLE = 0x00 */\n    tag_75:\n        /* \"@openzeppelin/contracts/access/AccessControl.sol\":2241:2245  0x00 */\n      0x00\n        /* \"@openzeppelin/contracts/access/AccessControl.sol\":2196:2245  bytes32 public constant DEFAULT_ADMIN_ROLE = 0x00 */\n      dup1\n      shl\n      dup2\n      jump\t// out\n        /* \"SIH_Project Contract/CertRegistry.sol\":4396:4924  function revokeRecord(bytes32 _recordIdHash) external {... */\n    tag_79:\n        /* \"SIH_Project Contract/CertRegistry.sol\":4461:4477  Record storage r */\n      0x00\n        /* \"SIH_Project Contract/CertRegistry.sol\":4480:4487  records */\n      0x01\n        /* \"SIH_Project Contract/CertRegistry.sol\":4480:4502  records[_recordIdHash] */\n      0x00\n        /* \"SIH_Project Contract/CertRegistry.sol\":4488:4501  _recordIdHash */\n      dup4\n        /* \"SIH_Project Contract/CertRegistry.sol\":4480:4502  records[_recordIdHash] */\n      dup2\n      mstore\n      0x20\n      add\n      swap1\n      dup2\n      mstore\n      0x20\n      add\n      0x00\n      keccak256\n        /* \"SIH_Project Contract/CertRegistry.sol\":4461:4502  Record storage r = records[_recordIdHash] */\n      swap1\n      pop\n        /* \"SIH_Project Contract/CertRegistry.sol\":4535:4536  0 */\n      0x00\n        /* \"SIH_Project Contract/CertRegistry.sol\":4521:4522  r */\n      dup2\n        /* \"SIH_Project Contract/CertRegistry.sol\":4521:4531  r.issuedAt */\n      0x02\n      add\n      sload\n        /* \"SIH_Project Contract/CertRegistry.sol\":4521:4536  r.issuedAt != 0 */\n      sub\n        /* \"SIH_Project Contract/CertRegistry.sol\":4513:4562  require(r.issuedAt != 0, \"Record does not exist\") */\n      tag_135\n      jumpi\n      mload(0x40)\n      0x08c379a000000000000000000000000000000000000000000000000000000000\n      dup2\n      mstore\n      0x04\n      add\n      tag_136\n      swap1\n      tag_137\n      jump\t// in\n    tag_136:\n      mload(0x40)\n      dup1\n      swap2\n      sub\n      swap1\n      revert\n    tag_135:\n        /* \"SIH_Project Contract/CertRegistry.sol\":4646:4677  hasRole(ADMIN_ROLE, msg.sender) */\n      tag_138\n        /* \"SIH_Project Contract/CertRegistry.sol\":475:498  keccak256(\"ADMIN_ROLE\") */\n      0xa49807205ce4d355092ef5a8a18f56e8913cf4a201fbe287825b095693c21775\n        /* \"SIH_Project Contract/CertRegistry.sol\":4666:4676  msg.sender */\n      caller\n        /* \"SIH_Project Contract/CertRegistry.sol\":4646:4653  hasRole */\n      tag_69\n        /* \"SIH_Project Contract/CertRegistry.sol\":4646:4677  hasRole(ADMIN_ROLE, msg.sender) */\n      jump\t// in\n    tag_138:\n        /* \"SIH_Project Contract/CertRegistry.sol\":4646:4712  hasRole(ADMIN_ROLE, msg.sender) || (r.issuerAddress == msg.sender) */\n      dup1\n      tag_139\n      jumpi\n      pop\n        /* \"SIH_Project Contract/CertRegistry.sol\":4701:4711  msg.sender */\n      caller\n        /* \"SIH_Project Contract/CertRegistry.sol\":4682:4711  r.issuerAddress == msg.sender */\n      0xffffffffffffffffffffffffffffffffffffffff\n      and\n        /* \"SIH_Project Contract/CertRegistry.sol\":4682:4683  r */\n      dup2\n        /* \"SIH_Project Contract/CertRegistry.sol\":4682:4697  r.issuerAddress */\n      0x00\n      add\n      0x00\n      swap1\n      sload\n      swap1\n      0x0100\n      exp\n      swap1\n      div\n      0xffffffffffffffffffffffffffffffffffffffff\n      and\n        /* \"SIH_Project Contract/CertRegistry.sol\":4682:4711  r.issuerAddress == msg.sender */\n      0xffffffffffffffffffffffffffffffffffffffff\n      and\n      eq\n        /* \"SIH_Project Contract/CertRegistry.sol\":4646:4712  hasRole(ADMIN_ROLE, msg.sender) || (r.issuerAddress == msg.sender) */\n    tag_139:\n        /* \"SIH_Project Contract/CertRegistry.sol\":4638:4755  require(hasRole(ADMIN_ROLE, msg.sender) || (r.issuerAddress == msg.sender), ... */\n      tag_140\n      jumpi\n      mload(0x40)\n      0x08c379a000000000000000000000000000000000000000000000000000000000\n      dup2\n      mstore\n      0x04\n      add\n      tag_141\n      swap1\n      tag_142\n      jump\t// in\n    tag_141:\n      mload(0x40)\n      dup1\n      swap2\n      sub\n      swap1\n      revert\n    tag_140:\n        /* \"SIH_Project Contract/CertRegistry.sol\":4775:4776  r */\n      dup1\n        /* \"SIH_Project Contract/CertRegistry.sol\":4775:4784  r.revoked */\n      0x03\n      add\n      0x00\n      swap1\n      sload\n      swap1\n      0x0100\n      exp\n      swap1\n      div\n      0xff\n      and\n        /* \"SIH_Project Contract/CertRegistry.sol\":4774:4784  !r.revoked */\n      iszero\n        /* \"SIH_Project Contract/CertRegistry.sol\":4766:4814  require(!r.revoked, \"Record is already revoked\") */\n      tag_143\n      jumpi\n      mload(0x40)\n      0x08c379a000000000000000000000000000000000000000000000000000000000\n      dup2\n      mstore\n      0x04\n      add\n      tag_144\n      swap1\n      tag_145\n      jump\t// in\n    tag_144:\n      mload(0x40)\n      dup1\n      swap2\n      sub\n      swap1\n      revert\n    tag_143:\n        /* \"SIH_Project Contract/CertRegistry.sol\":4839:4843  true */\n      0x01\n        /* \"SIH_Project Contract/CertRegistry.sol\":4827:4828  r */\n      dup2\n        /* \"SIH_Project Contract/CertRegistry.sol\":4827:4836  r.revoked */\n      0x03\n      add\n      0x00\n        /* \"SIH_Project Contract/CertRegistry.sol\":4827:4843  r.revoked = true */\n      0x0100\n      exp\n      dup2\n      sload\n      dup2\n      0xff\n      mul\n      not\n      and\n      swap1\n      dup4\n      iszero\n      iszero\n      mul\n      or\n      swap1\n      sstore\n      pop\n        /* \"SIH_Project Contract/CertRegistry.sol\":4888:4898  msg.sender */\n      caller\n        /* \"SIH_Project Contract/CertRegistry.sol\":4859:4916  RecordRevoked(_recordIdHash, msg.sender, block.timestamp) */\n      0xffffffffffffffffffffffffffffffffffffffff\n      and\n        /* \"SIH_Project Contract/CertRegistry.sol\":4873:4886  _recordIdHash */\n      dup3\n        /* \"SIH_Project Contract/CertRegistry.sol\":4859:4916  RecordRevoked(_recordIdHash, msg.sender, block.timestamp) */\n      0xab038451d440a6c29bbaaae9f567b253be209b045b7b76daffaa0a4b38f784a0\n        /* \"SIH_Project Contract/CertRegistry.sol\":4900:4915  block.timestamp */\n      timestamp\n        /* \"SIH_Project Contract/CertRegistry.sol\":4859:4916  RecordRevoked(_recordIdHash, msg.sender, block.timestamp) */\n      mload(0x40)\n      tag_146\n      swap2\n      swap1\n      tag_147\n      jump\t// in\n    tag_146:\n      mload(0x40)\n      dup1\n      swap2\n      sub\n      swap1\n      log3\n        /* \"SIH_Project Contract/CertRegistry.sol\":4450:4924  {... */\n      pop\n        /* \"SIH_Project Contract/CertRegistry.sol\":4396:4924  function revokeRecord(bytes32 _recordIdHash) external {... */\n      pop\n      jump\t// out\n        /* \"@openzeppelin/contracts/access/AccessControl.sol\":4618:4756  function revokeRole(bytes32 role, address account) public virtual onlyRole(getRoleAdmin(role)) {... */\n    tag_82:\n        /* \"@openzeppelin/contracts/access/AccessControl.sol\":4693:4711  getRoleAdmin(role) */\n      tag_148\n        /* \"@openzeppelin/contracts/access/AccessControl.sol\":4706:4710  role */\n      dup3\n        /* \"@openzeppelin/contracts/access/AccessControl.sol\":4693:4705  getRoleAdmin */\n      tag_37\n        /* \"@openzeppelin/contracts/access/AccessControl.sol\":4693:4711  getRoleAdmin(role) */\n      jump\t// in\n    tag_148:\n        /* \"@openzeppelin/contracts/access/AccessControl.sol\":2473:2489  _checkRole(role) */\n      tag_150\n        /* \"@openzeppelin/contracts/access/AccessControl.sol\":2484:2488  role */\n      dup2\n        /* \"@openzeppelin/contracts/access/AccessControl.sol\":2473:2483  _checkRole */\n      tag_97\n        /* \"@openzeppelin/contracts/access/AccessControl.sol\":2473:2489  _checkRole(role) */\n      jump\t// in\n    tag_150:\n        /* \"@openzeppelin/contracts/access/AccessControl.sol\":4723:4749  _revokeRole(role, account) */\n      tag_152\n        /* \"@openzeppelin/contracts/access/AccessControl.sol\":4735:4739  role */\n      dup4\n        /* \"@openzeppelin/contracts/access/AccessControl.sol\":4741:4748  account */\n      dup4\n        /* \"@openzeppelin/contracts/access/AccessControl.sol\":4723:4734  _revokeRole */\n      tag_106\n        /* \"@openzeppelin/contracts/access/AccessControl.sol\":4723:4749  _revokeRole(role, account) */\n      jump\t// in\n    tag_152:\n      pop\n        /* \"@openzeppelin/contracts/access/AccessControl.sol\":4618:4756  function revokeRole(bytes32 role, address account) public virtual onlyRole(getRoleAdmin(role)) {... */\n      pop\n      pop\n      pop\n      jump\t// out\n        /* \"SIH_Project Contract/CertRegistry.sol\":5632:5907  function verifyRecord(bytes32 _recordIdHash, bytes32 _fileHash) external view returns (bool, bool) {... */\n    tag_85:\n        /* \"SIH_Project Contract/CertRegistry.sol\":5719:5723  bool */\n      0x00\n        /* \"SIH_Project Contract/CertRegistry.sol\":5725:5729  bool */\n      dup1\n        /* \"SIH_Project Contract/CertRegistry.sol\":5742:5758  Record storage r */\n      0x00\n        /* \"SIH_Project Contract/CertRegistry.sol\":5761:5768  records */\n      0x01\n        /* \"SIH_Project Contract/CertRegistry.sol\":5761:5783  records[_recordIdHash] */\n      0x00\n        /* \"SIH_Project Contract/CertRegistry.sol\":5769:5782  _recordIdHash */\n      dup7\n        /* \"SIH_Project Contract/CertRegistry.sol\":5761:5783  records[_recordIdHash] */\n      dup2\n      mstore\n      0x20\n      add\n      swap1\n      dup2\n      mstore\n      0x20\n      add\n      0x00\n      keccak256\n        /* \"SIH_Project Contract/CertRegistry.sol\":5742:5783  Record storage r = records[_recordIdHash] */\n      swap1\n      pop\n        /* \"SIH_Project Contract/CertRegistry.sol\":5794:5810  bool isAuthentic */\n      0x00\n        /* \"SIH_Project Contract/CertRegistry.sol\":5828:5829  0 */\n      dup1\n        /* \"SIH_Project Contract/CertRegistry.sol\":5814:5815  r */\n      dup3\n        /* \"SIH_Project Contract/CertRegistry.sol\":5814:5824  r.issuedAt */\n      0x02\n      add\n      sload\n        /* \"SIH_Project Contract/CertRegistry.sol\":5814:5829  r.issuedAt != 0 */\n      eq\n      iszero\n        /* \"SIH_Project Contract/CertRegistry.sol\":5814:5856  r.issuedAt != 0 && r.fileHash == _fileHash */\n      dup1\n      iszero\n      tag_154\n      jumpi\n      pop\n        /* \"SIH_Project Contract/CertRegistry.sol\":5847:5856  _fileHash */\n      dup5\n        /* \"SIH_Project Contract/CertRegistry.sol\":5833:5834  r */\n      dup3\n        /* \"SIH_Project Contract/CertRegistry.sol\":5833:5843  r.fileHash */\n      0x01\n      add\n      sload\n        /* \"SIH_Project Contract/CertRegistry.sol\":5833:5856  r.fileHash == _fileHash */\n      eq\n        /* \"SIH_Project Contract/CertRegistry.sol\":5814:5856  r.issuedAt != 0 && r.fileHash == _fileHash */\n    tag_154:\n        /* \"SIH_Project Contract/CertRegistry.sol\":5794:5857  bool isAuthentic = (r.issuedAt != 0 && r.fileHash == _fileHash) */\n      swap1\n      pop\n        /* \"SIH_Project Contract/CertRegistry.sol\":5876:5887  isAuthentic */\n      dup1\n        /* \"SIH_Project Contract/CertRegistry.sol\":5889:5890  r */\n      dup3\n        /* \"SIH_Project Contract/CertRegistry.sol\":5889:5898  r.revoked */\n      0x03\n      add\n      0x00\n      swap1\n      sload\n      swap1\n      0x0100\n      exp\n      swap1\n      div\n      0xff\n      and\n        /* \"SIH_Project Contract/CertRegistry.sol\":5868:5899  return (isAuthentic, r.revoked) */\n      swap4\n      pop\n      swap4\n      pop\n      pop\n      pop\n        /* \"SIH_Project Contract/CertRegistry.sol\":5632:5907  function verifyRecord(bytes32 _recordIdHash, bytes32 _fileHash) external view returns (bool, bool) {... */\n      swap3\n      pop\n      swap3\n      swap1\n      pop\n      jump\t// out\n        /* \"@openzeppelin/contracts/utils/introspection/ERC165.sol\":730:876  function supportsInterface(bytes4 interfaceId) public view virtual returns (bool) {... */\n    tag_91:\n        /* \"@openzeppelin/contracts/utils/introspection/ERC165.sol\":806:810  bool */\n      0x00\n        /* \"@openzeppelin/contracts/utils/introspection/ERC165.sol\":844:869  type(IERC165).interfaceId */\n      0x01ffc9a700000000000000000000000000000000000000000000000000000000\n        /* \"@openzeppelin/contracts/utils/introspection/ERC165.sol\":829:869  interfaceId == type(IERC165).interfaceId */\n      not(0xffffffffffffffffffffffffffffffffffffffffffffffffffffffff)\n      and\n        /* \"@openzeppelin/contracts/utils/introspection/ERC165.sol\":829:840  interfaceId */\n      dup3\n        /* \"@openzeppelin/contracts/utils/introspection/ERC165.sol\":829:869  interfaceId == type(IERC165).interfaceId */\n      not(0xffffffffffffffffffffffffffffffffffffffffffffffffffffffff)\n      and\n      eq\n        /* \"@openzeppelin/contracts/utils/introspection/ERC165.sol\":822:869  return interfaceId == type(IERC165).interfaceId */\n      swap1\n      pop\n        /* \"@openzeppelin/contracts/utils/introspection/ERC165.sol\":730:876  function supportsInterface(bytes4 interfaceId) public view virtual returns (bool) {... */\n      swap2\n      swap1\n      pop\n      jump\t// out\n        /* \"@openzeppelin/contracts/access/AccessControl.sol\":3175:3278  function _checkRole(bytes32 role) internal view virtual {... */\n    tag_97:\n        /* \"@openzeppelin/contracts/access/AccessControl.sol\":3241:3271  _checkRole(role, _msgSender()) */\n      tag_157\n        /* \"@openzeppelin/contracts/access/AccessControl.sol\":3252:3256  role */\n      dup2\n        /* \"@openzeppelin/contracts/access/AccessControl.sol\":3258:3270  _msgSender() */\n      tag_158\n        /* \"@openzeppelin/contracts/access/AccessControl.sol\":3258:3268  _msgSender */\n      tag_103\n        /* \"@openzeppelin/contracts/access/AccessControl.sol\":3258:3270  _msgSender() */\n      jump\t// in\n    tag_158:\n        /* \"@openzeppelin/contracts/access/AccessControl.sol\":3241:3251  _checkRole */\n      tag_159\n        /* \"@openzeppelin/contracts/access/AccessControl.sol\":3241:3271  _checkRole(role, _msgSender()) */\n      jump\t// in\n    tag_157:\n        /* \"@openzeppelin/contracts/access/AccessControl.sol\":3175:3278  function _checkRole(bytes32 role) internal view virtual {... */\n      pop\n      jump\t// out\n        /* \"@openzeppelin/contracts/access/AccessControl.sol\":6155:6471  function _grantRole(bytes32 role, address account) internal virtual returns (bool) {... */\n    tag_100:\n        /* \"@openzeppelin/contracts/access/AccessControl.sol\":6232:6236  bool */\n      0x00\n        /* \"@openzeppelin/contracts/access/AccessControl.sol\":6253:6275  hasRole(role, account) */\n      tag_161\n        /* \"@openzeppelin/contracts/access/AccessControl.sol\":6261:6265  role */\n      dup4\n        /* \"@openzeppelin/contracts/access/AccessControl.sol\":6267:6274  account */\n      dup4\n        /* \"@openzeppelin/contracts/access/AccessControl.sol\":6253:6260  hasRole */\n      tag_69\n        /* \"@openzeppelin/contracts/access/AccessControl.sol\":6253:6275  hasRole(role, account) */\n      jump\t// in\n    tag_161:\n        /* \"@openzeppelin/contracts/access/AccessControl.sol\":6248:6465  if (!hasRole(role, account)) {... */\n      tag_162\n      jumpi\n        /* \"@openzeppelin/contracts/access/AccessControl.sol\":6323:6327  true */\n      0x01\n        /* \"@openzeppelin/contracts/access/AccessControl.sol\":6291:6297  _roles */\n      0x00\n        /* \"@openzeppelin/contracts/access/AccessControl.sol\":6291:6303  _roles[role] */\n      dup1\n        /* \"@openzeppelin/contracts/access/AccessControl.sol\":6298:6302  role */\n      dup6\n        /* \"@openzeppelin/contracts/access/AccessControl.sol\":6291:6303  _roles[role] */\n      dup2\n      mstore\n      0x20\n      add\n      swap1\n      dup2\n      mstore\n      0x20\n      add\n      0x00\n      keccak256\n        /* \"@openzeppelin/contracts/access/AccessControl.sol\":6291:6311  _roles[role].hasRole */\n      0x00\n      add\n        /* \"@openzeppelin/contracts/access/AccessControl.sol\":6291:6320  _roles[role].hasRole[account] */\n      0x00\n        /* \"@openzeppelin/contracts/access/AccessControl.sol\":6312:6319  account */\n      dup5\n        /* \"@openzeppelin/contracts/access/AccessControl.sol\":6291:6320  _roles[role].hasRole[account] */\n      0xffffffffffffffffffffffffffffffffffffffff\n      and\n      0xffffffffffffffffffffffffffffffffffffffff\n      and\n      dup2\n      mstore\n      0x20\n      add\n      swap1\n      dup2\n      mstore\n      0x20\n      add\n      0x00\n      keccak256\n      0x00\n        /* \"@openzeppelin/contracts/access/AccessControl.sol\":6291:6327  _roles[role].hasRole[account] = true */\n      0x0100\n      exp\n      dup2\n      sload\n      dup2\n      0xff\n      mul\n      not\n      and\n      swap1\n      dup4\n      iszero\n      iszero\n      mul\n      or\n      swap1\n      sstore\n      pop\n        /* \"@openzeppelin/contracts/access/AccessControl.sol\":6373:6385  _msgSender() */\n      tag_163\n        /* \"@openzeppelin/contracts/access/AccessControl.sol\":6373:6383  _msgSender */\n      tag_103\n        /* \"@openzeppelin/contracts/access/AccessControl.sol\":6373:6385  _msgSender() */\n      jump\t// in\n    tag_163:\n        /* \"@openzeppelin/contracts/access/AccessControl.sol\":6346:6386  RoleGranted(role, account, _msgSender()) */\n      0xffffffffffffffffffffffffffffffffffffffff\n      and\n        /* \"@openzeppelin/contracts/access/AccessControl.sol\":6364:6371  account */\n      dup3\n        /* \"@openzeppelin/contracts/access/AccessControl.sol\":6346:6386  RoleGranted(role, account, _msgSender()) */\n      0xffffffffffffffffffffffffffffffffffffffff\n      and\n        /* \"@openzeppelin/contracts/access/AccessControl.sol\":6358:6362  role */\n      dup5\n        /* \"@openzeppelin/contracts/access/AccessControl.sol\":6346:6386  RoleGranted(role, account, _msgSender()) */\n      0x2f8788117e7eff1d82e926ec794901d17c78024a50270940304540a733656f0d\n      mload(0x40)\n      mload(0x40)\n      dup1\n      swap2\n      sub\n      swap1\n      log4\n        /* \"@openzeppelin/contracts/access/AccessControl.sol\":6407:6411  true */\n      0x01\n        /* \"@openzeppelin/contracts/access/AccessControl.sol\":6400:6411  return true */\n      swap1\n      pop\n      jump(tag_160)\n        /* \"@openzeppelin/contracts/access/AccessControl.sol\":6248:6465  if (!hasRole(role, account)) {... */\n    tag_162:\n        /* \"@openzeppelin/contracts/access/AccessControl.sol\":6449:6454  false */\n      0x00\n        /* \"@openzeppelin/contracts/access/AccessControl.sol\":6442:6454  return false */\n      swap1\n      pop\n        /* \"@openzeppelin/contracts/access/AccessControl.sol\":6155:6471  function _grantRole(bytes32 role, address account) internal virtual returns (bool) {... */\n    tag_160:\n      swap3\n      swap2\n      pop\n      pop\n      jump\t// out\n        /* \"@openzeppelin/contracts/utils/Context.sol\":656:752  function _msgSender() internal view virtual returns (address) {... */\n    tag_103:\n        /* \"@openzeppelin/contracts/utils/Context.sol\":709:716  address */\n      0x00\n        /* \"@openzeppelin/contracts/utils/Context.sol\":735:745  msg.sender */\n      caller\n        /* \"@openzeppelin/contracts/utils/Context.sol\":728:745  return msg.sender */\n      swap1\n      pop\n        /* \"@openzeppelin/contracts/utils/Context.sol\":656:752  function _msgSender() internal view virtual returns (address) {... */\n      swap1\n      jump\t// out\n        /* \"@openzeppelin/contracts/access/AccessControl.sol\":6708:7025  function _revokeRole(bytes32 role, address account) internal virtual returns (bool) {... */\n    tag_106:\n        /* \"@openzeppelin/contracts/access/AccessControl.sol\":6786:6790  bool */\n      0x00\n        /* \"@openzeppelin/contracts/access/AccessControl.sol\":6806:6828  hasRole(role, account) */\n      tag_167\n        /* \"@openzeppelin/contracts/access/AccessControl.sol\":6814:6818  role */\n      dup4\n        /* \"@openzeppelin/contracts/access/AccessControl.sol\":6820:6827  account */\n      dup4\n        /* \"@openzeppelin/contracts/access/AccessControl.sol\":6806:6813  hasRole */\n      tag_69\n        /* \"@openzeppelin/contracts/access/AccessControl.sol\":6806:6828  hasRole(role, account) */\n      jump\t// in\n    tag_167:\n        /* \"@openzeppelin/contracts/access/AccessControl.sol\":6802:7019  if (hasRole(role, account)) {... */\n      iszero\n      tag_168\n      jumpi\n        /* \"@openzeppelin/contracts/access/AccessControl.sol\":6876:6881  false */\n      0x00\n        /* \"@openzeppelin/contracts/access/AccessControl.sol\":6844:6850  _roles */\n      dup1\n        /* \"@openzeppelin/contracts/access/AccessControl.sol\":6844:6856  _roles[role] */\n      0x00\n        /* \"@openzeppelin/contracts/access/AccessControl.sol\":6851:6855  role */\n      dup6\n        /* \"@openzeppelin/contracts/access/AccessControl.sol\":6844:6856  _roles[role] */\n      dup2\n      mstore\n      0x20\n      add\n      swap1\n      dup2\n      mstore\n      0x20\n      add\n      0x00\n      keccak256\n        /* \"@openzeppelin/contracts/access/AccessControl.sol\":6844:6864  _roles[role].hasRole */\n      0x00\n      add\n        /* \"@openzeppelin/contracts/access/AccessControl.sol\":6844:6873  _roles[role].hasRole[account] */\n      0x00\n        /* \"@openzeppelin/contracts/access/AccessControl.sol\":6865:6872  account */\n      dup5\n        /* \"@openzeppelin/contracts/access/AccessControl.sol\":6844:6873  _roles[role].hasRole[account] */\n      0xffffffffffffffffffffffffffffffffffffffff\n      and\n      0xffffffffffffffffffffffffffffffffffffffff\n      and\n      dup2\n      mstore\n      0x20\n      add\n      swap1\n      dup2\n      mstore\n      0x20\n      add\n      0x00\n      keccak256\n      0x00\n        /* \"@openzeppelin/contracts/access/AccessControl.sol\":6844:6881  _roles[role].hasRole[account] = false */\n      0x0100\n      exp\n      dup2\n      sload\n      dup2\n      0xff\n      mul\n      not\n      and\n      swap1\n      dup4\n      iszero\n      iszero\n      mul\n      or\n      swap1\n      sstore\n      pop\n        /* \"@openzeppelin/contracts/access/AccessControl.sol\":6927:6939  _msgSender() */\n      tag_169\n        /* \"@openzeppelin/contracts/access/AccessControl.sol\":6927:6937  _msgSender */\n      tag_103\n        /* \"@openzeppelin/contracts/access/AccessControl.sol\":6927:6939  _msgSender() */\n      jump\t// in\n    tag_169:\n        /* \"@openzeppelin/contracts/access/AccessControl.sol\":6900:6940  RoleRevoked(role, account, _msgSender()) */\n      0xffffffffffffffffffffffffffffffffffffffff\n      and\n        /* \"@openzeppelin/contracts/access/AccessControl.sol\":6918:6925  account */\n      dup3\n        /* \"@openzeppelin/contracts/access/AccessControl.sol\":6900:6940  RoleRevoked(role, account, _msgSender()) */\n      0xffffffffffffffffffffffffffffffffffffffff\n      and\n        /* \"@openzeppelin/contracts/access/AccessControl.sol\":6912:6916  role */\n      dup5\n        /* \"@openzeppelin/contracts/access/AccessControl.sol\":6900:6940  RoleRevoked(role, account, _msgSender()) */\n      0xf6391f5c32d9c69d2a47ea670b442974b53935d1edc7fd64eb21e047a839171b\n      mload(0x40)\n      mload(0x40)\n      dup1\n      swap2\n      sub\n      swap1\n      log4\n        /* \"@openzeppelin/contracts/access/AccessControl.sol\":6961:6965  true */\n      0x01\n        /* \"@openzeppelin/contracts/access/AccessControl.sol\":6954:6965  return true */\n      swap1\n      pop\n      jump(tag_166)\n        /* \"@openzeppelin/contracts/access/AccessControl.sol\":6802:7019  if (hasRole(role, account)) {... */\n    tag_168:\n        /* \"@openzeppelin/contracts/access/AccessControl.sol\":7003:7008  false */\n      0x00\n        /* \"@openzeppelin/contracts/access/AccessControl.sol\":6996:7008  return false */\n      swap1\n      pop\n        /* \"@openzeppelin/contracts/access/AccessControl.sol\":6708:7025  function _revokeRole(bytes32 role, address account) internal virtual returns (bool) {... */\n    tag_166:\n      swap3\n      swap2\n      pop\n      pop\n      jump\t// out\n        /* \"@openzeppelin/contracts/access/AccessControl.sol\":3408:3605  function _checkRole(bytes32 role, address account) internal view virtual {... */\n    tag_159:\n        /* \"@openzeppelin/contracts/access/AccessControl.sol\":3496:3518  hasRole(role, account) */\n      tag_172\n        /* \"@openzeppelin/contracts/access/AccessControl.sol\":3504:3508  role */\n      dup3\n        /* \"@openzeppelin/contracts/access/AccessControl.sol\":3510:3517  account */\n      dup3\n        /* \"@openzeppelin/contracts/access/AccessControl.sol\":3496:3503  hasRole */\n      tag_69\n        /* \"@openzeppelin/contracts/access/AccessControl.sol\":3496:3518  hasRole(role, account) */\n      jump\t// in\n    tag_172:\n        /* \"@openzeppelin/contracts/access/AccessControl.sol\":3491:3599  if (!hasRole(role, account)) {... */\n      tag_173\n      jumpi\n        /* \"@openzeppelin/contracts/access/AccessControl.sol\":3574:3581  account */\n      dup1\n        /* \"@openzeppelin/contracts/access/AccessControl.sol\":3583:3587  role */\n      dup3\n        /* \"@openzeppelin/contracts/access/AccessControl.sol\":3541:3588  AccessControlUnauthorizedAccount(account, role) */\n      mload(0x40)\n      0xe2517d3f00000000000000000000000000000000000000000000000000000000\n      dup2\n      mstore\n      0x04\n      add\n      tag_174\n      swap3\n      swap2\n      swap1\n      tag_175\n      jump\t// in\n    tag_174:\n      mload(0x40)\n      dup1\n      swap2\n      sub\n      swap1\n      revert\n        /* \"@openzeppelin/contracts/access/AccessControl.sol\":3491:3599  if (!hasRole(role, account)) {... */\n    tag_173:\n        /* \"@openzeppelin/contracts/access/AccessControl.sol\":3408:3605  function _checkRole(bytes32 role, address account) internal view virtual {... */\n      pop\n      pop\n      jump\t// out\n        /* \"#utility.yul\":88:205   */\n    tag_177:\n        /* \"#utility.yul\":197:198   */\n      0x00\n        /* \"#utility.yul\":194:195   */\n      dup1\n        /* \"#utility.yul\":187:199   */\n      revert\n        /* \"#utility.yul\":334:483   */\n    tag_179:\n        /* \"#utility.yul\":370:377   */\n      0x00\n        /* \"#utility.yul\":410:476   */\n      0xffffffff00000000000000000000000000000000000000000000000000000000\n        /* \"#utility.yul\":403:408   */\n      dup3\n        /* \"#utility.yul\":399:477   */\n      and\n        /* \"#utility.yul\":388:477   */\n      swap1\n      pop\n        /* \"#utility.yul\":334:483   */\n      swap2\n      swap1\n      pop\n      jump\t// out\n        /* \"#utility.yul\":489:609   */\n    tag_180:\n        /* \"#utility.yul\":561:584   */\n      tag_212\n        /* \"#utility.yul\":578:583   */\n      dup2\n        /* \"#utility.yul\":561:584   */\n      tag_179\n      jump\t// in\n    tag_212:\n        /* \"#utility.yul\":554:559   */\n      dup2\n        /* \"#utility.yul\":551:585   */\n      eq\n        /* \"#utility.yul\":541:603   */\n      tag_213\n      jumpi\n        /* \"#utility.yul\":599:600   */\n      0x00\n        /* \"#utility.yul\":596:597   */\n      dup1\n        /* \"#utility.yul\":589:601   */\n      revert\n        /* \"#utility.yul\":541:603   */\n    tag_213:\n        /* \"#utility.yul\":489:609   */\n      pop\n      jump\t// out\n        /* \"#utility.yul\":615:752   */\n    tag_181:\n        /* \"#utility.yul\":660:665   */\n      0x00\n        /* \"#utility.yul\":698:704   */\n      dup2\n        /* \"#utility.yul\":685:705   */\n      calldataload\n        /* \"#utility.yul\":676:705   */\n      swap1\n      pop\n        /* \"#utility.yul\":714:746   */\n      tag_215\n        /* \"#utility.yul\":740:745   */\n      dup2\n        /* \"#utility.yul\":714:746   */\n      tag_180\n      jump\t// in\n    tag_215:\n        /* \"#utility.yul\":615:752   */\n      swap3\n      swap2\n      pop\n      pop\n      jump\t// out\n        /* \"#utility.yul\":758:1085   */\n    tag_25:\n        /* \"#utility.yul\":816:822   */\n      0x00\n        /* \"#utility.yul\":865:867   */\n      0x20\n        /* \"#utility.yul\":853:862   */\n      dup3\n        /* \"#utility.yul\":844:851   */\n      dup5\n        /* \"#utility.yul\":840:863   */\n      sub\n        /* \"#utility.yul\":836:868   */\n      slt\n        /* \"#utility.yul\":833:952   */\n      iszero\n      tag_217\n      jumpi\n        /* \"#utility.yul\":871:950   */\n      tag_218\n      tag_177\n      jump\t// in\n    tag_218:\n        /* \"#utility.yul\":833:952   */\n    tag_217:\n        /* \"#utility.yul\":991:992   */\n      0x00\n        /* \"#utility.yul\":1016:1068   */\n      tag_219\n        /* \"#utility.yul\":1060:1067   */\n      dup5\n        /* \"#utility.yul\":1051:1057   */\n      dup3\n        /* \"#utility.yul\":1040:1049   */\n      dup6\n        /* \"#utility.yul\":1036:1058   */\n      add\n        /* \"#utility.yul\":1016:1068   */\n      tag_181\n      jump\t// in\n    tag_219:\n        /* \"#utility.yul\":1006:1068   */\n      swap2\n      pop\n        /* \"#utility.yul\":962:1078   */\n      pop\n        /* \"#utility.yul\":758:1085   */\n      swap3\n      swap2\n      pop\n      pop\n      jump\t// out\n        /* \"#utility.yul\":1091:1181   */\n    tag_182:\n        /* \"#utility.yul\":1125:1132   */\n      0x00\n        /* \"#utility.yul\":1168:1173   */\n      dup2\n        /* \"#utility.yul\":1161:1174   */\n      iszero\n        /* \"#utility.yul\":1154:1175   */\n      iszero\n        /* \"#utility.yul\":1143:1175   */\n      swap1\n      pop\n        /* \"#utility.yul\":1091:1181   */\n      swap2\n      swap1\n      pop\n      jump\t// out\n        /* \"#utility.yul\":1187:1296   */\n    tag_183:\n        /* \"#utility.yul\":1268:1289   */\n      tag_222\n        /* \"#utility.yul\":1283:1288   */\n      dup2\n        /* \"#utility.yul\":1268:1289   */\n      tag_182\n      jump\t// in\n    tag_222:\n        /* \"#utility.yul\":1263:1266   */\n      dup3\n        /* \"#utility.yul\":1256:1290   */\n      mstore\n        /* \"#utility.yul\":1187:1296   */\n      pop\n      pop\n      jump\t// out\n        /* \"#utility.yul\":1302:1512   */\n    tag_28:\n        /* \"#utility.yul\":1389:1393   */\n      0x00\n        /* \"#utility.yul\":1427:1429   */\n      0x20\n        /* \"#utility.yul\":1416:1425   */\n      dup3\n        /* \"#utility.yul\":1412:1430   */\n      add\n        /* \"#utility.yul\":1404:1430   */\n      swap1\n      pop\n        /* \"#utility.yul\":1440:1505   */\n      tag_224\n        /* \"#utility.yul\":1502:1503   */\n      0x00\n        /* \"#utility.yul\":1491:1500   */\n      dup4\n        /* \"#utility.yul\":1487:1504   */\n      add\n        /* \"#utility.yul\":1478:1484   */\n      dup5\n        /* \"#utility.yul\":1440:1505   */\n      tag_183\n      jump\t// in\n    tag_224:\n        /* \"#utility.yul\":1302:1512   */\n      swap3\n      swap2\n      pop\n      pop\n      jump\t// out\n        /* \"#utility.yul\":1518:1595   */\n    tag_184:\n        /* \"#utility.yul\":1555:1562   */\n      0x00\n        /* \"#utility.yul\":1584:1589   */\n      dup2\n        /* \"#utility.yul\":1573:1589   */\n      swap1\n      pop\n        /* \"#utility.yul\":1518:1595   */\n      swap2\n      swap1\n      pop\n      jump\t// out\n        /* \"#utility.yul\":1601:1723   */\n    tag_185:\n        /* \"#utility.yul\":1674:1698   */\n      tag_227\n        /* \"#utility.yul\":1692:1697   */\n      dup2\n        /* \"#utility.yul\":1674:1698   */\n      tag_184\n      jump\t// in\n    tag_227:\n        /* \"#utility.yul\":1667:1672   */\n      dup2\n        /* \"#utility.yul\":1664:1699   */\n      eq\n        /* \"#utility.yul\":1654:1717   */\n      tag_228\n      jumpi\n        /* \"#utility.yul\":1713:1714   */\n      0x00\n        /* \"#utility.yul\":1710:1711   */\n      dup1\n        /* \"#utility.yul\":1703:1715   */\n      revert\n        /* \"#utility.yul\":1654:1717   */\n    tag_228:\n        /* \"#utility.yul\":1601:1723   */\n      pop\n      jump\t// out\n        /* \"#utility.yul\":1729:1868   */\n    tag_186:\n        /* \"#utility.yul\":1775:1780   */\n      0x00\n        /* \"#utility.yul\":1813:1819   */\n      dup2\n        /* \"#utility.yul\":1800:1820   */\n      calldataload\n        /* \"#utility.yul\":1791:1820   */\n      swap1\n      pop\n        /* \"#utility.yul\":1829:1862   */\n      tag_230\n        /* \"#utility.yul\":1856:1861   */\n      dup2\n        /* \"#utility.yul\":1829:1862   */\n      tag_185\n      jump\t// in\n    tag_230:\n        /* \"#utility.yul\":1729:1868   */\n      swap3\n      swap2\n      pop\n      pop\n      jump\t// out\n        /* \"#utility.yul\":1874:2203   */\n    tag_31:\n        /* \"#utility.yul\":1933:1939   */\n      0x00\n        /* \"#utility.yul\":1982:1984   */\n      0x20\n        /* \"#utility.yul\":1970:1979   */\n      dup3\n        /* \"#utility.yul\":1961:1968   */\n      dup5\n        /* \"#utility.yul\":1957:1980   */\n      sub\n        /* \"#utility.yul\":1953:1985   */\n      slt\n        /* \"#utility.yul\":1950:2069   */\n      iszero\n      tag_232\n      jumpi\n        /* \"#utility.yul\":1988:2067   */\n      tag_233\n      tag_177\n      jump\t// in\n    tag_233:\n        /* \"#utility.yul\":1950:2069   */\n    tag_232:\n        /* \"#utility.yul\":2108:2109   */\n      0x00\n        /* \"#utility.yul\":2133:2186   */\n      tag_234\n        /* \"#utility.yul\":2178:2185   */\n      dup5\n        /* \"#utility.yul\":2169:2175   */\n      dup3\n        /* \"#utility.yul\":2158:2167   */\n      dup6\n        /* \"#utility.yul\":2154:2176   */\n      add\n        /* \"#utility.yul\":2133:2186   */\n      tag_186\n      jump\t// in\n    tag_234:\n        /* \"#utility.yul\":2123:2186   */\n      swap2\n      pop\n        /* \"#utility.yul\":2079:2196   */\n      pop\n        /* \"#utility.yul\":1874:2203   */\n      swap3\n      swap2\n      pop\n      pop\n      jump\t// out\n        /* \"#utility.yul\":2209:2335   */\n    tag_187:\n        /* \"#utility.yul\":2246:2253   */\n      0x00\n        /* \"#utility.yul\":2286:2328   */\n      0xffffffffffffffffffffffffffffffffffffffff\n        /* \"#utility.yul\":2279:2284   */\n      dup3\n        /* \"#utility.yul\":2275:2329   */\n      and\n        /* \"#utility.yul\":2264:2329   */\n      swap1\n      pop\n        /* \"#utility.yul\":2209:2335   */\n      swap2\n      swap1\n      pop\n      jump\t// out\n        /* \"#utility.yul\":2341:2437   */\n    tag_188:\n        /* \"#utility.yul\":2378:2385   */\n      0x00\n        /* \"#utility.yul\":2407:2431   */\n      tag_237\n        /* \"#utility.yul\":2425:2430   */\n      dup3\n        /* \"#utility.yul\":2407:2431   */\n      tag_187\n      jump\t// in\n    tag_237:\n        /* \"#utility.yul\":2396:2431   */\n      swap1\n      pop\n        /* \"#utility.yul\":2341:2437   */\n      swap2\n      swap1\n      pop\n      jump\t// out\n        /* \"#utility.yul\":2443:2561   */\n    tag_189:\n        /* \"#utility.yul\":2530:2554   */\n      tag_239\n        /* \"#utility.yul\":2548:2553   */\n      dup2\n        /* \"#utility.yul\":2530:2554   */\n      tag_188\n      jump\t// in\n    tag_239:\n        /* \"#utility.yul\":2525:2528   */\n      dup3\n        /* \"#utility.yul\":2518:2555   */\n      mstore\n        /* \"#utility.yul\":2443:2561   */\n      pop\n      pop\n      jump\t// out\n        /* \"#utility.yul\":2567:2685   */\n    tag_190:\n        /* \"#utility.yul\":2654:2678   */\n      tag_241\n        /* \"#utility.yul\":2672:2677   */\n      dup2\n        /* \"#utility.yul\":2654:2678   */\n      tag_184\n      jump\t// in\n    tag_241:\n        /* \"#utility.yul\":2649:2652   */\n      dup3\n        /* \"#utility.yul\":2642:2679   */\n      mstore\n        /* \"#utility.yul\":2567:2685   */\n      pop\n      pop\n      jump\t// out\n        /* \"#utility.yul\":2691:2768   */\n    tag_191:\n        /* \"#utility.yul\":2728:2735   */\n      0x00\n        /* \"#utility.yul\":2757:2762   */\n      dup2\n        /* \"#utility.yul\":2746:2762   */\n      swap1\n      pop\n        /* \"#utility.yul\":2691:2768   */\n      swap2\n      swap1\n      pop\n      jump\t// out\n        /* \"#utility.yul\":2774:2892   */\n    tag_192:\n        /* \"#utility.yul\":2861:2885   */\n      tag_244\n        /* \"#utility.yul\":2879:2884   */\n      dup2\n        /* \"#utility.yul\":2861:2885   */\n      tag_191\n      jump\t// in\n    tag_244:\n        /* \"#utility.yul\":2856:2859   */\n      dup3\n        /* \"#utility.yul\":2849:2886   */\n      mstore\n        /* \"#utility.yul\":2774:2892   */\n      pop\n      pop\n      jump\t// out\n        /* \"#utility.yul\":2898:3439   */\n    tag_34:\n        /* \"#utility.yul\":3069:3073   */\n      0x00\n        /* \"#utility.yul\":3107:3110   */\n      0x80\n        /* \"#utility.yul\":3096:3105   */\n      dup3\n        /* \"#utility.yul\":3092:3111   */\n      add\n        /* \"#utility.yul\":3084:3111   */\n      swap1\n      pop\n        /* \"#utility.yul\":3121:3192   */\n      tag_246\n        /* \"#utility.yul\":3189:3190   */\n      0x00\n        /* \"#utility.yul\":3178:3187   */\n      dup4\n        /* \"#utility.yul\":3174:3191   */\n      add\n        /* \"#utility.yul\":3165:3171   */\n      dup8\n        /* \"#utility.yul\":3121:3192   */\n      tag_189\n      jump\t// in\n    tag_246:\n        /* \"#utility.yul\":3202:3274   */\n      tag_247\n        /* \"#utility.yul\":3270:3272   */\n      0x20\n        /* \"#utility.yul\":3259:3268   */\n      dup4\n        /* \"#utility.yul\":3255:3273   */\n      add\n        /* \"#utility.yul\":3246:3252   */\n      dup7\n        /* \"#utility.yul\":3202:3274   */\n      tag_190\n      jump\t// in\n    tag_247:\n        /* \"#utility.yul\":3284:3356   */\n      tag_248\n        /* \"#utility.yul\":3352:3354   */\n      0x40\n        /* \"#utility.yul\":3341:3350   */\n      dup4\n        /* \"#utility.yul\":3337:3355   */\n      add\n        /* \"#utility.yul\":3328:3334   */\n      dup6\n        /* \"#utility.yul\":3284:3356   */\n      tag_192\n      jump\t// in\n    tag_248:\n        /* \"#utility.yul\":3366:3432   */\n      tag_249\n        /* \"#utility.yul\":3428:3430   */\n      0x60\n        /* \"#utility.yul\":3417:3426   */\n      dup4\n        /* \"#utility.yul\":3413:3431   */\n      add\n        /* \"#utility.yul\":3404:3410   */\n      dup5\n        /* \"#utility.yul\":3366:3432   */\n      tag_183\n      jump\t// in\n    tag_249:\n        /* \"#utility.yul\":2898:3439   */\n      swap6\n      swap5\n      pop\n      pop\n      pop\n      pop\n      pop\n      jump\t// out\n        /* \"#utility.yul\":3445:3667   */\n    tag_39:\n        /* \"#utility.yul\":3538:3542   */\n      0x00\n        /* \"#utility.yul\":3576:3578   */\n      0x20\n        /* \"#utility.yul\":3565:3574   */\n      dup3\n        /* \"#utility.yul\":3561:3579   */\n      add\n        /* \"#utility.yul\":3553:3579   */\n      swap1\n      pop\n        /* \"#utility.yul\":3589:3660   */\n      tag_251\n        /* \"#utility.yul\":3657:3658   */\n      0x00\n        /* \"#utility.yul\":3646:3655   */\n      dup4\n        /* \"#utility.yul\":3642:3659   */\n      add\n        /* \"#utility.yul\":3633:3639   */\n      dup5\n        /* \"#utility.yul\":3589:3660   */\n      tag_190\n      jump\t// in\n    tag_251:\n        /* \"#utility.yul\":3445:3667   */\n      swap3\n      swap2\n      pop\n      pop\n      jump\t// out\n        /* \"#utility.yul\":3673:3795   */\n    tag_193:\n        /* \"#utility.yul\":3746:3770   */\n      tag_253\n        /* \"#utility.yul\":3764:3769   */\n      dup2\n        /* \"#utility.yul\":3746:3770   */\n      tag_188\n      jump\t// in\n    tag_253:\n        /* \"#utility.yul\":3739:3744   */\n      dup2\n        /* \"#utility.yul\":3736:3771   */\n      eq\n        /* \"#utility.yul\":3726:3789   */\n      tag_254\n      jumpi\n        /* \"#utility.yul\":3785:3786   */\n      0x00\n        /* \"#utility.yul\":3782:3783   */\n      dup1\n        /* \"#utility.yul\":3775:3787   */\n      revert\n        /* \"#utility.yul\":3726:3789   */\n    tag_254:\n        /* \"#utility.yul\":3673:3795   */\n      pop\n      jump\t// out\n        /* \"#utility.yul\":3801:3940   */\n    tag_194:\n        /* \"#utility.yul\":3847:3852   */\n      0x00\n        /* \"#utility.yul\":3885:3891   */\n      dup2\n        /* \"#utility.yul\":3872:3892   */\n      calldataload\n        /* \"#utility.yul\":3863:3892   */\n      swap1\n      pop\n        /* \"#utility.yul\":3901:3934   */\n      tag_256\n        /* \"#utility.yul\":3928:3933   */\n      dup2\n        /* \"#utility.yul\":3901:3934   */\n      tag_193\n      jump\t// in\n    tag_256:\n        /* \"#utility.yul\":3801:3940   */\n      swap3\n      swap2\n      pop\n      pop\n      jump\t// out\n        /* \"#utility.yul\":3946:4420   */\n    tag_42:\n        /* \"#utility.yul\":4014:4020   */\n      0x00\n        /* \"#utility.yul\":4022:4028   */\n      dup1\n        /* \"#utility.yul\":4071:4073   */\n      0x40\n        /* \"#utility.yul\":4059:4068   */\n      dup4\n        /* \"#utility.yul\":4050:4057   */\n      dup6\n        /* \"#utility.yul\":4046:4069   */\n      sub\n        /* \"#utility.yul\":4042:4074   */\n      slt\n        /* \"#utility.yul\":4039:4158   */\n      iszero\n      tag_258\n      jumpi\n        /* \"#utility.yul\":4077:4156   */\n      tag_259\n      tag_177\n      jump\t// in\n    tag_259:\n        /* \"#utility.yul\":4039:4158   */\n    tag_258:\n        /* \"#utility.yul\":4197:4198   */\n      0x00\n        /* \"#utility.yul\":4222:4275   */\n      tag_260\n        /* \"#utility.yul\":4267:4274   */\n      dup6\n        /* \"#utility.yul\":4258:4264   */\n      dup3\n        /* \"#utility.yul\":4247:4256   */\n      dup7\n        /* \"#utility.yul\":4243:4265   */\n      add\n        /* \"#utility.yul\":4222:4275   */\n      tag_186\n      jump\t// in\n    tag_260:\n        /* \"#utility.yul\":4212:4275   */\n      swap3\n      pop\n        /* \"#utility.yul\":4168:4285   */\n      pop\n        /* \"#utility.yul\":4324:4326   */\n      0x20\n        /* \"#utility.yul\":4350:4403   */\n      tag_261\n        /* \"#utility.yul\":4395:4402   */\n      dup6\n        /* \"#utility.yul\":4386:4392   */\n      dup3\n        /* \"#utility.yul\":4375:4384   */\n      dup7\n        /* \"#utility.yul\":4371:4393   */\n      add\n        /* \"#utility.yul\":4350:4403   */\n      tag_194\n      jump\t// in\n    tag_261:\n        /* \"#utility.yul\":4340:4403   */\n      swap2\n      pop\n        /* \"#utility.yul\":4295:4413   */\n      pop\n        /* \"#utility.yul\":3946:4420   */\n      swap3\n      pop\n      swap3\n      swap1\n      pop\n      jump\t// out\n        /* \"#utility.yul\":4426:4755   */\n    tag_49:\n        /* \"#utility.yul\":4485:4491   */\n      0x00\n        /* \"#utility.yul\":4534:4536   */\n      0x20\n        /* \"#utility.yul\":4522:4531   */\n      dup3\n        /* \"#utility.yul\":4513:4520   */\n      dup5\n        /* \"#utility.yul\":4509:4532   */\n      sub\n        /* \"#utility.yul\":4505:4537   */\n      slt\n        /* \"#utility.yul\":4502:4621   */\n      iszero\n      tag_263\n      jumpi\n        /* \"#utility.yul\":4540:4619   */\n      tag_264\n      tag_177\n      jump\t// in\n    tag_264:\n        /* \"#utility.yul\":4502:4621   */\n    tag_263:\n        /* \"#utility.yul\":4660:4661   */\n      0x00\n        /* \"#utility.yul\":4685:4738   */\n      tag_265\n        /* \"#utility.yul\":4730:4737   */\n      dup5\n        /* \"#utility.yul\":4721:4727   */\n      dup3\n        /* \"#utility.yul\":4710:4719   */\n      dup6\n        /* \"#utility.yul\":4706:4728   */\n      add\n        /* \"#utility.yul\":4685:4738   */\n      tag_194\n      jump\t// in\n    tag_265:\n        /* \"#utility.yul\":4675:4738   */\n      swap2\n      pop\n        /* \"#utility.yul\":4631:4748   */\n      pop\n        /* \"#utility.yul\":4426:4755   */\n      swap3\n      swap2\n      pop\n      pop\n      jump\t// out\n        /* \"#utility.yul\":4761:5235   */\n    tag_53:\n        /* \"#utility.yul\":4829:4835   */\n      0x00\n        /* \"#utility.yul\":4837:4843   */\n      dup1\n        /* \"#utility.yul\":4886:4888   */\n      0x40\n        /* \"#utility.yul\":4874:4883   */\n      dup4\n        /* \"#utility.yul\":4865:4872   */\n      dup6\n        /* \"#utility.yul\":4861:4884   */\n      sub\n        /* \"#utility.yul\":4857:4889   */\n      slt\n        /* \"#utility.yul\":4854:4973   */\n      iszero\n      tag_267\n      jumpi\n        /* \"#utility.yul\":4892:4971   */\n      tag_268\n      tag_177\n      jump\t// in\n    tag_268:\n        /* \"#utility.yul\":4854:4973   */\n    tag_267:\n        /* \"#utility.yul\":5012:5013   */\n      0x00\n        /* \"#utility.yul\":5037:5090   */\n      tag_269\n        /* \"#utility.yul\":5082:5089   */\n      dup6\n        /* \"#utility.yul\":5073:5079   */\n      dup3\n        /* \"#utility.yul\":5062:5071   */\n      dup7\n        /* \"#utility.yul\":5058:5080   */\n      add\n        /* \"#utility.yul\":5037:5090   */\n      tag_186\n      jump\t// in\n    tag_269:\n        /* \"#utility.yul\":5027:5090   */\n      swap3\n      pop\n        /* \"#utility.yul\":4983:5100   */\n      pop\n        /* \"#utility.yul\":5139:5141   */\n      0x20\n        /* \"#utility.yul\":5165:5218   */\n      tag_270\n        /* \"#utility.yul\":5210:5217   */\n      dup6\n        /* \"#utility.yul\":5201:5207   */\n      dup3\n        /* \"#utility.yul\":5190:5199   */\n      dup7\n        /* \"#utility.yul\":5186:5208   */\n      add\n        /* \"#utility.yul\":5165:5218   */\n      tag_186\n      jump\t// in\n    tag_270:\n        /* \"#utility.yul\":5155:5218   */\n      swap2\n      pop\n        /* \"#utility.yul\":5110:5228   */\n      pop\n        /* \"#utility.yul\":4761:5235   */\n      swap3\n      pop\n      swap3\n      swap1\n      pop\n      jump\t// out\n        /* \"#utility.yul\":5241:5549   */\n    tag_87:\n        /* \"#utility.yul\":5350:5354   */\n      0x00\n        /* \"#utility.yul\":5388:5390   */\n      0x40\n        /* \"#utility.yul\":5377:5386   */\n      dup3\n        /* \"#utility.yul\":5373:5391   */\n      add\n        /* \"#utility.yul\":5365:5391   */\n      swap1\n      pop\n        /* \"#utility.yul\":5401:5466   */\n      tag_272\n        /* \"#utility.yul\":5463:5464   */\n      0x00\n        /* \"#utility.yul\":5452:5461   */\n      dup4\n        /* \"#utility.yul\":5448:5465   */\n      add\n        /* \"#utility.yul\":5439:5445   */\n      dup6\n        /* \"#utility.yul\":5401:5466   */\n      tag_183\n      jump\t// in\n    tag_272:\n        /* \"#utility.yul\":5476:5542   */\n      tag_273\n        /* \"#utility.yul\":5538:5540   */\n      0x20\n        /* \"#utility.yul\":5527:5536   */\n      dup4\n        /* \"#utility.yul\":5523:5541   */\n      add\n        /* \"#utility.yul\":5514:5520   */\n      dup5\n        /* \"#utility.yul\":5476:5542   */\n      tag_183\n      jump\t// in\n    tag_273:\n        /* \"#utility.yul\":5241:5549   */\n      swap4\n      swap3\n      pop\n      pop\n      pop\n      jump\t// out\n        /* \"#utility.yul\":5555:5724   */\n    tag_195:\n        /* \"#utility.yul\":5639:5650   */\n      0x00\n        /* \"#utility.yul\":5673:5679   */\n      dup3\n        /* \"#utility.yul\":5668:5671   */\n      dup3\n        /* \"#utility.yul\":5661:5680   */\n      mstore\n        /* \"#utility.yul\":5713:5717   */\n      0x20\n        /* \"#utility.yul\":5708:5711   */\n      dup3\n        /* \"#utility.yul\":5704:5718   */\n      add\n        /* \"#utility.yul\":5689:5718   */\n      swap1\n      pop\n        /* \"#utility.yul\":5555:5724   */\n      swap3\n      swap2\n      pop\n      pop\n      jump\t// out\n        /* \"#utility.yul\":5730:5965   */\n    tag_196:\n        /* \"#utility.yul\":5870:5904   */\n      0x43616c6c6572206973206e6f742061207265676973746572656420466163756c\n        /* \"#utility.yul\":5866:5867   */\n      0x00\n        /* \"#utility.yul\":5858:5864   */\n      dup3\n        /* \"#utility.yul\":5854:5868   */\n      add\n        /* \"#utility.yul\":5847:5905   */\n      mstore\n        /* \"#utility.yul\":5939:5957   */\n      0x7479206f72204465706172746d656e7400000000000000000000000000000000\n        /* \"#utility.yul\":5934:5936   */\n      0x20\n        /* \"#utility.yul\":5926:5932   */\n      dup3\n        /* \"#utility.yul\":5922:5937   */\n      add\n        /* \"#utility.yul\":5915:5958   */\n      mstore\n        /* \"#utility.yul\":5730:5965   */\n      pop\n      jump\t// out\n        /* \"#utility.yul\":5971:6337   */\n    tag_197:\n        /* \"#utility.yul\":6113:6116   */\n      0x00\n        /* \"#utility.yul\":6134:6201   */\n      tag_277\n        /* \"#utility.yul\":6198:6200   */\n      0x30\n        /* \"#utility.yul\":6193:6196   */\n      dup4\n        /* \"#utility.yul\":6134:6201   */\n      tag_195\n      jump\t// in\n    tag_277:\n        /* \"#utility.yul\":6127:6201   */\n      swap2\n      pop\n        /* \"#utility.yul\":6210:6303   */\n      tag_278\n        /* \"#utility.yul\":6299:6302   */\n      dup3\n        /* \"#utility.yul\":6210:6303   */\n      tag_196\n      jump\t// in\n    tag_278:\n        /* \"#utility.yul\":6328:6330   */\n      0x40\n        /* \"#utility.yul\":6323:6326   */\n      dup3\n        /* \"#utility.yul\":6319:6331   */\n      add\n        /* \"#utility.yul\":6312:6331   */\n      swap1\n      pop\n        /* \"#utility.yul\":5971:6337   */\n      swap2\n      swap1\n      pop\n      jump\t// out\n        /* \"#utility.yul\":6343:6762   */\n    tag_117:\n        /* \"#utility.yul\":6509:6513   */\n      0x00\n        /* \"#utility.yul\":6547:6549   */\n      0x20\n        /* \"#utility.yul\":6536:6545   */\n      dup3\n        /* \"#utility.yul\":6532:6550   */\n      add\n        /* \"#utility.yul\":6524:6550   */\n      swap1\n      pop\n        /* \"#utility.yul\":6596:6605   */\n      dup2\n        /* \"#utility.yul\":6590:6594   */\n      dup2\n        /* \"#utility.yul\":6586:6606   */\n      sub\n        /* \"#utility.yul\":6582:6583   */\n      0x00\n        /* \"#utility.yul\":6571:6580   */\n      dup4\n        /* \"#utility.yul\":6567:6584   */\n      add\n        /* \"#utility.yul\":6560:6607   */\n      mstore\n        /* \"#utility.yul\":6624:6755   */\n      tag_280\n        /* \"#utility.yul\":6750:6754   */\n      dup2\n        /* \"#utility.yul\":6624:6755   */\n      tag_197\n      jump\t// in\n    tag_280:\n        /* \"#utility.yul\":6616:6755   */\n      swap1\n      pop\n        /* \"#utility.yul\":6343:6762   */\n      swap2\n      swap1\n      pop\n      jump\t// out\n        /* \"#utility.yul\":6768:6939   */\n    tag_198:\n        /* \"#utility.yul\":6908:6931   */\n      0x5265636f726420616c7265616479206578697374730000000000000000000000\n        /* \"#utility.yul\":6904:6905   */\n      0x00\n        /* \"#utility.yul\":6896:6902   */\n      dup3\n        /* \"#utility.yul\":6892:6906   */\n      add\n        /* \"#utility.yul\":6885:6932   */\n      mstore\n        /* \"#utility.yul\":6768:6939   */\n      pop\n      jump\t// out\n        /* \"#utility.yul\":6945:7311   */\n    tag_199:\n        /* \"#utility.yul\":7087:7090   */\n      0x00\n        /* \"#utility.yul\":7108:7175   */\n      tag_283\n        /* \"#utility.yul\":7172:7174   */\n      0x15\n        /* \"#utility.yul\":7167:7170   */\n      dup4\n        /* \"#utility.yul\":7108:7175   */\n      tag_195\n      jump\t// in\n    tag_283:\n        /* \"#utility.yul\":7101:7175   */\n      swap2\n      pop\n        /* \"#utility.yul\":7184:7277   */\n      tag_284\n        /* \"#utility.yul\":7273:7276   */\n      dup3\n        /* \"#utility.yul\":7184:7277   */\n      tag_198\n      jump\t// in\n    tag_284:\n        /* \"#utility.yul\":7302:7304   */\n      0x20\n        /* \"#utility.yul\":7297:7300   */\n      dup3\n        /* \"#utility.yul\":7293:7305   */\n      add\n        /* \"#utility.yul\":7286:7305   */\n      swap1\n      pop\n        /* \"#utility.yul\":6945:7311   */\n      swap2\n      swap1\n      pop\n      jump\t// out\n        /* \"#utility.yul\":7317:7736   */\n    tag_120:\n        /* \"#utility.yul\":7483:7487   */\n      0x00\n        /* \"#utility.yul\":7521:7523   */\n      0x20\n        /* \"#utility.yul\":7510:7519   */\n      dup3\n        /* \"#utility.yul\":7506:7524   */\n      add\n        /* \"#utility.yul\":7498:7524   */\n      swap1\n      pop\n        /* \"#utility.yul\":7570:7579   */\n      dup2\n        /* \"#utility.yul\":7564:7568   */\n      dup2\n        /* \"#utility.yul\":7560:7580   */\n      sub\n        /* \"#utility.yul\":7556:7557   */\n      0x00\n        /* \"#utility.yul\":7545:7554   */\n      dup4\n        /* \"#utility.yul\":7541:7558   */\n      add\n        /* \"#utility.yul\":7534:7581   */\n      mstore\n        /* \"#utility.yul\":7598:7729   */\n      tag_286\n        /* \"#utility.yul\":7724:7728   */\n      dup2\n        /* \"#utility.yul\":7598:7729   */\n      tag_199\n      jump\t// in\n    tag_286:\n        /* \"#utility.yul\":7590:7729   */\n      swap1\n      pop\n        /* \"#utility.yul\":7317:7736   */\n      swap2\n      swap1\n      pop\n      jump\t// out\n        /* \"#utility.yul\":7742:8074   */\n    tag_122:\n        /* \"#utility.yul\":7863:7867   */\n      0x00\n        /* \"#utility.yul\":7901:7903   */\n      0x40\n        /* \"#utility.yul\":7890:7899   */\n      dup3\n        /* \"#utility.yul\":7886:7904   */\n      add\n        /* \"#utility.yul\":7878:7904   */\n      swap1\n      pop\n        /* \"#utility.yul\":7914:7985   */\n      tag_288\n        /* \"#utility.yul\":7982:7983   */\n      0x00\n        /* \"#utility.yul\":7971:7980   */\n      dup4\n        /* \"#utility.yul\":7967:7984   */\n      add\n        /* \"#utility.yul\":7958:7964   */\n      dup6\n        /* \"#utility.yul\":7914:7985   */\n      tag_190\n      jump\t// in\n    tag_288:\n        /* \"#utility.yul\":7995:8067   */\n      tag_289\n        /* \"#utility.yul\":8063:8065   */\n      0x20\n        /* \"#utility.yul\":8052:8061   */\n      dup4\n        /* \"#utility.yul\":8048:8066   */\n      add\n        /* \"#utility.yul\":8039:8045   */\n      dup5\n        /* \"#utility.yul\":7995:8067   */\n      tag_192\n      jump\t// in\n    tag_289:\n        /* \"#utility.yul\":7742:8074   */\n      swap4\n      swap3\n      pop\n      pop\n      pop\n      jump\t// out\n        /* \"#utility.yul\":8080:8251   */\n    tag_200:\n        /* \"#utility.yul\":8220:8243   */\n      0x5265636f726420646f6573206e6f742065786973740000000000000000000000\n        /* \"#utility.yul\":8216:8217   */\n      0x00\n        /* \"#utility.yul\":8208:8214   */\n      dup3\n        /* \"#utility.yul\":8204:8218   */\n      add\n        /* \"#utility.yul\":8197:8244   */\n      mstore\n        /* \"#utility.yul\":8080:8251   */\n      pop\n      jump\t// out\n        /* \"#utility.yul\":8257:8623   */\n    tag_201:\n        /* \"#utility.yul\":8399:8402   */\n      0x00\n        /* \"#utility.yul\":8420:8487   */\n      tag_292\n        /* \"#utility.yul\":8484:8486   */\n      0x15\n        /* \"#utility.yul\":8479:8482   */\n      dup4\n        /* \"#utility.yul\":8420:8487   */\n      tag_195\n      jump\t// in\n    tag_292:\n        /* \"#utility.yul\":8413:8487   */\n      swap2\n      pop\n        /* \"#utility.yul\":8496:8589   */\n      tag_293\n        /* \"#utility.yul\":8585:8588   */\n      dup3\n        /* \"#utility.yul\":8496:8589   */\n      tag_200\n      jump\t// in\n    tag_293:\n        /* \"#utility.yul\":8614:8616   */\n      0x20\n        /* \"#utility.yul\":8609:8612   */\n      dup3\n        /* \"#utility.yul\":8605:8617   */\n      add\n        /* \"#utility.yul\":8598:8617   */\n      swap1\n      pop\n        /* \"#utility.yul\":8257:8623   */\n      swap2\n      swap1\n      pop\n      jump\t// out\n        /* \"#utility.yul\":8629:9048   */\n    tag_137:\n        /* \"#utility.yul\":8795:8799   */\n      0x00\n        /* \"#utility.yul\":8833:8835   */\n      0x20\n        /* \"#utility.yul\":8822:8831   */\n      dup3\n        /* \"#utility.yul\":8818:8836   */\n      add\n        /* \"#utility.yul\":8810:8836   */\n      swap1\n      pop\n        /* \"#utility.yul\":8882:8891   */\n      dup2\n        /* \"#utility.yul\":8876:8880   */\n      dup2\n        /* \"#utility.yul\":8872:8892   */\n      sub\n        /* \"#utility.yul\":8868:8869   */\n      0x00\n        /* \"#utility.yul\":8857:8866   */\n      dup4\n        /* \"#utility.yul\":8853:8870   */\n      add\n        /* \"#utility.yul\":8846:8893   */\n      mstore\n        /* \"#utility.yul\":8910:9041   */\n      tag_295\n        /* \"#utility.yul\":9036:9040   */\n      dup2\n        /* \"#utility.yul\":8910:9041   */\n      tag_201\n      jump\t// in\n    tag_295:\n        /* \"#utility.yul\":8902:9041   */\n      swap1\n      pop\n        /* \"#utility.yul\":8629:9048   */\n      swap2\n      swap1\n      pop\n      jump\t// out\n        /* \"#utility.yul\":9054:9228   */\n    tag_202:\n        /* \"#utility.yul\":9194:9220   */\n      0x4e6f7420617574686f72697a656420746f207265766f6b650000000000000000\n        /* \"#utility.yul\":9190:9191   */\n      0x00\n        /* \"#utility.yul\":9182:9188   */\n      dup3\n        /* \"#utility.yul\":9178:9192   */\n      add\n        /* \"#utility.yul\":9171:9221   */\n      mstore\n        /* \"#utility.yul\":9054:9228   */\n      pop\n      jump\t// out\n        /* \"#utility.yul\":9234:9600   */\n    tag_203:\n        /* \"#utility.yul\":9376:9379   */\n      0x00\n        /* \"#utility.yul\":9397:9464   */\n      tag_298\n        /* \"#utility.yul\":9461:9463   */\n      0x18\n        /* \"#utility.yul\":9456:9459   */\n      dup4\n        /* \"#utility.yul\":9397:9464   */\n      tag_195\n      jump\t// in\n    tag_298:\n        /* \"#utility.yul\":9390:9464   */\n      swap2\n      pop\n        /* \"#utility.yul\":9473:9566   */\n      tag_299\n        /* \"#utility.yul\":9562:9565   */\n      dup3\n        /* \"#utility.yul\":9473:9566   */\n      tag_202\n      jump\t// in\n    tag_299:\n        /* \"#utility.yul\":9591:9593   */\n      0x20\n        /* \"#utility.yul\":9586:9589   */\n      dup3\n        /* \"#utility.yul\":9582:9594   */\n      add\n        /* \"#utility.yul\":9575:9594   */\n      swap1\n      pop\n        /* \"#utility.yul\":9234:9600   */\n      swap2\n      swap1\n      pop\n      jump\t// out\n        /* \"#utility.yul\":9606:10025   */\n    tag_142:\n        /* \"#utility.yul\":9772:9776   */\n      0x00\n        /* \"#utility.yul\":9810:9812   */\n      0x20\n        /* \"#utility.yul\":9799:9808   */\n      dup3\n        /* \"#utility.yul\":9795:9813   */\n      add\n        /* \"#utility.yul\":9787:9813   */\n      swap1\n      pop\n        /* \"#utility.yul\":9859:9868   */\n      dup2\n        /* \"#utility.yul\":9853:9857   */\n      dup2\n        /* \"#utility.yul\":9849:9869   */\n      sub\n        /* \"#utility.yul\":9845:9846   */\n      0x00\n        /* \"#utility.yul\":9834:9843   */\n      dup4\n        /* \"#utility.yul\":9830:9847   */\n      add\n        /* \"#utility.yul\":9823:9870   */\n      mstore\n        /* \"#utility.yul\":9887:10018   */\n      tag_301\n        /* \"#utility.yul\":10013:10017   */\n      dup2\n        /* \"#utility.yul\":9887:10018   */\n      tag_203\n      jump\t// in\n    tag_301:\n        /* \"#utility.yul\":9879:10018   */\n      swap1\n      pop\n        /* \"#utility.yul\":9606:10025   */\n      swap2\n      swap1\n      pop\n      jump\t// out\n        /* \"#utility.yul\":10031:10206   */\n    tag_204:\n        /* \"#utility.yul\":10171:10198   */\n      0x5265636f726420697320616c7265616479207265766f6b656400000000000000\n        /* \"#utility.yul\":10167:10168   */\n      0x00\n        /* \"#utility.yul\":10159:10165   */\n      dup3\n        /* \"#utility.yul\":10155:10169   */\n      add\n        /* \"#utility.yul\":10148:10199   */\n      mstore\n        /* \"#utility.yul\":10031:10206   */\n      pop\n      jump\t// out\n        /* \"#utility.yul\":10212:10578   */\n    tag_205:\n        /* \"#utility.yul\":10354:10357   */\n      0x00\n        /* \"#utility.yul\":10375:10442   */\n      tag_304\n        /* \"#utility.yul\":10439:10441   */\n      0x19\n        /* \"#utility.yul\":10434:10437   */\n      dup4\n        /* \"#utility.yul\":10375:10442   */\n      tag_195\n      jump\t// in\n    tag_304:\n        /* \"#utility.yul\":10368:10442   */\n      swap2\n      pop\n        /* \"#utility.yul\":10451:10544   */\n      tag_305\n        /* \"#utility.yul\":10540:10543   */\n      dup3\n        /* \"#utility.yul\":10451:10544   */\n      tag_204\n      jump\t// in\n    tag_305:\n        /* \"#utility.yul\":10569:10571   */\n      0x20\n        /* \"#utility.yul\":10564:10567   */\n      dup3\n        /* \"#utility.yul\":10560:10572   */\n      add\n        /* \"#utility.yul\":10553:10572   */\n      swap1\n      pop\n        /* \"#utility.yul\":10212:10578   */\n      swap2\n      swap1\n      pop\n      jump\t// out\n        /* \"#utility.yul\":10584:11003   */\n    tag_145:\n        /* \"#utility.yul\":10750:10754   */\n      0x00\n        /* \"#utility.yul\":10788:10790   */\n      0x20\n        /* \"#utility.yul\":10777:10786   */\n      dup3\n        /* \"#utility.yul\":10773:10791   */\n      add\n        /* \"#utility.yul\":10765:10791   */\n      swap1\n      pop\n        /* \"#utility.yul\":10837:10846   */\n      dup2\n        /* \"#utility.yul\":10831:10835   */\n      dup2\n        /* \"#utility.yul\":10827:10847   */\n      sub\n        /* \"#utility.yul\":10823:10824   */\n      0x00\n        /* \"#utility.yul\":10812:10821   */\n      dup4\n        /* \"#utility.yul\":10808:10825   */\n      add\n        /* \"#utility.yul\":10801:10848   */\n      mstore\n        /* \"#utility.yul\":10865:10996   */\n      tag_307\n        /* \"#utility.yul\":10991:10995   */\n      dup2\n        /* \"#utility.yul\":10865:10996   */\n      tag_205\n      jump\t// in\n    tag_307:\n        /* \"#utility.yul\":10857:10996   */\n      swap1\n      pop\n        /* \"#utility.yul\":10584:11003   */\n      swap2\n      swap1\n      pop\n      jump\t// out\n        /* \"#utility.yul\":11009:11231   */\n    tag_147:\n        /* \"#utility.yul\":11102:11106   */\n      0x00\n        /* \"#utility.yul\":11140:11142   */\n      0x20\n        /* \"#utility.yul\":11129:11138   */\n      dup3\n        /* \"#utility.yul\":11125:11143   */\n      add\n        /* \"#utility.yul\":11117:11143   */\n      swap1\n      pop\n        /* \"#utility.yul\":11153:11224   */\n      tag_309\n        /* \"#utility.yul\":11221:11222   */\n      0x00\n        /* \"#utility.yul\":11210:11219   */\n      dup4\n        /* \"#utility.yul\":11206:11223   */\n      add\n        /* \"#utility.yul\":11197:11203   */\n      dup5\n        /* \"#utility.yul\":11153:11224   */\n      tag_192\n      jump\t// in\n    tag_309:\n        /* \"#utility.yul\":11009:11231   */\n      swap3\n      swap2\n      pop\n      pop\n      jump\t// out\n        /* \"#utility.yul\":11237:11569   */\n    tag_175:\n        /* \"#utility.yul\":11358:11362   */\n      0x00\n        /* \"#utility.yul\":11396:11398   */\n      0x40\n        /* \"#utility.yul\":11385:11394   */\n      dup3\n        /* \"#utility.yul\":11381:11399   */\n      add\n        /* \"#utility.yul\":11373:11399   */\n      swap1\n      pop\n        /* \"#utility.yul\":11409:11480   */\n      tag_311\n        /* \"#utility.yul\":11477:11478   */\n      0x00\n        /* \"#utility.yul\":11466:11475   */\n      dup4\n        /* \"#utility.yul\":11462:11479   */\n      add\n        /* \"#utility.yul\":11453:11459   */\n      dup6\n        /* \"#utility.yul\":11409:11480   */\n      tag_189\n      jump\t// in\n    tag_311:\n        /* \"#utility.yul\":11490:11562   */\n      tag_312\n        /* \"#utility.yul\":11558:11560   */\n      0x20\n        /* \"#utility.yul\":11547:11556   */\n      dup4\n        /* \"#utility.yul\":11543:11561   */\n      add\n        /* \"#utility.yul\":11534:11540   */\n      dup5\n        /* \"#utility.yul\":11490:11562   */\n      tag_190\n      jump\t// in\n    tag_312:\n        /* \"#utility.yul\":11237:11569   */\n      swap4\n      swap3\n      pop\n      pop\n      pop\n      jump\t// out\n\n    auxdata: 0xa2646970667358221220402416f16745134f3992dbc94482cd83de07d362a5e68947d1b57d95f11a9cdc64736f6c63430008140033\n}\n",
				"bytecode": {
					"linkReferences": {},
					"object": "608060405234801562000010575f80fd5b50620000255f801b336200005f60201b60201c565b50620000587fa49807205ce4d355092ef5a8a18f56e8913cf4a201fbe287825b095693c21775336200005f60201b60201c565b50620001c4565b5f6200007283836200015a60201b60201c565b620001505760015f808581526020019081526020015f205f015f8473ffffffffffffffffffffffffffffffffffffffff1673ffffffffffffffffffffffffffffffffffffffff1681526020019081526020015f205f6101000a81548160ff021916908315150217905550620000ec620001bd60201b60201c565b73ffffffffffffffffffffffffffffffffffffffff168273ffffffffffffffffffffffffffffffffffffffff16847f2f8788117e7eff1d82e926ec794901d17c78024a50270940304540a733656f0d60405160405180910390a46001905062000154565b5f90505b92915050565b5f805f8481526020019081526020015f205f015f8373ffffffffffffffffffffffffffffffffffffffff1673ffffffffffffffffffffffffffffffffffffffff1681526020019081526020015f205f9054906101000a900460ff16905092915050565b5f33905090565b6114b880620001d25f395ff3fe608060405234801561000f575f80fd5b5060043610610109575f3560e01c806369ff43fc116100a0578063996dc0221161006f578063996dc022146102b4578063a217fddf146102d2578063c616c979146102f0578063d547741f1461030c578063f838585f1461032857610109565b806369ff43fc1461022c5780636fe3ceb81461024857806375b238fc1461026657806391d148541461028457610109565b806336568abe116100dc57806336568abe146101bc578063396ff3ed146101d85780633e478509146101f457806363e44e2f1461021057610109565b806301ffc9a71461010d578063213681cd1461013d578063248a9ca3146101705780632f2ff15d146101a0575b5f80fd5b61012760048036038101906101229190610f67565b610359565b6040516101349190610fac565b60405180910390f35b61015760048036038101906101529190610ff8565b6103d2565b6040516101679493929190611089565b60405180910390f35b61018a60048036038101906101859190610ff8565b610438565b60405161019791906110cc565b60405180910390f35b6101ba60048036038101906101b5919061110f565b610454565b005b6101d660048036038101906101d1919061110f565b610476565b005b6101f260048036038101906101ed919061114d565b6104f1565b005b61020e60048036038101906102099190611178565b61054a565b005b61022a6004803603810190610225919061114d565b610753565b005b61024660048036038101906102419190611178565b6107ac565b005b610250610946565b60405161025d91906110cc565b60405180910390f35b61026e61096a565b60405161027b91906110cc565b60405180910390f35b61029e6004803603810190610299919061110f565b61098e565b6040516102ab9190610fac565b60405180910390f35b6102bc6109f1565b6040516102c991906110cc565b60405180910390f35b6102da610a15565b6040516102e791906110cc565b60405180910390f35b61030a60048036038101906103059190610ff8565b610a1b565b005b6103266004803603810190610321919061110f565b610bf6565b005b610342600480360381019061033d9190611178565b610c18565b6040516103509291906111b6565b60405180910390f35b5f7f7965db0b000000000000000000000000000000000000000000000000000000007bffffffffffffffffffffffffffffffffffffffffffffffffffffffff1916827bffffffffffffffffffffffffffffffffffffffffffffffffffffffff191614806103cb57506103ca82610c67565b5b9050919050565b5f805f805f60015f8781526020019081526020015f209050805f015f9054906101000a900473ffffffffffffffffffffffffffffffffffffffff1681600101548260020154836003015f9054906101000a900460ff169450945094509450509193509193565b5f805f8381526020019081526020015f20600101549050919050565b61045d82610438565b61046681610cd0565b6104708383610ce4565b50505050565b61047e610dcd565b73ffffffffffffffffffffffffffffffffffffffff168173ffffffffffffffffffffffffffffffffffffffff16146104e2576040517f6697b23200000000000000000000000000000000000000000000000000000000815260040160405180910390fd5b6104ec8282610dd4565b505050565b7fa49807205ce4d355092ef5a8a18f56e8913cf4a201fbe287825b095693c2177561051b81610cd0565b6105457ff3f9cfff7b46f415da5a492b1718971da203f87c6aae9299e7b408eb83ef8bee83610ce4565b505050565b6105747ff3f9cfff7b46f415da5a492b1718971da203f87c6aae9299e7b408eb83ef8bee3361098e565b806105a557506105a47fe7837d04f36ce0b2f3cc662bf1b2b632a7fbd12ae95199e8bd3dcfbcc440b66b3361098e565b5b6105e4576040517f08c379a00000000000000000000000000000000000000000000000000000000081526004016105db9061125d565b60405180910390fd5b5f60015f8481526020019081526020015f20600201541461063a576040517f08c379a0000000000000000000000000000000000000000000000000000000008152600401610631906112c5565b60405180910390fd5b60405180608001604052803373ffffffffffffffffffffffffffffffffffffffff1681526020018281526020014281526020015f151581525060015f8481526020019081526020015f205f820151815f015f6101000a81548173ffffffffffffffffffffffffffffffffffffffff021916908373ffffffffffffffffffffffffffffffffffffffff16021790555060208201518160010155604082015181600201556060820151816003015f6101000a81548160ff0219169083151502179055509050503373ffffffffffffffffffffffffffffffffffffffff16827f9f98e4a6a613f74715f54d5326cf01190330375c17b05ecd29e22646ba8b14c383426040516107479291906112e3565b60405180910390a35050565b7fa49807205ce4d355092ef5a8a18f56e8913cf4a201fbe287825b095693c2177561077d81610cd0565b6107a77fe7837d04f36ce0b2f3cc662bf1b2b632a7fbd12ae95199e8bd3dcfbcc440b66b83610ce4565b505050565b7fa49807205ce4d355092ef5a8a18f56e8913cf4a201fbe287825b095693c217756107d681610cd0565b5f60015f8581526020019081526020015f20600201541461082c576040517f08c379a0000000000000000000000000000000000000000000000000000000008152600401610823906112c5565b60405180910390fd5b60405180608001604052803373ffffffffffffffffffffffffffffffffffffffff1681526020018381526020014281526020015f151581525060015f8581526020019081526020015f205f820151815f015f6101000a81548173ffffffffffffffffffffffffffffffffffffffff021916908373ffffffffffffffffffffffffffffffffffffffff16021790555060208201518160010155604082015181600201556060820151816003015f6101000a81548160ff0219169083151502179055509050503373ffffffffffffffffffffffffffffffffffffffff16837f9f98e4a6a613f74715f54d5326cf01190330375c17b05ecd29e22646ba8b14c384426040516109399291906112e3565b60405180910390a3505050565b7ff3f9cfff7b46f415da5a492b1718971da203f87c6aae9299e7b408eb83ef8bee81565b7fa49807205ce4d355092ef5a8a18f56e8913cf4a201fbe287825b095693c2177581565b5f805f8481526020019081526020015f205f015f8373ffffffffffffffffffffffffffffffffffffffff1673ffffffffffffffffffffffffffffffffffffffff1681526020019081526020015f205f9054906101000a900460ff16905092915050565b7fe7837d04f36ce0b2f3cc662bf1b2b632a7fbd12ae95199e8bd3dcfbcc440b66b81565b5f801b81565b5f60015f8381526020019081526020015f2090505f816002015403610a75576040517f08c379a0000000000000000000000000000000000000000000000000000000008152600401610a6c90611354565b60405180910390fd5b610a9f7fa49807205ce4d355092ef5a8a18f56e8913cf4a201fbe287825b095693c217753361098e565b80610af757503373ffffffffffffffffffffffffffffffffffffffff16815f015f9054906101000a900473ffffffffffffffffffffffffffffffffffffffff1673ffffffffffffffffffffffffffffffffffffffff16145b610b36576040517f08c379a0000000000000000000000000000000000000000000000000000000008152600401610b2d906113bc565b60405180910390fd5b806003015f9054906101000a900460ff1615610b87576040517f08c379a0000000000000000000000000000000000000000000000000000000008152600401610b7e90611424565b60405180910390fd5b6001816003015f6101000a81548160ff0219169083151502179055503373ffffffffffffffffffffffffffffffffffffffff16827fab038451d440a6c29bbaaae9f567b253be209b045b7b76daffaa0a4b38f784a042604051610bea9190611442565b60405180910390a35050565b610bff82610438565b610c0881610cd0565b610c128383610dd4565b50505050565b5f805f60015f8681526020019081526020015f2090505f80826002015414158015610c465750848260010154145b905080826003015f9054906101000a900460ff169350935050509250929050565b5f7f01ffc9a7000000000000000000000000000000000000000000000000000000007bffffffffffffffffffffffffffffffffffffffffffffffffffffffff1916827bffffffffffffffffffffffffffffffffffffffffffffffffffffffff1916149050919050565b610ce181610cdc610dcd565b610ebd565b50565b5f610cef838361098e565b610dc35760015f808581526020019081526020015f205f015f8473ffffffffffffffffffffffffffffffffffffffff1673ffffffffffffffffffffffffffffffffffffffff1681526020019081526020015f205f6101000a81548160ff021916908315150217905550610d60610dcd565b73ffffffffffffffffffffffffffffffffffffffff168273ffffffffffffffffffffffffffffffffffffffff16847f2f8788117e7eff1d82e926ec794901d17c78024a50270940304540a733656f0d60405160405180910390a460019050610dc7565b5f90505b92915050565b5f33905090565b5f610ddf838361098e565b15610eb3575f805f8581526020019081526020015f205f015f8473ffffffffffffffffffffffffffffffffffffffff1673ffffffffffffffffffffffffffffffffffffffff1681526020019081526020015f205f6101000a81548160ff021916908315150217905550610e50610dcd565b73ffffffffffffffffffffffffffffffffffffffff168273ffffffffffffffffffffffffffffffffffffffff16847ff6391f5c32d9c69d2a47ea670b442974b53935d1edc7fd64eb21e047a839171b60405160405180910390a460019050610eb7565b5f90505b92915050565b610ec7828261098e565b610f0a5780826040517fe2517d3f000000000000000000000000000000000000000000000000000000008152600401610f0192919061145b565b60405180910390fd5b5050565b5f80fd5b5f7fffffffff0000000000000000000000000000000000000000000000000000000082169050919050565b610f4681610f12565b8114610f50575f80fd5b50565b5f81359050610f6181610f3d565b92915050565b5f60208284031215610f7c57610f7b610f0e565b5b5f610f8984828501610f53565b91505092915050565b5f8115159050919050565b610fa681610f92565b82525050565b5f602082019050610fbf5f830184610f9d565b92915050565b5f819050919050565b610fd781610fc5565b8114610fe1575f80fd5b50565b5f81359050610ff281610fce565b92915050565b5f6020828403121561100d5761100c610f0e565b5b5f61101a84828501610fe4565b91505092915050565b5f73ffffffffffffffffffffffffffffffffffffffff82169050919050565b5f61104c82611023565b9050919050565b61105c81611042565b82525050565b61106b81610fc5565b82525050565b5f819050919050565b61108381611071565b82525050565b5f60808201905061109c5f830187611053565b6110a96020830186611062565b6110b6604083018561107a565b6110c36060830184610f9d565b95945050505050565b5f6020820190506110df5f830184611062565b92915050565b6110ee81611042565b81146110f8575f80fd5b50565b5f81359050611109816110e5565b92915050565b5f806040838503121561112557611124610f0e565b5b5f61113285828601610fe4565b9250506020611143858286016110fb565b9150509250929050565b5f6020828403121561116257611161610f0e565b5b5f61116f848285016110fb565b91505092915050565b5f806040838503121561118e5761118d610f0e565b5b5f61119b85828601610fe4565b92505060206111ac85828601610fe4565b9150509250929050565b5f6040820190506111c95f830185610f9d565b6111d66020830184610f9d565b9392505050565b5f82825260208201905092915050565b7f43616c6c6572206973206e6f742061207265676973746572656420466163756c5f8201527f7479206f72204465706172746d656e7400000000000000000000000000000000602082015250565b5f6112476030836111dd565b9150611252826111ed565b604082019050919050565b5f6020820190508181035f8301526112748161123b565b9050919050565b7f5265636f726420616c72656164792065786973747300000000000000000000005f82015250565b5f6112af6015836111dd565b91506112ba8261127b565b602082019050919050565b5f6020820190508181035f8301526112dc816112a3565b9050919050565b5f6040820190506112f65f830185611062565b611303602083018461107a565b9392505050565b7f5265636f726420646f6573206e6f7420657869737400000000000000000000005f82015250565b5f61133e6015836111dd565b91506113498261130a565b602082019050919050565b5f6020820190508181035f83015261136b81611332565b9050919050565b7f4e6f7420617574686f72697a656420746f207265766f6b6500000000000000005f82015250565b5f6113a66018836111dd565b91506113b182611372565b602082019050919050565b5f6020820190508181035f8301526113d38161139a565b9050919050565b7f5265636f726420697320616c7265616479207265766f6b6564000000000000005f82015250565b5f61140e6019836111dd565b9150611419826113da565b602082019050919050565b5f6020820190508181035f83015261143b81611402565b9050919050565b5f6020820190506114555f83018461107a565b92915050565b5f60408201905061146e5f830185611053565b61147b6020830184611062565b939250505056fea2646970667358221220402416f16745134f3992dbc94482cd83de07d362a5e68947d1b57d95f11a9cdc64736f6c63430008140033",
					"opcodes": "PUSH1 0x80 PUSH1 0x40 MSTORE CALLVALUE DUP1 ISZERO PUSH3 0x10 JUMPI PUSH0 DUP1 REVERT JUMPDEST POP PUSH3 0x25 PUSH0 DUP1 SHL CALLER PUSH3 0x5F PUSH1 0x20 SHL PUSH1 0x20 SHR JUMP JUMPDEST POP PUSH3 0x58 PUSH32 0xA49807205CE4D355092EF5A8A18F56E8913CF4A201FBE287825B095693C21775 CALLER PUSH3 0x5F PUSH1 0x20 SHL PUSH1 0x20 SHR JUMP JUMPDEST POP PUSH3 0x1C4 JUMP JUMPDEST PUSH0 PUSH3 0x72 DUP4 DUP4 PUSH3 0x15A PUSH1 0x20 SHL PUSH1 0x20 SHR JUMP JUMPDEST PUSH3 0x150 JUMPI PUSH1 0x1 PUSH0 DUP1 DUP6 DUP2 MSTORE PUSH1 0x20 ADD SWAP1 DUP2 MSTORE PUSH1 0x20 ADD PUSH0 KECCAK256 PUSH0 ADD PUSH0 DUP5 PUSH20 0xFFFFFFFFFFFFFFFFFFFFFFFFFFFFFFFFFFFFFFFF AND PUSH20 0xFFFFFFFFFFFFFFFFFFFFFFFFFFFFFFFFFFFFFFFF AND DUP2 MSTORE PUSH1 0x20 ADD SWAP1 DUP2 MSTORE PUSH1 0x20 ADD PUSH0 KECCAK256 PUSH0 PUSH2 0x100 EXP DUP2 SLOAD DUP2 PUSH1 0xFF MUL NOT AND SWAP1 DUP4 ISZERO ISZERO MUL OR SWAP1 SSTORE POP PUSH3 0xEC PUSH3 0x1BD PUSH1 0x20 SHL PUSH1 0x20 SHR JUMP JUMPDEST PUSH20 0xFFFFFFFFFFFFFFFFFFFFFFFFFFFFFFFFFFFFFFFF AND DUP3 PUSH20 0xFFFFFFFFFFFFFFFFFFFFFFFFFFFFFFFFFFFFFFFF AND DUP5 PUSH32 0x2F8788117E7EFF1D82E926EC794901D17C78024A50270940304540A733656F0D PUSH1 0x40 MLOAD PUSH1 0x40 MLOAD DUP1 SWAP2 SUB SWAP1 LOG4 PUSH1 0x1 SWAP1 POP PUSH3 0x154 JUMP JUMPDEST PUSH0 SWAP1 POP JUMPDEST SWAP3 SWAP2 POP POP JUMP JUMPDEST PUSH0 DUP1 PUSH0 DUP5 DUP2 MSTORE PUSH1 0x20 ADD SWAP1 DUP2 MSTORE PUSH1 0x20 ADD PUSH0 KECCAK256 PUSH0 ADD PUSH0 DUP4 PUSH20 0xFFFFFFFFFFFFFFFFFFFFFFFFFFFFFFFFFFFFFFFF AND PUSH20 0xFFFFFFFFFFFFFFFFFFFFFFFFFFFFFFFFFFFFFFFF AND DUP2 MSTORE PUSH1 0x20 ADD SWAP1 DUP2 MSTORE PUSH1 0x20 ADD PUSH0 KECCAK256 PUSH0 SWAP1 SLOAD SWAP1 PUSH2 0x100 EXP SWAP1 DIV PUSH1 0xFF AND SWAP1 POP SWAP3 SWAP2 POP POP JUMP JUMPDEST PUSH0 CALLER SWAP1 POP SWAP1 JUMP JUMPDEST PUSH2 0x14B8 DUP1 PUSH3 0x1D2 PUSH0 CODECOPY PUSH0 RETURN INVALID PUSH1 0x80 PUSH1 0x40 MSTORE CALLVALUE DUP1 ISZERO PUSH2 0xF JUMPI PUSH0 DUP1 REVERT JUMPDEST POP PUSH1 0x4 CALLDATASIZE LT PUSH2 0x109 JUMPI PUSH0 CALLDATALOAD PUSH1 0xE0 SHR DUP1 PUSH4 0x69FF43FC GT PUSH2 0xA0 JUMPI DUP1 PUSH4 0x996DC022 GT PUSH2 0x6F JUMPI DUP1 PUSH4 0x996DC022 EQ PUSH2 0x2B4 JUMPI DUP1 PUSH4 0xA217FDDF EQ PUSH2 0x2D2 JUMPI DUP1 PUSH4 0xC616C979 EQ PUSH2 0x2F0 JUMPI DUP1 PUSH4 0xD547741F EQ PUSH2 0x30C JUMPI DUP1 PUSH4 0xF838585F EQ PUSH2 0x328 JUMPI PUSH2 0x109 JUMP JUMPDEST DUP1 PUSH4 0x69FF43FC EQ PUSH2 0x22C JUMPI DUP1 PUSH4 0x6FE3CEB8 EQ PUSH2 0x248 JUMPI DUP1 PUSH4 0x75B238FC EQ PUSH2 0x266 JUMPI DUP1 PUSH4 0x91D14854 EQ PUSH2 0x284 JUMPI PUSH2 0x109 JUMP JUMPDEST DUP1 PUSH4 0x36568ABE GT PUSH2 0xDC JUMPI DUP1 PUSH4 0x36568ABE EQ PUSH2 0x1BC JUMPI DUP1 PUSH4 0x396FF3ED EQ PUSH2 0x1D8 JUMPI DUP1 PUSH4 0x3E478509 EQ PUSH2 0x1F4 JUMPI DUP1 PUSH4 0x63E44E2F EQ PUSH2 0x210 JUMPI PUSH2 0x109 JUMP JUMPDEST DUP1 PUSH4 0x1FFC9A7 EQ PUSH2 0x10D JUMPI DUP1 PUSH4 0x213681CD EQ PUSH2 0x13D JUMPI DUP1 PUSH4 0x248A9CA3 EQ PUSH2 0x170 JUMPI DUP1 PUSH4 0x2F2FF15D EQ PUSH2 0x1A0 JUMPI JUMPDEST PUSH0 DUP1 REVERT JUMPDEST PUSH2 0x127 PUSH1 0x4 DUP1 CALLDATASIZE SUB DUP2 ADD SWAP1 PUSH2 0x122 SWAP2 SWAP1 PUSH2 0xF67 JUMP JUMPDEST PUSH2 0x359 JUMP JUMPDEST PUSH1 0x40 MLOAD PUSH2 0x134 SWAP2 SWAP1 PUSH2 0xFAC JUMP JUMPDEST PUSH1 0x40 MLOAD DUP1 SWAP2 SUB SWAP1 RETURN JUMPDEST PUSH2 0x157 PUSH1 0x4 DUP1 CALLDATASIZE SUB DUP2 ADD SWAP1 PUSH2 0x152 SWAP2 SWAP1 PUSH2 0xFF8 JUMP JUMPDEST PUSH2 0x3D2 JUMP JUMPDEST PUSH1 0x40 MLOAD PUSH2 0x167 SWAP5 SWAP4 SWAP3 SWAP2 SWAP1 PUSH2 0x1089 JUMP JUMPDEST PUSH1 0x40 MLOAD DUP1 SWAP2 SUB SWAP1 RETURN JUMPDEST PUSH2 0x18A PUSH1 0x4 DUP1 CALLDATASIZE SUB DUP2 ADD SWAP1 PUSH2 0x185 SWAP2 SWAP1 PUSH2 0xFF8 JUMP JUMPDEST PUSH2 0x438 JUMP JUMPDEST PUSH1 0x40 MLOAD PUSH2 0x197 SWAP2 SWAP1 PUSH2 0x10CC JUMP JUMPDEST PUSH1 0x40 MLOAD DUP1 SWAP2 SUB SWAP1 RETURN JUMPDEST PUSH2 0x1BA PUSH1 0x4 DUP1 CALLDATASIZE SUB DUP2 ADD SWAP1 PUSH2 0x1B5 SWAP2 SWAP1 PUSH2 0x110F JUMP JUMPDEST PUSH2 0x454 JUMP JUMPDEST STOP JUMPDEST PUSH2 0x1D6 PUSH1 0x4 DUP1 CALLDATASIZE SUB DUP2 ADD SWAP1 PUSH2 0x1D1 SWAP2 SWAP1 PUSH2 0x110F JUMP JUMPDEST PUSH2 0x476 JUMP JUMPDEST STOP JUMPDEST PUSH2 0x1F2 PUSH1 0x4 DUP1 CALLDATASIZE SUB DUP2 ADD SWAP1 PUSH2 0x1ED SWAP2 SWAP1 PUSH2 0x114D JUMP JUMPDEST PUSH2 0x4F1 JUMP JUMPDEST STOP JUMPDEST PUSH2 0x20E PUSH1 0x4 DUP1 CALLDATASIZE SUB DUP2 ADD SWAP1 PUSH2 0x209 SWAP2 SWAP1 PUSH2 0x1178 JUMP JUMPDEST PUSH2 0x54A JUMP JUMPDEST STOP JUMPDEST PUSH2 0x22A PUSH1 0x4 DUP1 CALLDATASIZE SUB DUP2 ADD SWAP1 PUSH2 0x225 SWAP2 SWAP1 PUSH2 0x114D JUMP JUMPDEST PUSH2 0x753 JUMP JUMPDEST STOP JUMPDEST PUSH2 0x246 PUSH1 0x4 DUP1 CALLDATASIZE SUB DUP2 ADD SWAP1 PUSH2 0x241 SWAP2 SWAP1 PUSH2 0x1178 JUMP JUMPDEST PUSH2 0x7AC JUMP JUMPDEST STOP JUMPDEST PUSH2 0x250 PUSH2 0x946 JUMP JUMPDEST PUSH1 0x40 MLOAD PUSH2 0x25D SWAP2 SWAP1 PUSH2 0x10CC JUMP JUMPDEST PUSH1 0x40 MLOAD DUP1 SWAP2 SUB SWAP1 RETURN JUMPDEST PUSH2 0x26E PUSH2 0x96A JUMP JUMPDEST PUSH1 0x40 MLOAD PUSH2 0x27B SWAP2 SWAP1 PUSH2 0x10CC JUMP JUMPDEST PUSH1 0x40 MLOAD DUP1 SWAP2 SUB SWAP1 RETURN JUMPDEST PUSH2 0x29E PUSH1 0x4 DUP1 CALLDATASIZE SUB DUP2 ADD SWAP1 PUSH2 0x299 SWAP2 SWAP1 PUSH2 0x110F JUMP JUMPDEST PUSH2 0x98E JUMP JUMPDEST PUSH1 0x40 MLOAD PUSH2 0x2AB SWAP2 SWAP1 PUSH2 0xFAC JUMP JUMPDEST PUSH1 0x40 MLOAD DUP1 SWAP2 SUB SWAP1 RETURN JUMPDEST PUSH2 0x2BC PUSH2 0x9F1 JUMP JUMPDEST PUSH1 0x40 MLOAD PUSH2 0x2C9 SWAP2 SWAP1 PUSH2 0x10CC JUMP JUMPDEST PUSH1 0x40 MLOAD DUP1 SWAP2 SUB SWAP1 RETURN JUMPDEST PUSH2 0x2DA PUSH2 0xA15 JUMP JUMPDEST PUSH1 0x40 MLOAD PUSH2 0x2E7 SWAP2 SWAP1 PUSH2 0x10CC JUMP JUMPDEST PUSH1 0x40 MLOAD DUP1 SWAP2 SUB SWAP1 RETURN JUMPDEST PUSH2 0x30A PUSH1 0x4 DUP1 CALLDATASIZE SUB DUP2 ADD SWAP1 PUSH2 0x305 SWAP2 SWAP1 PUSH2 0xFF8 JUMP JUMPDEST PUSH2 0xA1B JUMP JUMPDEST STOP JUMPDEST PUSH2 0x326 PUSH1 0x4 DUP1 CALLDATASIZE SUB DUP2 ADD SWAP1 PUSH2 0x321 SWAP2 SWAP1 PUSH2 0x110F JUMP JUMPDEST PUSH2 0xBF6 JUMP JUMPDEST STOP JUMPDEST PUSH2 0x342 PUSH1 0x4 DUP1 CALLDATASIZE SUB DUP2 ADD SWAP1 PUSH2 0x33D SWAP2 SWAP1 PUSH2 0x1178 JUMP JUMPDEST PUSH2 0xC18 JUMP JUMPDEST PUSH1 0x40 MLOAD PUSH2 0x350 SWAP3 SWAP2 SWAP1 PUSH2 0x11B6 JUMP JUMPDEST PUSH1 0x40 MLOAD DUP1 SWAP2 SUB SWAP1 RETURN JUMPDEST PUSH0 PUSH32 0x7965DB0B00000000000000000000000000000000000000000000000000000000 PUSH28 0xFFFFFFFFFFFFFFFFFFFFFFFFFFFFFFFFFFFFFFFFFFFFFFFFFFFFFFFF NOT AND DUP3 PUSH28 0xFFFFFFFFFFFFFFFFFFFFFFFFFFFFFFFFFFFFFFFFFFFFFFFFFFFFFFFF NOT AND EQ DUP1 PUSH2 0x3CB JUMPI POP PUSH2 0x3CA DUP3 PUSH2 0xC67 JUMP JUMPDEST JUMPDEST SWAP1 POP SWAP2 SWAP1 POP JUMP JUMPDEST PUSH0 DUP1 PUSH0 DUP1 PUSH0 PUSH1 0x1 PUSH0 DUP8 DUP2 MSTORE PUSH1 0x20 ADD SWAP1 DUP2 MSTORE PUSH1 0x20 ADD PUSH0 KECCAK256 SWAP1 POP DUP1 PUSH0 ADD PUSH0 SWAP1 SLOAD SWAP1 PUSH2 0x100 EXP SWAP1 DIV PUSH20 0xFFFFFFFFFFFFFFFFFFFFFFFFFFFFFFFFFFFFFFFF AND DUP2 PUSH1 0x1 ADD SLOAD DUP3 PUSH1 0x2 ADD SLOAD DUP4 PUSH1 0x3 ADD PUSH0 SWAP1 SLOAD SWAP1 PUSH2 0x100 EXP SWAP1 DIV PUSH1 0xFF AND SWAP5 POP SWAP5 POP SWAP5 POP SWAP5 POP POP SWAP2 SWAP4 POP SWAP2 SWAP4 JUMP JUMPDEST PUSH0 DUP1 PUSH0 DUP4 DUP2 MSTORE PUSH1 0x20 ADD SWAP1 DUP2 MSTORE PUSH1 0x20 ADD PUSH0 KECCAK256 PUSH1 0x1 ADD SLOAD SWAP1 POP SWAP2 SWAP1 POP JUMP JUMPDEST PUSH2 0x45D DUP3 PUSH2 0x438 JUMP JUMPDEST PUSH2 0x466 DUP2 PUSH2 0xCD0 JUMP JUMPDEST PUSH2 0x470 DUP4 DUP4 PUSH2 0xCE4 JUMP JUMPDEST POP POP POP POP JUMP JUMPDEST PUSH2 0x47E PUSH2 0xDCD JUMP JUMPDEST PUSH20 0xFFFFFFFFFFFFFFFFFFFFFFFFFFFFFFFFFFFFFFFF AND DUP2 PUSH20 0xFFFFFFFFFFFFFFFFFFFFFFFFFFFFFFFFFFFFFFFF AND EQ PUSH2 0x4E2 JUMPI PUSH1 0x40 MLOAD PUSH32 0x6697B23200000000000000000000000000000000000000000000000000000000 DUP2 MSTORE PUSH1 0x4 ADD PUSH1 0x40 MLOAD DUP1 SWAP2 SUB SWAP1 REVERT JUMPDEST PUSH2 0x4EC DUP3 DUP3 PUSH2 0xDD4 JUMP JUMPDEST POP POP POP JUMP JUMPDEST PUSH32 0xA49807205CE4D355092EF5A8A18F56E8913CF4A201FBE287825B095693C21775 PUSH2 0x51B DUP2 PUSH2 0xCD0 JUMP JUMPDEST PUSH2 0x545 PUSH32 0xF3F9CFFF7B46F415DA5A492B1718971DA203F87C6AAE9299E7B408EB83EF8BEE DUP4 PUSH2 0xCE4 JUMP JUMPDEST POP POP POP JUMP JUMPDEST PUSH2 0x574 PUSH32 0xF3F9CFFF7B46F415DA5A492B1718971DA203F87C6AAE9299E7B408EB83EF8BEE CALLER PUSH2 0x98E JUMP JUMPDEST DUP1 PUSH2 0x5A5 JUMPI POP PUSH2 0x5A4 PUSH32 0xE7837D04F36CE0B2F3CC662BF1B2B632A7FBD12AE95199E8BD3DCFBCC440B66B CALLER PUSH2 0x98E JUMP JUMPDEST JUMPDEST PUSH2 0x5E4 JUMPI PUSH1 0x40 MLOAD PUSH32 0x8C379A000000000000000000000000000000000000000000000000000000000 DUP2 MSTORE PUSH1 0x4 ADD PUSH2 0x5DB SWAP1 PUSH2 0x125D JUMP JUMPDEST PUSH1 0x40 MLOAD DUP1 SWAP2 SUB SWAP1 REVERT JUMPDEST PUSH0 PUSH1 0x1 PUSH0 DUP5 DUP2 MSTORE PUSH1 0x20 ADD SWAP1 DUP2 MSTORE PUSH1 0x20 ADD PUSH0 KECCAK256 PUSH1 0x2 ADD SLOAD EQ PUSH2 0x63A JUMPI PUSH1 0x40 MLOAD PUSH32 0x8C379A000000000000000000000000000000000000000000000000000000000 DUP2 MSTORE PUSH1 0x4 ADD PUSH2 0x631 SWAP1 PUSH2 0x12C5 JUMP JUMPDEST PUSH1 0x40 MLOAD DUP1 SWAP2 SUB SWAP1 REVERT JUMPDEST PUSH1 0x40 MLOAD DUP1 PUSH1 0x80 ADD PUSH1 0x40 MSTORE DUP1 CALLER PUSH20 0xFFFFFFFFFFFFFFFFFFFFFFFFFFFFFFFFFFFFFFFF AND DUP2 MSTORE PUSH1 0x20 ADD DUP3 DUP2 MSTORE PUSH1 0x20 ADD TIMESTAMP DUP2 MSTORE PUSH1 0x20 ADD PUSH0 ISZERO ISZERO DUP2 MSTORE POP PUSH1 0x1 PUSH0 DUP5 DUP2 MSTORE PUSH1 0x20 ADD SWAP1 DUP2 MSTORE PUSH1 0x20 ADD PUSH0 KECCAK256 PUSH0 DUP3 ADD MLOAD DUP2 PUSH0 ADD PUSH0 PUSH2 0x100 EXP DUP2 SLOAD DUP2 PUSH20 0xFFFFFFFFFFFFFFFFFFFFFFFFFFFFFFFFFFFFFFFF MUL NOT AND SWAP1 DUP4 PUSH20 0xFFFFFFFFFFFFFFFFFFFFFFFFFFFFFFFFFFFFFFFF AND MUL OR SWAP1 SSTORE POP PUSH1 0x20 DUP3 ADD MLOAD DUP2 PUSH1 0x1 ADD SSTORE PUSH1 0x40 DUP3 ADD MLOAD DUP2 PUSH1 0x2 ADD SSTORE PUSH1 0x60 DUP3 ADD MLOAD DUP2 PUSH1 0x3 ADD PUSH0 PUSH2 0x100 EXP DUP2 SLOAD DUP2 PUSH1 0xFF MUL NOT AND SWAP1 DUP4 ISZERO ISZERO MUL OR SWAP1 SSTORE POP SWAP1 POP POP CALLER PUSH20 0xFFFFFFFFFFFFFFFFFFFFFFFFFFFFFFFFFFFFFFFF AND DUP3 PUSH32 0x9F98E4A6A613F74715F54D5326CF01190330375C17B05ECD29E22646BA8B14C3 DUP4 TIMESTAMP PUSH1 0x40 MLOAD PUSH2 0x747 SWAP3 SWAP2 SWAP1 PUSH2 0x12E3 JUMP JUMPDEST PUSH1 0x40 MLOAD DUP1 SWAP2 SUB SWAP1 LOG3 POP POP JUMP JUMPDEST PUSH32 0xA49807205CE4D355092EF5A8A18F56E8913CF4A201FBE287825B095693C21775 PUSH2 0x77D DUP2 PUSH2 0xCD0 JUMP JUMPDEST PUSH2 0x7A7 PUSH32 0xE7837D04F36CE0B2F3CC662BF1B2B632A7FBD12AE95199E8BD3DCFBCC440B66B DUP4 PUSH2 0xCE4 JUMP JUMPDEST POP POP POP JUMP JUMPDEST PUSH32 0xA49807205CE4D355092EF5A8A18F56E8913CF4A201FBE287825B095693C21775 PUSH2 0x7D6 DUP2 PUSH2 0xCD0 JUMP JUMPDEST PUSH0 PUSH1 0x1 PUSH0 DUP6 DUP2 MSTORE PUSH1 0x20 ADD SWAP1 DUP2 MSTORE PUSH1 0x20 ADD PUSH0 KECCAK256 PUSH1 0x2 ADD SLOAD EQ PUSH2 0x82C JUMPI PUSH1 0x40 MLOAD PUSH32 0x8C379A000000000000000000000000000000000000000000000000000000000 DUP2 MSTORE PUSH1 0x4 ADD PUSH2 0x823 SWAP1 PUSH2 0x12C5 JUMP JUMPDEST PUSH1 0x40 MLOAD DUP1 SWAP2 SUB SWAP1 REVERT JUMPDEST PUSH1 0x40 MLOAD DUP1 PUSH1 0x80 ADD PUSH1 0x40 MSTORE DUP1 CALLER PUSH20 0xFFFFFFFFFFFFFFFFFFFFFFFFFFFFFFFFFFFFFFFF AND DUP2 MSTORE PUSH1 0x20 ADD DUP4 DUP2 MSTORE PUSH1 0x20 ADD TIMESTAMP DUP2 MSTORE PUSH1 0x20 ADD PUSH0 ISZERO ISZERO DUP2 MSTORE POP PUSH1 0x1 PUSH0 DUP6 DUP2 MSTORE PUSH1 0x20 ADD SWAP1 DUP2 MSTORE PUSH1 0x20 ADD PUSH0 KECCAK256 PUSH0 DUP3 ADD MLOAD DUP2 PUSH0 ADD PUSH0 PUSH2 0x100 EXP DUP2 SLOAD DUP2 PUSH20 0xFFFFFFFFFFFFFFFFFFFFFFFFFFFFFFFFFFFFFFFF MUL NOT AND SWAP1 DUP4 PUSH20 0xFFFFFFFFFFFFFFFFFFFFFFFFFFFFFFFFFFFFFFFF AND MUL OR SWAP1 SSTORE POP PUSH1 0x20 DUP3 ADD MLOAD DUP2 PUSH1 0x1 ADD SSTORE PUSH1 0x40 DUP3 ADD MLOAD DUP2 PUSH1 0x2 ADD SSTORE PUSH1 0x60 DUP3 ADD MLOAD DUP2 PUSH1 0x3 ADD PUSH0 PUSH2 0x100 EXP DUP2 SLOAD DUP2 PUSH1 0xFF MUL NOT AND SWAP1 DUP4 ISZERO ISZERO MUL OR SWAP1 SSTORE POP SWAP1 POP POP CALLER PUSH20 0xFFFFFFFFFFFFFFFFFFFFFFFFFFFFFFFFFFFFFFFF AND DUP4 PUSH32 0x9F98E4A6A613F74715F54D5326CF01190330375C17B05ECD29E22646BA8B14C3 DUP5 TIMESTAMP PUSH1 0x40 MLOAD PUSH2 0x939 SWAP3 SWAP2 SWAP1 PUSH2 0x12E3 JUMP JUMPDEST PUSH1 0x40 MLOAD DUP1 SWAP2 SUB SWAP1 LOG3 POP POP POP JUMP JUMPDEST PUSH32 0xF3F9CFFF7B46F415DA5A492B1718971DA203F87C6AAE9299E7B408EB83EF8BEE DUP2 JUMP JUMPDEST PUSH32 0xA49807205CE4D355092EF5A8A18F56E8913CF4A201FBE287825B095693C21775 DUP2 JUMP JUMPDEST PUSH0 DUP1 PUSH0 DUP5 DUP2 MSTORE PUSH1 0x20 ADD SWAP1 DUP2 MSTORE PUSH1 0x20 ADD PUSH0 KECCAK256 PUSH0 ADD PUSH0 DUP4 PUSH20 0xFFFFFFFFFFFFFFFFFFFFFFFFFFFFFFFFFFFFFFFF AND PUSH20 0xFFFFFFFFFFFFFFFFFFFFFFFFFFFFFFFFFFFFFFFF AND DUP2 MSTORE PUSH1 0x20 ADD SWAP1 DUP2 MSTORE PUSH1 0x20 ADD PUSH0 KECCAK256 PUSH0 SWAP1 SLOAD SWAP1 PUSH2 0x100 EXP SWAP1 DIV PUSH1 0xFF AND SWAP1 POP SWAP3 SWAP2 POP POP JUMP JUMPDEST PUSH32 0xE7837D04F36CE0B2F3CC662BF1B2B632A7FBD12AE95199E8BD3DCFBCC440B66B DUP2 JUMP JUMPDEST PUSH0 DUP1 SHL DUP2 JUMP JUMPDEST PUSH0 PUSH1 0x1 PUSH0 DUP4 DUP2 MSTORE PUSH1 0x20 ADD SWAP1 DUP2 MSTORE PUSH1 0x20 ADD PUSH0 KECCAK256 SWAP1 POP PUSH0 DUP2 PUSH1 0x2 ADD SLOAD SUB PUSH2 0xA75 JUMPI PUSH1 0x40 MLOAD PUSH32 0x8C379A000000000000000000000000000000000000000000000000000000000 DUP2 MSTORE PUSH1 0x4 ADD PUSH2 0xA6C SWAP1 PUSH2 0x1354 JUMP JUMPDEST PUSH1 0x40 MLOAD DUP1 SWAP2 SUB SWAP1 REVERT JUMPDEST PUSH2 0xA9F PUSH32 0xA49807205CE4D355092EF5A8A18F56E8913CF4A201FBE287825B095693C21775 CALLER PUSH2 0x98E JUMP JUMPDEST DUP1 PUSH2 0xAF7 JUMPI POP CALLER PUSH20 0xFFFFFFFFFFFFFFFFFFFFFFFFFFFFFFFFFFFFFFFF AND DUP2 PUSH0 ADD PUSH0 SWAP1 SLOAD SWAP1 PUSH2 0x100 EXP SWAP1 DIV PUSH20 0xFFFFFFFFFFFFFFFFFFFFFFFFFFFFFFFFFFFFFFFF AND PUSH20 0xFFFFFFFFFFFFFFFFFFFFFFFFFFFFFFFFFFFFFFFF AND EQ JUMPDEST PUSH2 0xB36 JUMPI PUSH1 0x40 MLOAD PUSH32 0x8C379A000000000000000000000000000000000000000000000000000000000 DUP2 MSTORE PUSH1 0x4 ADD PUSH2 0xB2D SWAP1 PUSH2 0x13BC JUMP JUMPDEST PUSH1 0x40 MLOAD DUP1 SWAP2 SUB SWAP1 REVERT JUMPDEST DUP1 PUSH1 0x3 ADD PUSH0 SWAP1 SLOAD SWAP1 PUSH2 0x100 EXP SWAP1 DIV PUSH1 0xFF AND ISZERO PUSH2 0xB87 JUMPI PUSH1 0x40 MLOAD PUSH32 0x8C379A000000000000000000000000000000000000000000000000000000000 DUP2 MSTORE PUSH1 0x4 ADD PUSH2 0xB7E SWAP1 PUSH2 0x1424 JUMP JUMPDEST PUSH1 0x40 MLOAD DUP1 SWAP2 SUB SWAP1 REVERT JUMPDEST PUSH1 0x1 DUP2 PUSH1 0x3 ADD PUSH0 PUSH2 0x100 EXP DUP2 SLOAD DUP2 PUSH1 0xFF MUL NOT AND SWAP1 DUP4 ISZERO ISZERO MUL OR SWAP1 SSTORE POP CALLER PUSH20 0xFFFFFFFFFFFFFFFFFFFFFFFFFFFFFFFFFFFFFFFF AND DUP3 PUSH32 0xAB038451D440A6C29BBAAAE9F567B253BE209B045B7B76DAFFAA0A4B38F784A0 TIMESTAMP PUSH1 0x40 MLOAD PUSH2 0xBEA SWAP2 SWAP1 PUSH2 0x1442 JUMP JUMPDEST PUSH1 0x40 MLOAD DUP1 SWAP2 SUB SWAP1 LOG3 POP POP JUMP JUMPDEST PUSH2 0xBFF DUP3 PUSH2 0x438 JUMP JUMPDEST PUSH2 0xC08 DUP2 PUSH2 0xCD0 JUMP JUMPDEST PUSH2 0xC12 DUP4 DUP4 PUSH2 0xDD4 JUMP JUMPDEST POP POP POP POP JUMP JUMPDEST PUSH0 DUP1 PUSH0 PUSH1 0x1 PUSH0 DUP7 DUP2 MSTORE PUSH1 0x20 ADD SWAP1 DUP2 MSTORE PUSH1 0x20 ADD PUSH0 KECCAK256 SWAP1 POP PUSH0 DUP1 DUP3 PUSH1 0x2 ADD SLOAD EQ ISZERO DUP1 ISZERO PUSH2 0xC46 JUMPI POP DUP5 DUP3 PUSH1 0x1 ADD SLOAD EQ JUMPDEST SWAP1 POP DUP1 DUP3 PUSH1 0x3 ADD PUSH0 SWAP1 SLOAD SWAP1 PUSH2 0x100 EXP SWAP1 DIV PUSH1 0xFF AND SWAP4 POP SWAP4 POP POP POP SWAP3 POP SWAP3 SWAP1 POP JUMP JUMPDEST PUSH0 PUSH32 0x1FFC9A700000000000000000000000000000000000000000000000000000000 PUSH28 0xFFFFFFFFFFFFFFFFFFFFFFFFFFFFFFFFFFFFFFFFFFFFFFFFFFFFFFFF NOT AND DUP3 PUSH28 0xFFFFFFFFFFFFFFFFFFFFFFFFFFFFFFFFFFFFFFFFFFFFFFFFFFFFFFFF NOT AND EQ SWAP1 POP SWAP2 SWAP1 POP JUMP JUMPDEST PUSH2 0xCE1 DUP2 PUSH2 0xCDC PUSH2 0xDCD JUMP JUMPDEST PUSH2 0xEBD JUMP JUMPDEST POP JUMP JUMPDEST PUSH0 PUSH2 0xCEF DUP4 DUP4 PUSH2 0x98E JUMP JUMPDEST PUSH2 0xDC3 JUMPI PUSH1 0x1 PUSH0 DUP1 DUP6 DUP2 MSTORE PUSH1 0x20 ADD SWAP1 DUP2 MSTORE PUSH1 0x20 ADD PUSH0 KECCAK256 PUSH0 ADD PUSH0 DUP5 PUSH20 0xFFFFFFFFFFFFFFFFFFFFFFFFFFFFFFFFFFFFFFFF AND PUSH20 0xFFFFFFFFFFFFFFFFFFFFFFFFFFFFFFFFFFFFFFFF AND DUP2 MSTORE PUSH1 0x20 ADD SWAP1 DUP2 MSTORE PUSH1 0x20 ADD PUSH0 KECCAK256 PUSH0 PUSH2 0x100 EXP DUP2 SLOAD DUP2 PUSH1 0xFF MUL NOT AND SWAP1 DUP4 ISZERO ISZERO MUL OR SWAP1 SSTORE POP PUSH2 0xD60 PUSH2 0xDCD JUMP JUMPDEST PUSH20 0xFFFFFFFFFFFFFFFFFFFFFFFFFFFFFFFFFFFFFFFF AND DUP3 PUSH20 0xFFFFFFFFFFFFFFFFFFFFFFFFFFFFFFFFFFFFFFFF AND DUP5 PUSH32 0x2F8788117E7EFF1D82E926EC794901D17C78024A50270940304540A733656F0D PUSH1 0x40 MLOAD PUSH1 0x40 MLOAD DUP1 SWAP2 SUB SWAP1 LOG4 PUSH1 0x1 SWAP1 POP PUSH2 0xDC7 JUMP JUMPDEST PUSH0 SWAP1 POP JUMPDEST SWAP3 SWAP2 POP POP JUMP JUMPDEST PUSH0 CALLER SWAP1 POP SWAP1 JUMP JUMPDEST PUSH0 PUSH2 0xDDF DUP4 DUP4 PUSH2 0x98E JUMP JUMPDEST ISZERO PUSH2 0xEB3 JUMPI PUSH0 DUP1 PUSH0 DUP6 DUP2 MSTORE PUSH1 0x20 ADD SWAP1 DUP2 MSTORE PUSH1 0x20 ADD PUSH0 KECCAK256 PUSH0 ADD PUSH0 DUP5 PUSH20 0xFFFFFFFFFFFFFFFFFFFFFFFFFFFFFFFFFFFFFFFF AND PUSH20 0xFFFFFFFFFFFFFFFFFFFFFFFFFFFFFFFFFFFFFFFF AND DUP2 MSTORE PUSH1 0x20 ADD SWAP1 DUP2 MSTORE PUSH1 0x20 ADD PUSH0 KECCAK256 PUSH0 PUSH2 0x100 EXP DUP2 SLOAD DUP2 PUSH1 0xFF MUL NOT AND SWAP1 DUP4 ISZERO ISZERO MUL OR SWAP1 SSTORE POP PUSH2 0xE50 PUSH2 0xDCD JUMP JUMPDEST PUSH20 0xFFFFFFFFFFFFFFFFFFFFFFFFFFFFFFFFFFFFFFFF AND DUP3 PUSH20 0xFFFFFFFFFFFFFFFFFFFFFFFFFFFFFFFFFFFFFFFF AND DUP5 PUSH32 0xF6391F5C32D9C69D2A47EA670B442974B53935D1EDC7FD64EB21E047A839171B PUSH1 0x40 MLOAD PUSH1 0x40 MLOAD DUP1 SWAP2 SUB SWAP1 LOG4 PUSH1 0x1 SWAP1 POP PUSH2 0xEB7 JUMP JUMPDEST PUSH0 SWAP1 POP JUMPDEST SWAP3 SWAP2 POP POP JUMP JUMPDEST PUSH2 0xEC7 DUP3 DUP3 PUSH2 0x98E JUMP JUMPDEST PUSH2 0xF0A JUMPI DUP1 DUP3 PUSH1 0x40 MLOAD PUSH32 0xE2517D3F00000000000000000000000000000000000000000000000000000000 DUP2 MSTORE PUSH1 0x4 ADD PUSH2 0xF01 SWAP3 SWAP2 SWAP1 PUSH2 0x145B JUMP JUMPDEST PUSH1 0x40 MLOAD DUP1 SWAP2 SUB SWAP1 REVERT JUMPDEST POP POP JUMP JUMPDEST PUSH0 DUP1 REVERT JUMPDEST PUSH0 PUSH32 0xFFFFFFFF00000000000000000000000000000000000000000000000000000000 DUP3 AND SWAP1 POP SWAP2 SWAP1 POP JUMP JUMPDEST PUSH2 0xF46 DUP2 PUSH2 0xF12 JUMP JUMPDEST DUP2 EQ PUSH2 0xF50 JUMPI PUSH0 DUP1 REVERT JUMPDEST POP JUMP JUMPDEST PUSH0 DUP2 CALLDATALOAD SWAP1 POP PUSH2 0xF61 DUP2 PUSH2 0xF3D JUMP JUMPDEST SWAP3 SWAP2 POP POP JUMP JUMPDEST PUSH0 PUSH1 0x20 DUP3 DUP5 SUB SLT ISZERO PUSH2 0xF7C JUMPI PUSH2 0xF7B PUSH2 0xF0E JUMP JUMPDEST JUMPDEST PUSH0 PUSH2 0xF89 DUP5 DUP3 DUP6 ADD PUSH2 0xF53 JUMP JUMPDEST SWAP2 POP POP SWAP3 SWAP2 POP POP JUMP JUMPDEST PUSH0 DUP2 ISZERO ISZERO SWAP1 POP SWAP2 SWAP1 POP JUMP JUMPDEST PUSH2 0xFA6 DUP2 PUSH2 0xF92 JUMP JUMPDEST DUP3 MSTORE POP POP JUMP JUMPDEST PUSH0 PUSH1 0x20 DUP3 ADD SWAP1 POP PUSH2 0xFBF PUSH0 DUP4 ADD DUP5 PUSH2 0xF9D JUMP JUMPDEST SWAP3 SWAP2 POP POP JUMP JUMPDEST PUSH0 DUP2 SWAP1 POP SWAP2 SWAP1 POP JUMP JUMPDEST PUSH2 0xFD7 DUP2 PUSH2 0xFC5 JUMP JUMPDEST DUP2 EQ PUSH2 0xFE1 JUMPI PUSH0 DUP1 REVERT JUMPDEST POP JUMP JUMPDEST PUSH0 DUP2 CALLDATALOAD SWAP1 POP PUSH2 0xFF2 DUP2 PUSH2 0xFCE JUMP JUMPDEST SWAP3 SWAP2 POP POP JUMP JUMPDEST PUSH0 PUSH1 0x20 DUP3 DUP5 SUB SLT ISZERO PUSH2 0x100D JUMPI PUSH2 0x100C PUSH2 0xF0E JUMP JUMPDEST JUMPDEST PUSH0 PUSH2 0x101A DUP5 DUP3 DUP6 ADD PUSH2 0xFE4 JUMP JUMPDEST SWAP2 POP POP SWAP3 SWAP2 POP POP JUMP JUMPDEST PUSH0 PUSH20 0xFFFFFFFFFFFFFFFFFFFFFFFFFFFFFFFFFFFFFFFF DUP3 AND SWAP1 POP SWAP2 SWAP1 POP JUMP JUMPDEST PUSH0 PUSH2 0x104C DUP3 PUSH2 0x1023 JUMP JUMPDEST SWAP1 POP SWAP2 SWAP1 POP JUMP JUMPDEST PUSH2 0x105C DUP2 PUSH2 0x1042 JUMP JUMPDEST DUP3 MSTORE POP POP JUMP JUMPDEST PUSH2 0x106B DUP2 PUSH2 0xFC5 JUMP JUMPDEST DUP3 MSTORE POP POP JUMP JUMPDEST PUSH0 DUP2 SWAP1 POP SWAP2 SWAP1 POP JUMP JUMPDEST PUSH2 0x1083 DUP2 PUSH2 0x1071 JUMP JUMPDEST DUP3 MSTORE POP POP JUMP JUMPDEST PUSH0 PUSH1 0x80 DUP3 ADD SWAP1 POP PUSH2 0x109C PUSH0 DUP4 ADD DUP8 PUSH2 0x1053 JUMP JUMPDEST PUSH2 0x10A9 PUSH1 0x20 DUP4 ADD DUP7 PUSH2 0x1062 JUMP JUMPDEST PUSH2 0x10B6 PUSH1 0x40 DUP4 ADD DUP6 PUSH2 0x107A JUMP JUMPDEST PUSH2 0x10C3 PUSH1 0x60 DUP4 ADD DUP5 PUSH2 0xF9D JUMP JUMPDEST SWAP6 SWAP5 POP POP POP POP POP JUMP JUMPDEST PUSH0 PUSH1 0x20 DUP3 ADD SWAP1 POP PUSH2 0x10DF PUSH0 DUP4 ADD DUP5 PUSH2 0x1062 JUMP JUMPDEST SWAP3 SWAP2 POP POP JUMP JUMPDEST PUSH2 0x10EE DUP2 PUSH2 0x1042 JUMP JUMPDEST DUP2 EQ PUSH2 0x10F8 JUMPI PUSH0 DUP1 REVERT JUMPDEST POP JUMP JUMPDEST PUSH0 DUP2 CALLDATALOAD SWAP1 POP PUSH2 0x1109 DUP2 PUSH2 0x10E5 JUMP JUMPDEST SWAP3 SWAP2 POP POP JUMP JUMPDEST PUSH0 DUP1 PUSH1 0x40 DUP4 DUP6 SUB SLT ISZERO PUSH2 0x1125 JUMPI PUSH2 0x1124 PUSH2 0xF0E JUMP JUMPDEST JUMPDEST PUSH0 PUSH2 0x1132 DUP6 DUP3 DUP7 ADD PUSH2 0xFE4 JUMP JUMPDEST SWAP3 POP POP PUSH1 0x20 PUSH2 0x1143 DUP6 DUP3 DUP7 ADD PUSH2 0x10FB JUMP JUMPDEST SWAP2 POP POP SWAP3 POP SWAP3 SWAP1 POP JUMP JUMPDEST PUSH0 PUSH1 0x20 DUP3 DUP5 SUB SLT ISZERO PUSH2 0x1162 JUMPI PUSH2 0x1161 PUSH2 0xF0E JUMP JUMPDEST JUMPDEST PUSH0 PUSH2 0x116F DUP5 DUP3 DUP6 ADD PUSH2 0x10FB JUMP JUMPDEST SWAP2 POP POP SWAP3 SWAP2 POP POP JUMP JUMPDEST PUSH0 DUP1 PUSH1 0x40 DUP4 DUP6 SUB SLT ISZERO PUSH2 0x118E JUMPI PUSH2 0x118D PUSH2 0xF0E JUMP JUMPDEST JUMPDEST PUSH0 PUSH2 0x119B DUP6 DUP3 DUP7 ADD PUSH2 0xFE4 JUMP JUMPDEST SWAP3 POP POP PUSH1 0x20 PUSH2 0x11AC DUP6 DUP3 DUP7 ADD PUSH2 0xFE4 JUMP JUMPDEST SWAP2 POP POP SWAP3 POP SWAP3 SWAP1 POP JUMP JUMPDEST PUSH0 PUSH1 0x40 DUP3 ADD SWAP1 POP PUSH2 0x11C9 PUSH0 DUP4 ADD DUP6 PUSH2 0xF9D JUMP JUMPDEST PUSH2 0x11D6 PUSH1 0x20 DUP4 ADD DUP5 PUSH2 0xF9D JUMP JUMPDEST SWAP4 SWAP3 POP POP POP JUMP JUMPDEST PUSH0 DUP3 DUP3 MSTORE PUSH1 0x20 DUP3 ADD SWAP1 POP SWAP3 SWAP2 POP POP JUMP JUMPDEST PUSH32 0x43616C6C6572206973206E6F742061207265676973746572656420466163756C PUSH0 DUP3 ADD MSTORE PUSH32 0x7479206F72204465706172746D656E7400000000000000000000000000000000 PUSH1 0x20 DUP3 ADD MSTORE POP JUMP JUMPDEST PUSH0 PUSH2 0x1247 PUSH1 0x30 DUP4 PUSH2 0x11DD JUMP JUMPDEST SWAP2 POP PUSH2 0x1252 DUP3 PUSH2 0x11ED JUMP JUMPDEST PUSH1 0x40 DUP3 ADD SWAP1 POP SWAP2 SWAP1 POP JUMP JUMPDEST PUSH0 PUSH1 0x20 DUP3 ADD SWAP1 POP DUP2 DUP2 SUB PUSH0 DUP4 ADD MSTORE PUSH2 0x1274 DUP2 PUSH2 0x123B JUMP JUMPDEST SWAP1 POP SWAP2 SWAP1 POP JUMP JUMPDEST PUSH32 0x5265636F726420616C7265616479206578697374730000000000000000000000 PUSH0 DUP3 ADD MSTORE POP JUMP JUMPDEST PUSH0 PUSH2 0x12AF PUSH1 0x15 DUP4 PUSH2 0x11DD JUMP JUMPDEST SWAP2 POP PUSH2 0x12BA DUP3 PUSH2 0x127B JUMP JUMPDEST PUSH1 0x20 DUP3 ADD SWAP1 POP SWAP2 SWAP1 POP JUMP JUMPDEST PUSH0 PUSH1 0x20 DUP3 ADD SWAP1 POP DUP2 DUP2 SUB PUSH0 DUP4 ADD MSTORE PUSH2 0x12DC DUP2 PUSH2 0x12A3 JUMP JUMPDEST SWAP1 POP SWAP2 SWAP1 POP JUMP JUMPDEST PUSH0 PUSH1 0x40 DUP3 ADD SWAP1 POP PUSH2 0x12F6 PUSH0 DUP4 ADD DUP6 PUSH2 0x1062 JUMP JUMPDEST PUSH2 0x1303 PUSH1 0x20 DUP4 ADD DUP5 PUSH2 0x107A JUMP JUMPDEST SWAP4 SWAP3 POP POP POP JUMP JUMPDEST PUSH32 0x5265636F726420646F6573206E6F742065786973740000000000000000000000 PUSH0 DUP3 ADD MSTORE POP JUMP JUMPDEST PUSH0 PUSH2 0x133E PUSH1 0x15 DUP4 PUSH2 0x11DD JUMP JUMPDEST SWAP2 POP PUSH2 0x1349 DUP3 PUSH2 0x130A JUMP JUMPDEST PUSH1 0x20 DUP3 ADD SWAP1 POP SWAP2 SWAP1 POP JUMP JUMPDEST PUSH0 PUSH1 0x20 DUP3 ADD SWAP1 POP DUP2 DUP2 SUB PUSH0 DUP4 ADD MSTORE PUSH2 0x136B DUP2 PUSH2 0x1332 JUMP JUMPDEST SWAP1 POP SWAP2 SWAP1 POP JUMP JUMPDEST PUSH32 0x4E6F7420617574686F72697A656420746F207265766F6B650000000000000000 PUSH0 DUP3 ADD MSTORE POP JUMP JUMPDEST PUSH0 PUSH2 0x13A6 PUSH1 0x18 DUP4 PUSH2 0x11DD JUMP JUMPDEST SWAP2 POP PUSH2 0x13B1 DUP3 PUSH2 0x1372 JUMP JUMPDEST PUSH1 0x20 DUP3 ADD SWAP1 POP SWAP2 SWAP1 POP JUMP JUMPDEST PUSH0 PUSH1 0x20 DUP3 ADD SWAP1 POP DUP2 DUP2 SUB PUSH0 DUP4 ADD MSTORE PUSH2 0x13D3 DUP2 PUSH2 0x139A JUMP JUMPDEST SWAP1 POP SWAP2 SWAP1 POP JUMP JUMPDEST PUSH32 0x5265636F726420697320616C7265616479207265766F6B656400000000000000 PUSH0 DUP3 ADD MSTORE POP JUMP JUMPDEST PUSH0 PUSH2 0x140E PUSH1 0x19 DUP4 PUSH2 0x11DD JUMP JUMPDEST SWAP2 POP PUSH2 0x1419 DUP3 PUSH2 0x13DA JUMP JUMPDEST PUSH1 0x20 DUP3 ADD SWAP1 POP SWAP2 SWAP1 POP JUMP JUMPDEST PUSH0 PUSH1 0x20 DUP3 ADD SWAP1 POP DUP2 DUP2 SUB PUSH0 DUP4 ADD MSTORE PUSH2 0x143B DUP2 PUSH2 0x1402 JUMP JUMPDEST SWAP1 POP SWAP2 SWAP1 POP JUMP JUMPDEST PUSH0 PUSH1 0x20 DUP3 ADD SWAP1 POP PUSH2 0x1455 PUSH0 DUP4 ADD DUP5 PUSH2 0x107A JUMP JUMPDEST SWAP3 SWAP2 POP POP JUMP JUMPDEST PUSH0 PUSH1 0x40 DUP3 ADD SWAP1 POP PUSH2 0x146E PUSH0 DUP4 ADD DUP6 PUSH2 0x1053 JUMP JUMPDEST PUSH2 0x147B PUSH1 0x20 DUP4 ADD DUP5 PUSH2 0x1062 JUMP JUMPDEST SWAP4 SWAP3 POP POP POP JUMP INVALID LOG2 PUSH5 0x6970667358 0x22 SLT KECCAK256 BLOCKHASH 0x24 AND CALL PUSH8 0x45134F3992DBC944 DUP3 0xCD DUP4 0xDE SMOD 0xD3 PUSH3 0xA5E689 SELFBALANCE 0xD1 0xB5 PUSH30 0x95F11A9CDC64736F6C634300081400330000000000000000000000000000 "
				},
				"gasEstimates": {
					"creation": {
						"codeDepositCost": "1060800",
						"executionCost": "infinite",
						"totalCost": "infinite"
					},
					"external": {
						"ADMIN_ROLE()": "392",
						"DEFAULT_ADMIN_ROLE()": "374",
						"DEPARTMENT_ROLE()": "347",
						"FACULTY_ROLE()": "370",
						"addDepartment(address)": "infinite",
						"addFaculty(address)": "infinite",
						"getRecord(bytes32)": "infinite",
						"getRoleAdmin(bytes32)": "infinite",
						"grantRole(bytes32,address)": "infinite",
						"hasRole(bytes32,address)": "3211",
						"issueInstitutionalRecord(bytes32,bytes32)": "infinite",
						"issueRecord(bytes32,bytes32)": "infinite",
						"renounceRole(bytes32,address)": "infinite",
						"revokeRecord(bytes32)": "35610",
						"revokeRole(bytes32,address)": "infinite",
						"supportsInterface(bytes4)": "741",
						"verifyRecord(bytes32,bytes32)": "infinite"
					}
				},
				"methodIdentifiers": {
					"ADMIN_ROLE()": "75b238fc",
					"DEFAULT_ADMIN_ROLE()": "a217fddf",
					"DEPARTMENT_ROLE()": "996dc022",
					"FACULTY_ROLE()": "6fe3ceb8",
					"addDepartment(address)": "63e44e2f",
					"addFaculty(address)": "396ff3ed",
					"getRecord(bytes32)": "213681cd",
					"getRoleAdmin(bytes32)": "248a9ca3",
					"grantRole(bytes32,address)": "2f2ff15d",
					"hasRole(bytes32,address)": "91d14854",
					"issueInstitutionalRecord(bytes32,bytes32)": "69ff43fc",
					"issueRecord(bytes32,bytes32)": "3e478509",
					"renounceRole(bytes32,address)": "36568abe",
					"revokeRecord(bytes32)": "c616c979",
					"revokeRole(bytes32,address)": "d547741f",
					"supportsInterface(bytes4)": "01ffc9a7",
					"verifyRecord(bytes32,bytes32)": "f838585f"
				}
			},
			"storageLayout": {
				"storage": [
					{
						"astId": 27,
						"contract": "SIH_Project Contract/CertRegistry.sol:CertRegistry",
						"label": "_roles",
						"offset": 0,
						"slot": "0",
						"type": "t_mapping(t_bytes32,t_struct(RoleData)22_storage)"
					},
					{
						"astId": 471,
						"contract": "SIH_Project Contract/CertRegistry.sol:CertRegistry",
						"label": "records",
						"offset": 0,
						"slot": "1",
						"type": "t_mapping(t_bytes32,t_struct(Record)480_storage)"
					}
				],
				"types": {
					"t_address": {
						"encoding": "inplace",
						"label": "address",
						"numberOfBytes": "20"
					},
					"t_bool": {
						"encoding": "inplace",
						"label": "bool",
						"numberOfBytes": "1"
					},
					"t_bytes32": {
						"encoding": "inplace",
						"label": "bytes32",
						"numberOfBytes": "32"
					},
					"t_mapping(t_address,t_bool)": {
						"encoding": "mapping",
						"key": "t_address",
						"label": "mapping(address => bool)",
						"numberOfBytes": "32",
						"value": "t_bool"
					},
					"t_mapping(t_bytes32,t_struct(Record)480_storage)": {
						"encoding": "mapping",
						"key": "t_bytes32",
						"label": "mapping(bytes32 => struct CertRegistry.Record)",
						"numberOfBytes": "32",
						"value": "t_struct(Record)480_storage"
					},
					"t_mapping(t_bytes32,t_struct(RoleData)22_storage)": {
						"encoding": "mapping",
						"key": "t_bytes32",
						"label": "mapping(bytes32 => struct AccessControl.RoleData)",
						"numberOfBytes": "32",
						"value": "t_struct(RoleData)22_storage"
					},
					"t_struct(Record)480_storage": {
						"encoding": "inplace",
						"label": "struct CertRegistry.Record",
						"members": [
							{
								"astId": 473,
								"contract": "SIH_Project Contract/CertRegistry.sol:CertRegistry",
								"label": "issuerAddress",
								"offset": 0,
								"slot": "0",
								"type": "t_address"
							},
							{
								"astId": 475,
								"contract": "SIH_Project Contract/CertRegistry.sol:CertRegistry",
								"label": "fileHash",
								"offset": 0,
								"slot": "1",
								"type": "t_bytes32"
							},
							{
								"astId": 477,
								"contract": "SIH_Project Contract/CertRegistry.sol:CertRegistry",
								"label": "issuedAt",
								"offset": 0,
								"slot": "2",
								"type": "t_uint256"
							},
							{
								"astId": 479,
								"contract": "SIH_Project Contract/CertRegistry.sol:CertRegistry",
								"label": "revoked",
								"offset": 0,
								"slot": "3",
								"type": "t_bool"
							}
						],
						"numberOfBytes": "128"
					},
					"t_struct(RoleData)22_storage": {
						"encoding": "inplace",
						"label": "struct AccessControl.RoleData",
						"members": [
							{
								"astId": 19,
								"contract": "SIH_Project Contract/CertRegistry.sol:CertRegistry",
								"label": "hasRole",
								"offset": 0,
								"slot": "0",
								"type": "t_mapping(t_address,t_bool)"
							},
							{
								"astId": 21,
								"contract": "SIH_Project Contract/CertRegistry.sol:CertRegistry",
								"label": "adminRole",
								"offset": 0,
								"slot": "1",
								"type": "t_bytes32"
							}
						],
						"numberOfBytes": "64"
					},
					"t_uint256": {
						"encoding": "inplace",
						"label": "uint256",
						"numberOfBytes": "32"
					}
				}
			},
			"userdoc": {
				"kind": "user",
				"methods": {
					"issueInstitutionalRecord(bytes32,bytes32)": {
						"notice": "Issues a new institutional record, such as a NAAC report."
					},
					"issueRecord(bytes32,bytes32)": {
						"notice": "Issues a new student or general record."
					},
					"revokeRecord(bytes32)": {
						"notice": "Revokes an existing record."
					},
					"verifyRecord(bytes32,bytes32)": {
						"notice": "Verifies a record's existence and authenticity."
					}
				},
				"version": 1
			}
		}
	}
}